:100000000C94E7000C946F070C9448070C940F01B4
:100010000C940F010C940F010C940F010C940F0120
:100020000C940F010C940F010C940F010C94960783
:100030000C940F010C940F010C940F010C940F0100
:100040000C94FE060C940F010C94BC090C949609B8
:100050000C940F010C940F010C940F010C940F01E0
:100060000C940F010C940F0100407A10F35A00A079
:10007000724E18090010A5D4E80000E87648170071
:1000800000E40B54020000CA9A3B000000E1F505B1
:10009000000080969800000040420F000000A086FB
:1000A00001000000102700000000E803000000002D
:1000B0006400000000000A000000000001000000D1
:1000C00000002C76D888DC674F0823DFC1DFAE59EB
:1000D000E1B1B796E5E3E453C63AE651997696E87E
:1000E000E6C28426EB898C9B62ED407C6FFCEFBC02
:1000F0009C9F40F2BAA56FA5F490055A2AF75C932D
:100100006B6CF9676DC11BFCE0E40D47FEF520E662
:10011000B500D0ED902E0300943577050080841E45
:10012000080000204E0A000000C80C333333330FA0
:10013000986E12831141EF8D2114893BE65516CF3D
:10014000FEE6DB18D1844B381BF77C1D901DA4BB49
:10015000E424203284725E228100C9F124ECA1E5FE
:100160003D27000001000800400000010004050DCB
:1001700000000000240027002A00000000002500E5
:1001800028002B0000000008000201000003040703
:100190000000000000000000000000002300260016
:1001A00029000404040404040404020202020202FA
:1001B000030303030303010204081020408001022B
:1001C00004081020010204081020C90E210C11247B
:1001D0001FBECFEFD8E0DEBFCDBF11E0A0E0B1E0A1
:1001E000E8E4FDE202C005900D92A23AB107D9F70A
:1001F00023E0A2EAB1E001C01D92AF3CB207E1F7F3
:1002000010E0C6EED0E004C02197FE010E949514D4
:10021000C53ED107C9F70E94330C0C9497160C9475
:100220000000FC01918D228D892F90E0805C9F4F12
:10023000821B91098F739927089580E090E0892BA4
:1002400029F00E941D0981110C940000089583304B
:1002500081F028F4813099F08230A1F00895873040
:10026000A9F08830B9F08430D1F4809180008F7D7E
:1002700003C0809180008F7780938000089584B5BB
:100280008F7702C084B58F7D84BD08958091B000C2
:100290008F7703C08091B0008F7D8093B000089568
:1002A0003FB7F8948091AD019091AE01A091AF015C
:1002B000B091B00126B5A89B05C02F3F19F001965B
:1002C000A11DB11D3FBFBA2FA92F982F8827820FDC
:1002D000911DA11DB11DBC01CD0142E0660F771F2C
:1002E000881F991F4A95D1F7089508958CE30895C2
:1002F00081E008959FB7F894662339F082E0613079
:1003000029F08093A50180E001C081E02091A40143
:10031000822B8093A4018091A501811103C081E00B
:100320008093A5019FBF08958091A501882361F066
:100330009FB7F8942091A5018091A301213019F471
:100340008DBB9FBF08958FBF0895FC014085318507
:100350008091A501882399F02FB7F8948091A50189
:10036000813059F48DB38093A3019DB38091A40192
:10037000809589238DBB2FBF02C02093A3014CBD64
:100380003DBD08959FB7F8948091A201882319F08C
:1003900081508093A2018091A201811105C08CB58A
:1003A0008F7B8CBD1092A5019FBF08958CB58F7770
:1003B0008CBD08958CB580688CBD08956EBD00001D
:1003C0000DB407FEFDCF8EB50895FC0173836283E3
:1003D0000895FC01778366830895FC017583648327
:1003E00008950895FC01848995890895FC01828906
:1003F00093890895FC0180899189089580E008958A
:10040000FC01738362830895FC01828193810895C6
:10041000FC01868597850895FC0181850895FC017E
:1004200080850895FC0187810895FC0186810895E7
:10043000FC01409595854923642B65870895FC014F
:1004400064870895FC0163870895FC01628708951D
:10045000FC0164830895FC0165830895FC012281F9
:10046000338123303105D1F381E00895CF93DF93B9
:10047000EC01E881F9810280F381E02DCE0109953C
:100480008823B9F3DF91CF910895862740E1849FB7
:10049000900111242827622F70E0562F4427292F1E
:1004A00030E0242B352BCB0144E0959587954A9578
:1004B000E1F728273927CB0153E0880F991F5A9578
:1004C000E1F78227932708950E948216DF92EF9228
:1004D000FF920F931F93CF93DF93EC017B018A016F
:1004E000E881F9810280F381E02D0995D82E8823D7
:1004F000D1F0E114F104B1F00115110599F0FE01FC
:10050000E359FF4F80818750F8019081891708F4E3
:100510008083F801408150E0BE01625D7F4FC701DA
:100520000E94871619A28D2DDF91CF911F910F91F7
:10053000FF90EF90DF900895FC01848DDF01A80FFC
:10054000B11DA35ABF4F2C91848D90E001968F73FB
:100550009927848FA689B7892C93A089B1898C911A
:10056000837080648C93938D848D981306C0028869
:10057000F389E02D80818F7D808308951F93CF9331
:10058000DF93282F30E0F901EC57FE4F8491F901F9
:10059000EA54FE4FD491F901EE55FE4FC491CC239D
:1005A000C1F0162F81110E942701EC2FF0E0EE0F11
:1005B000FF1FE658FE4FA591B4919FB7F894111113
:1005C00004C08C91D095D82302C0EC91DE2BDC9333
:1005D0009FBFDF91CF911F9108954F925F926F92CD
:1005E0007F928F929F92AF92BF92CF92DF92EF92C3
:1005F000FF920F931F93CF93DF934D3310F0512C45
:100600001DC1042F172FB62EEC01E881F981048457
:10061000F585E02D0995E881F9810288F389E02DBF
:10062000CE010995582E882351F37E0129E7E20E69
:10063000F11C77E0D72ED00E6D2D8FEF9FEF0E942B
:100640004502ED2DF0E0A4E0F595E795AA95E1F7D8
:10065000E25FFE4F2081D7012C93ED2DEF70F0E08B
:10066000E25FFE4F2081FE01E658FF4F2083DA84CF
:100670006D2D0E944502ED2DF0E0B4E0F595E79573
:10068000BA95E1F7E25FFE4F2081FE01E558FF4F8A
:100690002083ED2DEF70F0E0E25FFE4F2081FE0140
:1006A000E458FF4F2083DB846D2D0E944502ED2D21
:1006B000F0E024E0F595E7952A95E1F7E25FFE4F3B
:1006C0002081FE01E358FF4F2083ED2DEF70F0E015
:1006D000E25FFE4F2081FE01E258FF4F2083DC8461
:1006E0006D2D0E944502ED2DF0E034E0F595E79583
:1006F0003A95E1F7E25FFE4F2081FE01E158FF4F9E
:100700002083ED2DEF70F0E0E25FFE4F2081FE01CF
:10071000E058FF4F2083DD846D2D0E944502ED2DB2
:10072000F0E044E0F595E7954A95E1F7E25FFE4F8A
:100730002081FE01EF57FF4F2083ED2DEF70F0E099
:10074000E25FFE4F2081FE01EE57FF4F20834701FD
:10075000CB2CD12E10E05601A00EB11EB2E08B0EB4
:10076000911CAC14BD04F1F03601F60141906F010B
:10077000642D0E944502E42DF0E064E0F595E795D4
:100780006A95E1F7E25FFE4F2081D40118962C9321
:10079000D301EC91EF70F0E0E25FFE4F2081F401B5
:1007A0002187DCCF0B5F1F4F000F111F80959095A5
:1007B000D701A00FB11FFC0134E0F695E7953A95FB
:1007C000E1F7EF70FF27E25FFE4F20812C93FC01E1
:1007D000EF70FF27E25FFE4F208111962C93119757
:1007E000FC01EF2FFF27E295EF70E25FFE4F2081C3
:1007F00012962C931297E92FFF27EF70FF27E25FE5
:10080000FE4F808113968C93FE01E150FF4F045FF1
:1008100000838A819B81039789F0E159F109108255
:1008200031961082319610826F8D81E068278D8D10
:100830000E94BE0283E090E09B838A83852DDF9136
:10084000CF911F910F91FF90EF90DF90CF90BF90CD
:10085000AF909F908F907F906F905F904F90089592
:10086000EF92FF921F93CF93DF93FC01228133819C
:100870002330310509F446C0EC018281938104974D
:1008800061F0678D858D0E94BE0260E08C8D0E94B4
:10089000BE0284E090E09B838A8388A1882381F153
:1008A00010E08FEF9FEF7E01FDE6EF0EF11CF701E8
:1008B0002081121740F4FE01E10FF11D61A50E9495
:1008C00045021F5FF4CF883B904F39F088899989A2
:1008D0000196998B888B19A212C08AA58E838BA54D
:1008E0008F838CA588878DA589878D8181110CC008
:1008F0009E818C81981741F08E818F3F29F018A23C
:1009000089A10AC080E008C08A899B8901969B8BD7
:100910008A8B81E089A3F3CFDF91CF911F91FF9064
:10092000EF900895CF93DF9390E0FC01EA54FE4FDF
:100930002491FC01EE55FE4F8491882361F190E0F3
:10094000880F991FFC01E059FE4FC591D491FC011D
:10095000E658FE4FA591B491611109C09FB7F89474
:100960008881209582238883EC912E230BC06230EE
:1009700061F49FB7F8948881322F30958323888360
:10098000EC912E2B2C939FBF06C08FB7F894E88173
:100990002E2B28838FBFDF91CF9108954F925F92C6
:1009A0006F927F92AF92BF92CF92DF92EF92FF92BF
:1009B0001F93CF93DF9300D0CDB7DEB77C01909328
:1009C000A7018093A60161E0FC01848D0E9492043E
:1009D00060E0F701838D0E94920461E0F701858D4C
:1009E0000E949204C7010E94590AF701C18CD28C5F
:1009F000C114D10409F45BC0E12CF12C83E0CC0CD0
:100A0000DD1CEE1CFF1C8A95D1F794E6A92E91E01F
:100A1000B92E11E0412C24E2522E24EF622E712CCB
:100A200042E050E0B501CE0101960E9458102981A4
:100A30003A8140E050E0C301B2010E948E13CA0126
:100A4000B901A70196010E948E13DA01C90102972C
:100A5000A109B1098D3F9F4FA105B10538F01F5F76
:100A600062E0A60EB11C1730D9F603C01630F9F0BB
:100A70000BC02230310541055105C8F02115310563
:100A800081E04807510598F41092800088E0809337
:100A9000810080918100182B109381003093890090
:100AA0002093880080916F00826080936F0081E0C6
:100AB0000F900F90DF91CF911F91FF90EF90DF90FB
:100AC000CF90BF90AF907F906F905F904F900895C0
:100AD0000F931F93CF93FC01828193818430910502
:100AE00069F08330910579F08230910589F00197A2
:100AF000A1F040E452E46FE070E013C040E054E243
:100B000064EF70E00EC040E052E16AE770E009C0B7
:100B100040E059E06DE370E004C040E854E86EE165
:100B200070E086819781009771F08130910539F0EE
:100B30008230910531F0039731F49CE005C094E0D8
:100B400003C098E001C090E000E012E12AE730E045
:100B500080E0401751076207730740F436952795E8
:100B6000179507958F5F8630A1F787E021E028274A
:100B7000448155814130510511F080E501C080E785
:100B8000322F3695932B982B908721702187CFB7E2
:100B9000F8948091A201811127C0ECEAF1E08491E0
:100BA000E0ECF1E09491E82FF0E0EE0FFF1FE05948
:100BB000FE4FA591B491EC91E92321F461E08AE024
:100BC0000E94BE0261E08AE00E9492048CB58061BE
:100BD0008CBD8CB580648CBD61E08DE00E94920478
:100BE00061E08BE00E9492048091A2018F5F80936C
:100BF000A201CFBFCF911F910F9108958F929F9225
:100C0000AF92BF92CF92DF92EF92FF926B017C0185
:100C10000E9450014B015C01C114D104E104F104B4
:100C2000F1F00E945001DC01CB0188199909AA0951
:100C3000BB09883E9340A105B10570F321E0C21ABB
:100C4000D108E108F10888EE880E83E0981EA11C07
:100C5000B11CC114D104E104F10419F7DDCFFF90F8
:100C6000EF90DF90CF90BF90AF909F908F900895BE
:100C70002FB7F8946091A9017091AA018091AB01FE
:100C80009091AC012FBF08958F929F92AF92BF9227
:100C9000CF92DF92EF92FF92CF93DF93FC012789EF
:100CA000308D232BB9F1EC010E9438064B015C0119
:100CB00089E0C82ED12CE12CF12CE881F98104883F
:100CC000F589E02DCE010995882321F10E9438068F
:100CD000AB01BC01481959096A097B098F89988DB4
:100CE000A0E0B0E084179507A607B707A8F00E9418
:100CF0000110A70196010E94B0139B01AC012F5F68
:100D00003F4F4F4F5F4FA4E6B0E00E94CF130E94C9
:100D1000FE05D3CF81E001C080E0DF91CF91FF904D
:100D2000EF90DF90CF90BF90AF909F908F900895FD
:100D30008F929F92AF92BF92CF92DF92EF92FF92EB
:100D4000CF93DF93EC016B010E9438064B015C01ED
:100D5000E12CF12C0E943806DC01CB01881999099D
:100D6000AA09BB098C159D05AE05BF0530F48A8123
:100D70009B81039779F381E001C080E0DF91CF91FF
:100D8000FF90EF90DF90CF90BF90AF909F908F90AB
:100D900008958F929F92AF92BF92CF92DF92EF927F
:100DA000FF92CF93DF93EC016B010E9438064B0159
:100DB0005C01E12CF12C0E943806DC01CB01881982
:100DC0009909AA09BB098C159D05AE05BF0550F40C
:100DD000E881F9810280F381E02DCE010995882315
:100DE00051F301C080E0DF91CF91FF90EF90DF9051
:100DF000CF90BF90AF909F908F9008951F920F92C9
:100E00000FB60F9211242F933F938F939F93AF931D
:100E1000BF938091A9019091AA01A091AB01B091DB
:100E2000AC013091A80123E0230F2D3720F4019667
:100E3000A11DB11D05C026E8230F0296A11DB11DFD
:100E40002093A8018093A9019093AA01A093AB01DC
:100E5000B093AC018091AD019091AE01A091AF0132
:100E6000B091B0010196A11DB11D8093AD01909389
:100E7000AE01A093AF01B093B001BF91AF919F912C
:100E80008F913F912F910F900FBE0F901F9018954B
:100E90001F920F920FB60F9211242F933F934F93EF
:100EA0005F936F937F938F939F93AF93BF93EF93D2
:100EB000FF93E0910201F09103010995FF91EF91F9
:100EC000BF91AF919F918F917F916F915F914F9162
:100ED0003F912F910F900FBE0F901F9018951F926A
:100EE0000F920FB60F9211242F933F934F935F935E
:100EF0006F937F938F939F93AF93BF93EF93FF93E2
:100F0000E0910001F09101010995FF91EF91BF91EE
:100F1000AF919F918F917F916F915F914F913F9191
:100F20002F910F900FBE0F901F9018951F920F9248
:100F30000FB60F921124CF92DF92EF92FF920F9390
:100F40001F932F933F934F935F936F937F938F9351
:100F50009F93AF93BF93CF93DF93EF93FF93C09192
:100F6000A601D091A7018A819B81049709F0C7C08F
:100F70002B8D30E0F901EC57FE4F8491F901EA54D2
:100F8000FE4F0491F901EE55FE4F1491112379F0B3
:100F900081110E942701E12FF0E0EE0FFF1FE856BC
:100FA000FE4FA591B491EC91E02381E009F480E03B
:100FB00081709E8D892719F09BA19F5F9BA39AA1A9
:100FC000981759F09CA1903510F09DE101C09BE06D
:100FD0002CA1920F9CA38AA303C08CA18C5E8CA32E
:100FE0008CA1803A08F4DCC08EA19FA196958795CC
:100FF0009FA38EA38BA1853028F08EA19FA198601E
:101000009FA38EA38CA1805A8CA31BA28DA18823A1
:1010100009F468C088A58F5F88A78C3008F4C0C029
:101020008EA19FA1982F9F73892F86958695887092
:1010300028E0280F281749F0E82FF0E0E25FFE4F84
:101040003081931719F08F5FF5CF80E020E1829F08
:10105000C00111242EA13FA196E0369527959A95BF
:10106000E1F7422F3695279536952795287038E079
:10107000320F321749F0E22FF0E0E25FFE4F50816D
:10108000451719F02F5FF5CF20E0822BAE014359B1
:101090005F4FFA019081DE01A459BF4F9923B1F04F
:1010A000FA01908121E0290F20839E01290F311D33
:1010B000F90181A7FA0190818C91981788F01DA2FF
:1010C00081E088A3CE010E94590A0AC08C939C91AA
:1010D000973008F45FC09C91943408F05BC0E0CF77
:1010E00018A65EC08EA19FA188339B4009F058C00E
:1010F00081E08DA318A6C359DF4F188251C08A81A1
:101100009B81039709F04CC08E0100591F4FF801D5
:10111000808191E0980F9083811136C06E01FEE6C8
:10112000CF0ED11CF6018081EF56FF4F90818917B9
:1011300048F0CE010E94590A8C899D8901969D8BA9
:101140008C8B22C0FE01E80FF11DEF58FF4F60812C
:1011500070E07E01FFE6EF0EF11CF701808191E067
:10116000980F908302C0759567958A95E2F7617034
:101170008C8D0E94BE02F7018081863028F010829B
:10118000F60180818F5F8083F8018081883040F094
:10119000108206C01DA2888999890196998B888B37
:1011A000FF91EF91DF91CF91BF91AF919F918F917F
:1011B0007F916F915F914F913F912F911F910F916F
:1011C000FF90EF90DF90CF900F900FBE0F901F9089
:1011D000189580E090E00895FC01538D448D252FF3
:1011E00030E0842F90E0821B930B541710F0CF96C1
:1011F000089501970895FC01918D828D981761F0F3
:10120000828DDF01A80FB11D5D968C91928D9F5F3D
:101210009F73928F90E008958FEF9FEF0895FC01E8
:10122000918D828D981731F0828DE80FF11D858D9B
:1012300090E008958FEF9FEF089589EB91E00E9471
:10124000110121E0892B09F420E0822F0895EF920B
:10125000FF920F931F93CF93DF93EC0181E0888F70
:101260009B8D8C8D981305C0E889F989808185FD57
:1012700026C0F62E0B8D10E00F5F1F4F0F73112746
:10128000E02E8C8DE8120CC00FB607FCFACFE8896F
:10129000F989808185FFF5CFCE010E949C02F1CFB4
:1012A0008B8DFE01E80FF11DE35AFF4FF0829FB7CF
:1012B000F8940B8FEA89FB89808180620AC09FB70E
:1012C000F894EE89FF896083E889F98980818370C9
:1012D000806480839FBF81E090E0DF91CF911F9178
:1012E0000F91FF90EF900895CF93DF93EC01888DDD
:1012F0008823C9F0EA89FB89808185FD05C0A8891A
:10130000B9898C9186FD0FC00FB607FCF5CF80819F
:1013100085FFF2CFA889B9898C9185FFEDCFCE01E9
:101320000E949C02E7CFDF91CF9108951F920F9208
:101330000FB60F9211242F933F934F935F936F93A8
:101340007F938F939F93AF93BF93EF93FF9389EB1B
:1013500091E00E949C02FF91EF91BF91AF919F910C
:101360008F917F916F915F914F913F912F910F904E
:101370000FBE0F901F9018951F920F920FB60F92ED
:1013800011242F938F939F93EF93FF93E091C901C3
:10139000F091CA018081E091CF01F091D00182FDEE
:1013A00012C090818091D2018F5F8F732091D30101
:1013B000821751F0E091D201F0E0E754FE4F958F93
:1013C0008093D20101C08081FF91EF919F918F9115
:1013D0002F910F900FBE0F901F901895CF92DF9214
:1013E000EF92FF92CF93DF93B091A302882311F085
:1013F000AB2F01C0A0E08091A40290E0880F991F5C
:1014000088569E4FC090A902D090AA02E090AB02ED
:10141000F090AC0220E030E0FC01C591D491E8816D
:10142000EB23A90160E070E0EA130CC02F5F3F4F8F
:101430004C155D056E057F0578F33FEF2FEF8FEFBD
:101440009FEF03C0322F252FCB01632F722FDF9127
:10145000CF91FF90EF90DF90CF9008950895CF92B5
:10146000DF92EF92FF920F931F93CF93DF936C0164
:101470007A018B01C0E0D0E0CE15DF0581F0D80104
:101480006D918D01D601ED91FC910190F081E02DDF
:10149000C6010995892B11F02196EECF7E01C70177
:1014A000DF91CF911F910F91FF90EF90DF90CF9040
:1014B0000895CF93DF93FC012281338122303105DF
:1014C00069F0EC01678D858D0E94BE0260E08C8D15
:1014D0000E94BE0282E090E09B838A83DF91CF91DD
:1014E00008950F931F93CF93DF938C01EB01FC01C1
:1014F00080819181009739F068817981611571054A
:10150000A1F40E94331588819981F8019183808329
:101510008A819B81938382838C819D81958384833F
:10152000198218821B821A820FC0F80142815381EE
:101530002C813D814217530720F30E9490168C8125
:101540009D81F801958384831D821C82DF91CF9158
:101550001F910F910895CF92DF92EF92FF920F9318
:101560001F93CF93DF93CDB7DEB7C054D1400FB6F2
:10157000F894DEBF0FBECDBF0E9438060091A502D1
:101580001091A6022091A7023091A8026B017C0164
:10159000C01AD10AE20AF30A40EDC41647E0D406A5
:1015A000E104F10418F48091AD02CAC06093A50271
:1015B0007093A6028093A7029093A8021092A002B3
:1015C00010929F0210929E0210929D0210929C0215
:1015D00062E08091A1020E94920461E070E080E0EC
:1015E00090E00E94FE0561E08091A1020E949204B9
:1015F00060E08091A1020E94BE028091A20285510A
:10160000823028F48BE291E10197F1F706C064E1A2
:1016100070E080E090E00E94FE0562E08091A1020F
:101620000E9492048091AE0290E08230910538F0E1
:10163000880F991F880F991F05970197F1F7F89464
:1016400080E00E94EE096F3F7F4F8F4F9F4F21F444
:101650001092AD02789441C081E00E94EE096F3F84
:101660007F4F8F4F9F4FA1F38E010F5F1F4F6E0172
:101670002FEBC21A2EEFD20A780180E00E94EE0909
:10168000F701608371838283938381E00E94EE0976
:10169000F7016483758386839783F8E0EF0EF11C6E
:1016A000EC14FD0451F7789420E030E0F801C0809C
:1016B000D180E280F3804481558166817781FFEF9C
:1016C000CF16DF06EF06FF0631F04F3F8FEF5807CA
:1016D0006807780721F41092AD0280E031C0F9016B
:1016E00083E0F595E7958A95E1F7E456FD4F808113
:1016F000880FC416D506E606F70608F481608083D5
:101700002F5F3F4F085F1F4F2832310579F6209138
:10171000A00230E040919C0280919D0290E0840FF5
:10172000911D40919E02840F911D40919F02840F54
:10173000911D99272817390771F681E08093AD0232
:10174000C05CDE4F0FB6F894DEBF0FBECDBFDF9199
:10175000CF911F910F91FF90EF90DF90CF90089560
:101760000F931F93CF93DF93EC01888199810097AA
:1017700029F02A813B812617370788F48B016F5F98
:101780007F4F0E94BC15009761F0998388831B836B
:101790000A832C813D81232B11F4FC01108281E00E
:1017A00001C080E0DF91CF911F910F910895CF93F9
:1017B000DF93EC0188819981009711F00E94331525
:1017C000198218821D821C821B821A82DF91CF919E
:1017D0000895EF92FF920F931F93CF93DF93EC0145
:1017E0007B018A01BA010E94B00B811104C0CE01B5
:1017F0000E94D70B07C01D830C83B7018881998194
:101800000E949016CE01DF91CF911F910F91FF9012
:10181000EF900895CF93DF93EC016115710559F0B6
:10182000FB0101900020E9F73197AF01461B570BF0
:101830000E94E90B02C00E94D70BCE01DF91CF912D
:1018400008958091AF039091B0030E943315809169
:10185000B5039091B6030E9433158091BB0390911C
:10186000BC030C943315CF93DF93CDB7DEB7A797A6
:101870000FB6F894DEBF0FBECDBF789484B58260FA
:1018800084BD84B5816084BD85B5826085BD85B524
:10189000816085BD80916E00816080936E001092A2
:1018A000810080918100826080938100809181001D
:1018B00081608093810080918000816080938000AE
:1018C0008091B10084608093B1008091B00081600C
:1018D0008093B00080917A00846080937A00809138
:1018E0007A00826080937A0080917A008160809390
:1018F0007A0080917A00806880937A001092C1000B
:10190000109298021092990210929A0210929B02E1
:10191000109258021092590210925A0210925B02D1
:101920000E9438066B017C014B015C0188EB880E3C
:101930008BE0981EA11CB11C0E9438066C157D0519
:101940008E059F0528F086169706A806B906A0F70B
:1019500060ED77E080E090E00E94FE05E091C90133
:10196000F091CA0182E08083E091C501F091C60147
:101970001082E091C701F091C80180E1808310924C
:10198000D101E091CD01F091CE0186E08083E0911C
:10199000CB01F091CC01808180618083E091CB010B
:1019A000F091CC01808188608083E091CB01F0913F
:1019B000CC01808180688083E091CB01F091CC01E3
:1019C00080818F7D80830E943806609358027093D7
:1019D000590280935A0290935B0241E150E06EE815
:1019E00071E089EB91E00E942F0A0E9438066B019A
:1019F0007C014B015C018AE0880E911CA11CB11C8A
:101A00000E9438066C157D058E059F0528F0861608
:101A10009706A806B906A0F781E080936C028FEACA
:101A200092E00E94CE0462E08091A1020E949204A2
:101A30000E943806DC01CB01805D9740A109B10905
:101A40008093A5029093A602A093A702B093A80248
:101A500087E38093AE0260ED77E080E090E00E9443
:101A6000FE050E94AB0A8823D1F18091A2028B303F
:101A7000B0F18D30A8F08551823088F560919C02DC
:101A800070919D0276276727762780E090E00E947C
:101A900093122DEC3CEC4CEC5DE30E94D0121CC088
:101AA00060919D0270E080E090E00E9495122DEC24
:101AB0003CEC4CEC5DE30E94D0126B017C01609128
:101AC0009C0270E080E090E00E9495129B01AC01C6
:101AD000C701B6010E9429146B017C0106C0C12C0C
:101AE000D12C90ECE92E9FE7F92EC092B501D0924F
:101AF000B601E092B701F092B8010E94AB0A8823C8
:101B000009F46DC08091A2028C3009F446C018F42B
:101B10008B30D1F064C08551823008F060C01091E4
:101B20009E02612F6F7770E0762F662780919F026B
:101B3000682B80E090E00E9493122DEC3CEC4CEC82
:101B40005DE30E94D01247C060919E0270E080E089
:101B500090E00E9493124B015C0110919F0217FFCD
:101B60000AC09B01AC0160E070E080E89FEB0E943E
:101B700028144B015C01612F6F7070E080E090E0F1
:101B80000E9495122DEC3CEC4CEC5DE30E94D012CF
:101B9000A50194010E94291426C010919E02609113
:101BA0009F026F7070E080E090E00E9495122DEC33
:101BB0003CEC4CEC5DE30E94D0124B015C01612FC8
:101BC00070E080E090E00E9493129B01AC01C5019F
:101BD000B4010E94291417FF06C0905804C060E0A9
:101BE00070E080EC9FE76093B1017093B201809345
:101BF000B3019093B4011BA21AA21DA21CA21FA2A2
:101C00001EA28E010F5F1F4F22E044E0C701B60104
:101C10000E94960FBC01CE0182960E940A0CBE0162
:101C20006E5D7F4F8BEB93E00E94710A8AA19BA1AE
:101C30000E9433156091B1017091B2018091B3019E
:101C40009091B4011BA21AA21DA21CA21FA21EA247
:101C500022E044E00E94960FBC01CE0182960E94D1
:101C60000A0CBE016E5D7F4F85EB93E00E94710A06
:101C70008AA19BA10E9433151A8219821C821B82A1
:101C80001E821D826091BB037091BC0361157105BA
:101C900039F04091BF035091C003C8010E94E90B85
:101CA000ED80FE808FEFE81AF80AB701CE010196A9
:101CB0000E94B00B882309F467C029813A818D8185
:101CC0009E8160EA71E0820F931F0E949016FE824F
:101CD000ED82E090B903F090BA03C090B503D090C4
:101CE000B603C114D10409F44AC0E114F104B1F0FF
:101CF0008D819E81E80EF91EB701CE0101960E94EA
:101D0000B00B8823E1F129813A818D819E81B60152
:101D1000820F931F0E949016FE82ED8269817A8164
:101D20006115710539F04D815E818FEA93E00E9463
:101D3000E90B04C08FEA93E00E94D70B89819A8156
:101D40000E9433156091AF037091B003FB010190C5
:101D50000020E9F73197AF01461B570B8FEA92E05D
:101D60000E94ED028FEA92E00E942E0268E873E181
:101D700080E090E00E94FE050E941D016CCECE0125
:101D800001960E94D70BCACFCE0101960E94D70BB5
:101D9000A0CFCF93DF93CDB7DEB728970FB6F894D7
:101DA000DEBF0FBECDBFE9EBF1E01382128288EEF9
:101DB00093E0A0E0B0E084839583A683B7838AE2B2
:101DC00091E09183808385EC90E09587848784EC13
:101DD00090E09787868780EC90E0918B808B81ECF8
:101DE00090E0938B828B82EC90E0958B848B86ECD9
:101DF00090E0978B868B118E128E138E148EE6E5F3
:101E0000F2E01682178210861186128613861486D7
:101E1000158616861786108A118A128A138A148AE2
:101E2000158AE1ECF3E01382128215821482178284
:101E300016828CE391E09183808380E58087118610
:101E40008BEB93E00E94890F85EB93E00E94890F52
:101E50008FEA93E00E94890FEFEAF2E01382128288
:101E60008FEF84838287838714861586118A108A70
:101E7000138A128A158A148A108E178A86E591E0D1
:101E80009183808380ED97E0928F818F83E0838FB1
:101E900084E0848F8AE0858F168E178E88E0EEE1CD
:101EA000F1E0DE01119601900D928A95E1F788E04C
:101EB000FE013196A0E2B3E001900D928A95E1F720
:101EC000ACE9B2E082E015968C9315978BE01696FC
:101ED0008C931697E8EBF1E0E4911796EC93179743
:101EE000E4EAF1E0E4911896EC93189740E85EE399
:101EF00060E070E01D964D935D936D937C935097D9
:101F000028960FB6F894DEBF0FBECDBFDF91CF91FC
:101F10000895FC01118210821382128215821482AC
:101F200040E050E06FE971E00C94E90BEF920F9301
:101F30001F93CF93DF93E80147FD02C034E001C057
:101F400034E1042E000C550B57FF03C05195419509
:101F50005109E32E022F242FAE010E946110CE0101
:101F6000DF91CF911F910F91EF9008958F929F92E3
:101F7000AF92BF92CF92DF92EF92FF92CF93DF9317
:101F8000EC01688179818A819B81611571058105E8
:101F9000910521F464E279ED8BE597E02DE133EFD3
:101FA00041E050E00E94B01349015A019B01AC018D
:101FB000A7EAB1E40E94CF136B017C01ACEEB4EF51
:101FC000A50194010E94DD13DC01CB018C0D9D1D48
:101FD000AE1DBF1DB7FF03C00197A109B04888839C
:101FE0009983AA83BB83BC01CD019F77DF91CF91F9
:101FF000FF90EF90DF90CF90BF90AF909F908F9029
:1020000008958F929F92AF92BF92CF92DF92EF92FC
:10201000FF926091040170910501809106019091F9
:102020000701611571058105910521F464E279EDDF
:102030008BE597E02DE133EF41E050E00E94B013D3
:1020400049015A019B01AC01A7EAB1E40E94CF13F8
:102050006B017C01ACEEB4EFA50194010E94DD138D
:10206000DC01CB018C0D9D1DAE1DBF1DB7FF03C054
:102070000197A109B0488093040190930501A093B2
:102080000601B0930701BC01CD019F77FF90EF904F
:10209000DF90CF90BF90AF909F908F900895609306
:1020A0000401709305018093060190930701089540
:1020B000FB01DC0102C005900D9241505040D8F761
:1020C0000895A9E0B0E0E7E6F0E10C94E8136A01B6
:1020D000122FB02E2BE3201720F0FF24F394F00EE4
:1020E00002C02CE3F22E0F2D27E0AE014F5F5F4FB1
:1020F0000E94BB11BC014981842F8970813031F06D
:10210000E1FC06C0E0FE06C090E205C09DE203C00F
:102110009BE201C090E05E2D507143FF3CC09111E5
:1021200002C083E001C084E0811718F4212F281B2E
:1021300001C020E051110BC0F601822F30E288234C
:1021400019F031938150FBCFC20ED11C20E09923AE
:1021500029F0D6019C93F60131966F01C6010396D2
:10216000E2FE0AC03EE4D6013C9341E411964C9352
:10217000119712963C9306C03EE6F601308341E685
:1021800041833283FC01322F40E2332309F442C001
:1021900041933150FACF42FF44C0911102C083E015
:1021A00001C084E0811718F4212F281B01C020E012
:1021B00051110BC0F601822F30E2882319F03193C0
:1021C0008150FBCFC20ED11C20E0992329F0D6010B
:1021D0009C93F60131966F01C6010396E2FE0BC097
:1021E00039E4D6013C933EE411963C93119736E4D2
:1021F00012963C9307C039E6F60130833EE6318300
:1022000036E63283FC01322F40E2332319F041934A
:102210003150FBCFFC01E20FF11D10828EEF9FEFDA
:10222000A6C021E030E0911102C020E030E0161697
:1022300017061CF4FB01319602C0E1E0F0E02E0F1E
:102240003F1FBB2021F0EB2DF0E0319602C0E0E013
:10225000F0E02E0F3F1FE12FF0E02E173F071CF498
:10226000121B212F01C020E08E2D887159F4F60138
:10227000822F30E2882319F031938150FBCFC20EB8
:10228000D11C20E0992329F0D6019C93F6013196C8
:102290006F0151110BC0F601822F90E3882319F0D2
:1022A00091938150FBCFC20ED11C20E00F2D060F61
:1022B0009A81342F307144FF03C0913309F40150E7
:1022C000101624F4093018F008E001C001E0AB0159
:1022D00077FF02C040E050E0FB01E41BF50BA1E0FA
:1022E000B0E0AC0FBD1FEA0FFB1F8EE2A82E4B0122
:1022F000801A91080B2D10E01195019511094F3F9F
:10230000BFEF5B0721F4D601AC9211966D01641703
:1023100075072CF08416950614F4818101C080E3C2
:10232000415051093196D60111967D014017510750
:1023300024F0D6018C936701E2CF6417750739F456
:10234000963320F4953319F4311101C081E3F6017D
:102350008083F701822F90E2882319F091938150B6
:10236000FBCFF701E20FF11D108280E090E029968B
:10237000ECE00C940414283008F027E03327DA014D
:10238000990F311D87FD916000966105710539F443
:1023900032602E5F3D9330E32A95E1F708959F3F29
:1023A00030F080387105610509F03C5F3C5F3D937A
:1023B000913008F08068911DDF93CF931F930F93A6
:1023C000FF92EF92192F987F9695E92F9695969503
:1023D000E90FFF27EE53FF4F99273327EE24FF2401
:1023E000A701E70105900894079428F4360FE71E2B
:1023F000F81E491F511D660F771F881F991F0694ED
:10240000A1F70590079428F4E70EF81E491F561F00
:10241000C11D770F881F991F661F0694A1F70590AD
:10242000079428F4F80E491F561FC71FD11D880FA7
:10243000991F661F771F0694A1F70590079420F453
:10244000490F561FC71FD81F990F661F771F881F78
:102450000694A9F784911095177041F0D695C79509
:1024600057954795F794E7941A95C1F7E8E6F0E099
:1024700068941590159135916591959105907FE23D
:102480007395E118F10A430B560BC90BD009C0F73D
:10249000E10CF11E431F561FC91FD01D7EF470337F
:1024A00011F48A95E6CFE894015030F0080F0AF451
:1024B0000027021708F4202F2395022F7A3328F0E3
:1024C00079E37D932A95E9F710C07D932A9589F6E3
:1024D000069497956795379517951794E118F10A23
:1024E000430B560BC90BD00998F023957E91739539
:1024F0007A3308F070E37C932013B8F77E91706113
:102500007D9330F0839571E37D9370E32A95E1F735
:102510001124EF90FF900F911F91CF91DF91992798
:1025200087FD90950895E89409C097FB3EF4909537
:102530008095709561957F4F8F4F9F4F9923A9F09C
:10254000F92F96E9BB279395F6958795779567952B
:10255000B795F111F8CFFAF4BB0F11F460FF1BC06F
:102560006F5F7F4F8F4F9F4F16C0882311F096E902
:1025700011C0772321F09EE8872F762F05C06623B0
:1025800071F096E8862F70E060E02AF09A95660F69
:10259000771F881FDAF7880F9695879597F9089522
:1025A0000E94E3120C9454130E94461338F00E94C8
:1025B0004D1320F0952311F00C943D130C9443130C
:1025C00011240C9488130E94651370F3959FC1F336
:1025D000950F50E0551F629FF001729FBB27F00DD1
:1025E000B11D639FAA27F00DB11DAA1F649F662726
:1025F000B00DA11D661F829F2227B00DA11D621F75
:10260000739FB00DA11D621F839FA00D611D221F2E
:10261000749F3327A00D611D231F849F600D211D12
:10262000822F762F6A2F11249F5750409AF0F1F095
:1026300088234AF0EE0FFF1FBB1F661F771F881FFE
:1026400091505040A9F79E3F510580F00C943D13E6
:102650000C9488135F3FE4F3983ED4F38695779506
:102660006795B795F795E7959F5FC1F7FE2B880FA4
:10267000911D9695879597F9089597F99F6780E83A
:1026800070E060E008959FEF80EC089500240A94C4
:102690001616170618060906089500240A9412163D
:1026A0001306140605060895092E0394000C11F470
:1026B000882352F0BB0F40F4BF2B11F460FF04C01D
:1026C0006F5F7F4F8F4F9F4F089557FD9058440F76
:1026D000551F59F05F3F71F04795880F97FB991F81
:1026E00061F09F3F79F0879508951216130614063E
:1026F000551FF2CF4695F1DF08C0161617061806CB
:10270000991FF1CF86957105610508940895E894A5
:10271000BB2766277727CB0197F90895A1E21A2EE8
:10272000AA1BBB1BFD010DC0AA1FBB1FEE1FFF1F75
:10273000A217B307E407F50720F0A21BB30BE40BC5
:10274000F50B661F771F881F991F1A9469F760950C
:102750007095809590959B01AC01BD01CF010895C6
:10276000052E97FB1EF400940E94C71357FD07D057
:102770000E948E1307FC03D04EF40C94C71350959F
:102780004095309521953F4F4F4F5F4F089590955D
:102790008095709561957F4F8F4F9F4F08950E9450
:1027A0001914A59F900DB49F900DA49F800D911DAD
:1027B00011240895B7FF0C94CF130E94CF13821BEE
:1027C000930B08952F923F924F925F926F927F9258
:1027D0008F929F92AF92BF92CF92DF92EF92FF9231
:1027E0000F931F93CF93DF93CDB7DEB7CA1BDB0BDD
:1027F0000FB6F894DEBF0FBECDBF09942A88398882
:1028000048885F846E847D848C849B84AA84B98488
:10281000C884DF80EE80FD800C811B81AA81B98194
:10282000CE0FD11D0FB6F894DEBF0FBECDBFED01A8
:102830000895A29FB001B39FC001A39F700D811D99
:102840001124911DB29F700D811D1124911D0895B9
:102850005058BB27AA270E9440140C9454130E947E
:10286000461338F00E944D1320F039F49F3F19F4BD
:1028700026F40C9443130EF4E095E7FB0C943D13FF
:10288000E92F0E94651358F3BA176207730784078C
:10289000950720F079F4A6F50C9487130EF4E095D3
:1028A0000B2EBA2FA02D0B01B90190010C01CA010A
:1028B000A0011124FF27591B99F0593F50F4503EB5
:1028C00068F11A16F040A22F232F342F4427585FA7
:1028D000F3CF469537952795A795F0405395C9F7BF
:1028E0007EF41F16BA0B620B730B840BBAF0915077
:1028F000A1F0FF0FBB1F661F771F881FC2F70EC016
:10290000BA0F621F731F841F48F4879577956795E8
:10291000B795F7959E3F08F0B0CF9395880F08F0D4
:102920009927EE0F979587950895EE0FFF1F059055
:10293000F491E02D09940F931F93CF93DF9382308E
:10294000910510F482E090E0E091CD03F091CE0388
:1029500020E030E0A0E0B0E0309719F140815181F3
:102960000281138148175907C8F08417950769F445
:10297000109731F012960C93129713961C9327C060
:102980000093CD031093CE0322C02115310519F019
:102990004217530718F49A01BD01EF01DF01F80156
:1029A000DBCF21153105F9F0281B390B2430310517
:1029B00080F48A819B816115710521F0FB0193836D
:1029C000828304C09093CE038093CD03FE013296A0
:1029D00044C0FE01E20FF31F81939193225031090D
:1029E000398328833AC02091CB033091CC03232B29
:1029F00041F420910A0130910B013093CC032093D4
:102A0000CB0320910801309109012115310541F4D2
:102A10002DB73EB740910C0150910D01241B350B91
:102A2000E091CB03F091CC03E217F307A0F42E1B47
:102A30003F0B2817390778F0AC014E5F5F4F241722
:102A4000350748F04E0F5F1F5093CC034093CB03E4
:102A50008193919302C0E0E0F0E0CF01DF91CF914C
:102A60001F910F910895CF93DF93009709F481C0D0
:102A7000FC01329713821282A091CD03B091CE0354
:102A8000109781F420813181820F931F2091CB0315
:102A90003091CC032817390751F5F093CC03E0931C
:102AA000CB0367C0ED0120E030E0CE17DF0740F434
:102AB0004A815B819E0141155105F1F0EA01F5CF94
:102AC000D383C28340815181840F951FC817D907D2
:102AD00059F488819981840F951F02969183808390
:102AE0008A819B81938382832115310529F4F09398
:102AF000CE03E093CD033DC0E901FB83EA83499116
:102B00005991C40FD51FEC17FD0761F480819181A5
:102B1000840F951F0296E9019983888382819381AE
:102B20009B838A83E0E0F0E012968D919C9113974D
:102B3000009719F0FD01DC01F7CF8D919C91119761
:102B40009D012E5F3F4F820F931F2091CB03309149
:102B5000CC032817390769F4309729F41092CE0373
:102B60001092CD0302C013821282B093CC03A093C3
:102B7000CB03DF91CF910895A0E0B0E0E2ECF5E166
:102B80000C94E613EC01009721F4CB010E949B14F6
:102B9000B4C0FC01E60FF71F9C0122503109E21777
:102BA000F30708F4A8C0D9010D911C9111970617DD
:102BB0001707B0F00530110508F49BC0C801049751
:102BC0008617970708F495C002501109061B170BCA
:102BD000019311936D937C93CF010E94331589C0AB
:102BE0005B01A01AB10A4C01800E911EA091CD0389
:102BF000B091CE03612C712CE12CF12C109709F4CB
:102C000046C08D919C911197A815B905B1F56C013D
:102C100042E0C40ED11CCA14DB0478F14C018A18BE
:102C20009B08640142E0C40ED11C1296BC9012971E
:102C30001396AC91B5E0CB16D10440F0B282A383D9
:102C400091828082D9016D937C9309C00E5F1F4FE2
:102C5000800F911FF90191838083EB2DFA2FE114EE
:102C6000F10431F0D7011396FC93EE93129741C013
:102C7000F093CE03E093CD033CC06816790608F4C8
:102C80003C017D0112960D90BC91A02DB7CF809193
:102C9000CB039091CC0388169906E1F4661677066B
:102CA000C8F48091080190910901009741F48DB713
:102CB0009EB740910C0150910D01841B950BE817B4
:102CC000F907C8F4F093CC03E093CB03F9017183C7
:102CD00060830FC0CB010E949B147C01009759F0C8
:102CE000A801BE010E948716CE010E943315C701BC
:102CF00004C0CE0102C080E090E0CDB7DEB7EEE0C8
:102D00000C94021481E090E0F8940C949716FB0167
:102D1000DC0102C001900D9241505040D8F7089557
:102D2000FB01DC0101900D920020E1F7089510E015
:102D3000C6EED0E004C0FE010E9495142196C73E65
:082D4000D107C9F7F894FFCF99
:102D480075017501010000000000CF0380000D0E21
:102D5800131516191A1C232526292A2C32342A2A37
:102D68002A2A2A2A382C0000000027092F0AEC08F2
:102D780074091101FB080F0900000000DE01DA01E7
:102D8800D6016805C201ED01E901E501A50194013B
:102D98007A0100000000CE0430046602ED027601DC
:102DA80036022E029806C9064406FE0128022502AC
:102DB80022021F0218022B02150212020F020C0235
:102DC800080204020002FE01FA01F601F201564D62
:102DD8004450565F317C315F564D4450560D0A00C1
:022DE8002C00BD
:00000001FF
