:100000000C945D000C9485000C9485000C94850084
:100010000C9485000C9485000C9485000C9485004C
:100020000C9485000C9485000C9485000C9485003C
:100030000C9485000C9485000C9485000C9485002C
:100040000C94BD010C9485000C9485000C948500E3
:100050000C9485000C9485000C9485000C9485000C
:100060000C9407020C948500000000002400270077
:100070002A0000000000250028002B0004040404CE
:100080000404040402020202020203030303030342
:10009000010204081020408001020408102001021F
:1000A00004081020000000080002010000030407FB
:1000B0000000000000000000A20311241FBECFEFCB
:1000C000D8E0DEBFCDBF11E0A0E0B1E0E0E8F7E0AE
:1000D00002C005900D92A231B107D9F721E0A2E14B
:1000E000B1E001C01D92A239B207E1F710E0CDE501
:1000F000D0E004C02197FE010E94B303CC35D107A4
:10010000C9F70E9431030C94BE030C94000090E0E8
:10011000FC01EC55FF4F2491FC01E057FF4F349157
:10012000FC01E458FF4FE491EE2309F43CC0222384
:1001300039F1233091F038F42130A9F0223001F563
:1001400084B58F7D12C0273091F02830A1F0243083
:10015000B9F4809180008F7D03C0809180008F77FB
:10016000809380000DC084B58F7784BD09C08091D5
:10017000B0008F7703C08091B0008F7D8093B00076
:10018000F0E0EE0FFF1FEE58FF4FA591B4919FB71F
:10019000F894611104C08C913095382302C0EC9121
:1001A0003E2B3C939FBF08953FB7F89480918E01FA
:1001B00090918F01A0919001B091910126B5A89BDB
:1001C00005C02F3F19F00196A11DB11D3FBFBA2FE9
:1001D000A92F982F8827820F911DA11DB11DBC0149
:1001E000CD0142E0660F771F881F991F4A95D1F70E
:1001F00008958F929F92AF92BF92CF92DF92EF922B
:10020000FF920E94D4004B015C0184EFC82EDD24D4
:10021000D394E12CF12C0E94D400DC01CB0188198D
:100220009909AA09BB09883E9340A105B10598F335
:1002300021E0C21AD108E108F10888EE880E83E0B7
:10024000981EA11CB11CC114D104E104F10419F7DA
:10025000FF90EF90DF90CF90BF90AF909F908F90E6
:100260000895CF92DF92EF92FF920F931F93CF9357
:10027000DF936C017A018B01C0E0D0E0CE15DF0581
:1002800081F0D8016D918D01D601ED91FC91019025
:10029000F081E02DC6010995892B11F02196EECF52
:1002A0007E01C701DF91CF911F910F91FF90EF90D9
:1002B000DF90CF90089585ED8093BC008091BC00C5
:1002C00084FDFCCF10926301089540913F01262FD9
:1002D00030E0240F311D21323105DCF4209163011F
:1002E0002430C9F4FC0180E090E0861758F4309186
:1002F0003F012191DC01A15EBE4FA30FB11D2C93E4
:100300000196F3CF80913F01680F60933F0180E039
:10031000089581E0089582E0089508958FEF9FEF9A
:1003200008958FEF9FEF08958091120190E09195CD
:10033000819591090895CF93DF93CB01EA01642F52
:100340000E946501CE01DF91CF910895CF93DF9395
:100350001F92CDB7DEB7698361E0CE0101960E949E
:10036000650181E090E00F90DF91CF9108950895AD
:1003700080E090E008950E94B9031F920F920FB69B
:100380000F9211242F933F938F939F93AF93BF931B
:1003900080918A0190918B01A0918C01B0918D0187
:1003A0003091890123E0230F2D3720F40196A11D00
:1003B000B11D05C026E8230F0296A11DB11D209393
:1003C000890180938A0190938B01A0938C01B09353
:1003D0008D0180918E0190918F01A0919001B0913B
:1003E00091010196A11DB11D80938E0190938F0103
:1003F000A0939001B0939101BF91AF919F918F9184
:100400003F912F910F900FBE0F901F9018951F9244
:100410000F920FB60F9211242F933F934F935F9338
:100420006F937F938F939F93AF93BF93EF93FF93BC
:100430008091B900887F803609F49CC068F58832C5
:1004400009F45BC090F4803109F454C038F4882377
:1004500009F4F2C0883009F44DC0F2C0883109F4C3
:100460004CC0803209F45DC0EBC0803409F468C030
:1004700048F4803309F455C0883309F0E1C0809313
:100480006201D4C0803509F44FC0883509F45DC0DD
:10049000883409F0D5C0D2C0883909F4C3C0A8F4A3
:1004A000883709F467C038F4883609F463C08037A8
:1004B00009F460C0C5C0883809F4B4C0803909F4B3
:1004C0005FC0803809F0BCC05BC0803B09F484C0C9
:1004D00038F4803A09F466C0883A09F47DC0B0C0A7
:1004E000803C09F4A3C0883C09F4A0C0883B09F40F
:1004F00086C0A6C08091880110C09091870180912C
:100500008601981770F5E091870181E08E0F809346
:100510008701F0E0EA59FE4F80818093BB0085ECB3
:1005200082C0809362018AC0E091870181E08E0FD2
:10053000809387018091BB00F0E0EA59FE4F8083F1
:1005400090918701809186016AC0E091870181E0E6
:100550008E0F809387018091BB00F0E0EA59FE4F37
:10056000808380916501811169C081E0809364017D
:1005700084EA5DC083E08093630110926101CFCF74
:1005800080916101803208F04DC0E091610181E00D
:100590008E0F809361018091BB00F0E0EF5BFE4F16
:1005A0008083BDCF85EC8093BC0010926301809165
:1005B0006101803230F4E0916101F0E0EF5BFE4FC9
:1005C00010826091610170E081E491E0E0E0F0E090
:1005D00009951092610134C084E080936301109208
:1005E000400110923F01E0E0F0E0099580913F0169
:1005F000811105C081E080933F0110921F01E091BD
:10060000400181E08E0F80934001F0E0E15EFE4FFB
:1006100080818093BB009091400180913F019817A9
:1006200008F47DCF85E88093BC000AC085EC8093F8
:10063000BC001092630104C0109262010E945B0131
:10064000FF91EF91BF91AF919F918F917F916F91AA
:100650005F914F913F912F910F900FBE0F901F9080
:100660001895789484B5826084BD84B5816084BD1A
:1006700085B5826085BD85B5816085BD80916E0040
:10068000816080936E001092810080918100826071
:1006900080938100809181008160809381008091AE
:1006A00080008160809380008091B100846080939D
:1006B000B1008091B00081608093B00080917A0099
:1006C000846080937A0080917A00826080937A00BF
:1006D00080917A00816080937A0080917A008068AE
:1006E00080937A001092C100EDE9F0E02491E9E8EE
:1006F000F0E08491882399F090E0880F991FFC0125
:10070000E859FF4FA591B491FC01EE58FF4F859138
:1007100094918FB7F894EC91E22BEC938FBFC0E0EB
:10072000D0E061E08DE00E9487000E94F90060E067
:100730008DE00E9487000E94F900209791F30E94AB
:100740000000EFCFE3E1F1E01382128288EE93E044
:10075000A0E0B0E084839583A683B78384E091E032
:10076000918380830895EE0FFF1F0590F491E02D93
:10077000099481E090E0F8940C94BE03F894FFCFC4
:1007800000000000A6019B01B8018D0194019101B8
:020790008E01D8
:00000001FF
