:100000000C945D000C9485000C9485000C94850084
:100010000C9485000C9485000C9485000C9485004C
:100020000C9485000C9485000C9485000C9485003C
:100030000C9485000C9485000C9485000C9485002C
:100040000C94A9020C9485000C9477020C94510234
:100050000C9485000C9485000C9485000C9485000C
:100060000C9485000C9485000000000024002700FB
:100070002A0000000000250028002B0004040404CE
:100080000404040402020202020203030303030342
:10009000010204081020408001020408102001021F
:1000A00004081020000000080002010000030407FB
:1000B0000000000000000000080411241FBECFEF64
:1000C000D8E0DEBFCDBF11E0A0E0B1E0E8ECF8E0A1
:1000D00002C005900D92A035B107D9F721E0A0E547
:1000E000B1E001C01D92A83FB207E1F710E0CDE5F5
:1000F000D0E004C02197FE010E945704CC35D107FF
:10010000C9F70E94F3020C9462040C940000E1EB26
:10011000F0E09491EDE9F0E02491E9E8F0E0E49179
:10012000EE2309F43CC0992339F1933091F038F46F
:100130009130A9F0923001F594B59F7D12C09730AF
:1001400091F09830A1F09430B9F4909180009F7DA7
:1001500003C0909180009F77909380000DC094B56C
:100160009F7794BD09C09091B0009F7703C0909194
:10017000B0009F7D9093B000F0E0EE0FFF1FEE58AF
:10018000FF4FA591B4919FB7F894811104C08C9151
:100190002095282302C0EC912E2B2C939FBF08950D
:1001A000CF92DF92EF92FF920F931F93CF93DF9343
:1001B0006C017A018B01C0E0D0E0CE15DF0581F043
:1001C000D8016D918D01D601ED91FC910190F081E6
:1001D000E02DC6010995892B11F02196EECF7E0105
:1001E000C701DF91CF911F910F91FF90EF90DF90AA
:1001F000CF900895089580E090E00895FC01538D1C
:10020000448D252F30E0842F90E0821B930B5417F0
:1002100010F0CF96089501970895FC01918D828D7D
:10022000981761F0828DDF01A80FB11D5D968C914A
:10023000928D9F5F9F73928F90E008958FEF9FEF55
:100240000895FC01918D828D981731F0828DE80F11
:10025000F11D858D90E008958FEF9FEF0895FC01CB
:10026000918D228D892F90E0805C9F4F821B910998
:100270008F73992708958BE591E00E942F0121E06B
:10028000892B09F420E0822F0895FC01848DDF0181
:10029000A80FB11DA35ABF4F2C91848D90E00196F9
:1002A0008F739927848FA689B7892C93A089B189E8
:1002B0008C91837080648C93938D848D981306C089
:1002C0000288F389E02D80818F7D80830895EF92ED
:1002D000FF920F931F93CF93DF93EC0181E0888F00
:1002E0009B8D8C8D981305C0E889F989808185FDE7
:1002F00026C0F62E0B8D10E00F5F1F4F0F731127D6
:10030000E02E8C8DE8120CC00FB607FCFACFE889FE
:10031000F989808185FFF5CFCE010E944501F1CF9B
:100320008B8DFE01E80FF11DE35AFF4FF0829FB75E
:10033000F8940B8FEA89FB89808180620AC09FB79D
:10034000F894EE89FF896083E889F9898081837058
:10035000806480839FBF81E090E0DF91CF911F9107
:100360000F91FF90EF900895CF93DF93EC01888D6C
:100370008823C9F0EA89FB89808185FD05C0A889A9
:10038000B9898C9186FD0FC00FB607FCF5CF80812F
:1003900085FFF2CFA889B9898C9185FFEDCFCE0179
:1003A0000E944501E7CFDF91CF91089580E090E072
:1003B000892B29F00E943B0181110C9400000895C3
:1003C0003FB7F8948091550190915601A091570143
:1003D000B091580126B5A89B05C02F3F19F0019692
:1003E000A11DB11D3FBFBA2FA92F982F8827820FBB
:1003F000911DA11DB11DBC01CD0142E0660F771F0B
:10040000881F991F4A95D1F708958F929F92AF92B6
:10041000BF92CF92DF92EF92FF920E94E0014B01D8
:100420005C0180EDC82E87E0D82EE12CF12C0E94D3
:10043000E001DC01CB0188199909AA09BB09883EB2
:100440009340A105B10598F321E0C21AD108E10853
:10045000F10888EE880E83E0981EA11CB11CC1141F
:10046000D104E104F10419F7FF90EF90DF90CF90F1
:10047000BF90AF909F908F900895009769F0FC0116
:1004800001900020E9F73197AF01481B590BBC01DF
:100490008BE591E00C94D00080E090E008950E94FC
:1004A0005D041F920F920FB60F9211242F933F936A
:1004B0004F935F936F937F938F939F93AF93BF936C
:1004C000EF93FF938BE591E00E944501FF91EF913F
:1004D000BF91AF919F918F917F916F915F914F915C
:1004E0003F912F910F900FBE0F901F9018951F9264
:1004F0000F920FB60F9211242F938F939F93EF9328
:10050000FF93E0916B01F0916C018081E0917101AA
:10051000F091720182FD12C09081809174018F5F11
:100520008F7320917501821751F0E0917401F0E012
:10053000E55AFE4F958F8093740101C08081FF9131
:10054000EF919F918F912F910F900FBE0F901F9061
:1005500018951F920F920FB60F9211242F933F936D
:100560008F939F93AF93BF938091510190915201CC
:10057000A0915301B09154013091500123E0230F19
:100580002D3720F40196A11DB11D05C026E8230FCB
:100590000296A11DB11D20935001809351019093AB
:1005A0005201A0935301B093540180915501909151
:1005B0005601A0915701B09158010196A11DB11D9E
:1005C0008093550190935601A0935701B093580121
:1005D000BF91AF919F918F913F912F910F900FBE3F
:1005E0000F901F901895CF93DF93CDB7DEB7A197EB
:1005F0000FB6F894DEBF0FBECDBF789484B582608D
:1006000084BD84B5816084BD85B5826085BD85B5B6
:10061000816085BD80916E00816080936E00109234
:1006200081008091810082608093810080918100AF
:100630008160809381008091800081608093800040
:100640008091B10084608093B1008091B00081609E
:100650008093B00080917A00846080937A008091CA
:100660007A00826080937A0080917A008160809322
:100670007A0080917A00806880937A001092C1009D
:10068000E0916B01F0916C0182E08083E091670161
:10069000F09168011082E0916901F0916A018FEC9C
:1006A000808310927301E0916F01F091700186E0F8
:1006B0008083E0916D01F0916E0180818061808383
:1006C000E0916D01F0916E01808188608083E091FE
:1006D0006D01F0916E01808180688083E0916D01F1
:1006E000F0916E0180818F7D808382E191E00E9494
:1006F0003D0283E391E00E943D02EDE9F0E02491A8
:10070000E9E8F0E08491882399F090E0880F991F40
:10071000FC01E859FF4FA591B491FC01EE58FF4F41
:10072000859194918FB7F894EC91E22BEC938FBF65
:1007300080E00E9487008AE0882E912CA12CB12CA9
:1007400080E00E9487000E94050286E391E00E94FB
:100750003D02C0905901D0905A010D2C000CEE08BA
:10076000FF08F7FE20C06DE28BE591E00E94670173
:1007700022273327A9012C193D094E095F0919A227
:10078000CE0181967C01CA01B901A50194010E94A4
:100790003504605DF70162937F0121153105410544
:1007A000510589F715C0A701960119A2CE018196BE
:1007B0007C01CA01B901A50194010E943504605D64
:1007C000F70162937F01211531054105510589F734
:1007D000C7010E943D0283E391E00E943D0281E057
:1007E0000E9487000E9405028091590190915A0150
:1007F00001968A3091052CF490935A018093590107
:1008000004C010925A01109259010E94D60198CF4B
:10081000EBE5F1E01382128288EE93E0A0E0B0E015
:1008200084839583A683B78384E091E0918380835A
:1008300085EC90E09587848784EC90E097878687A5
:1008400080EC90E0918B808B81EC90E0938B828B9D
:1008500082EC90E0958B848B86EC90E0978B868B76
:10086000118E128E138E148E0895A1E21A2EAA1BD9
:10087000BB1BFD010DC0AA1FBB1FEE1FFF1FA21750
:10088000B307E407F50720F0A21BB30BE40BF50B4D
:10089000661F771F881F991F1A9469F760957095D6
:1008A000809590959B01AC01BD01CF010895EE0F9D
:1008B000FF1F0590F491E02D099481E090E0F894F9
:0808C0000C946204F894FFCFD0
:1008C800000000006701D000FE00B4012F010D01F7
:1008D800210157656C636F6D6520746F20746865BE
:1008E8002056697375616C204D6963726F20446589
:1008F8006D6F000D0A00427265616B20706F696E42
:100908007420726561636865643A2078203D200030
:107E0000112484B714BE81FFF0D085E080938100F7
:107E100082E08093C00088E18093C10086E0809377
:107E2000C20080E18093C4008EE0C9D0259A86E02C
:107E300020E33CEF91E0309385002093840096BBD3
:107E4000B09BFECF1D9AA8958150A9F7CC24DD24C4
:107E500088248394B5E0AB2EA1E19A2EF3E0BF2EE7
:107E6000A2D0813461F49FD0082FAFD0023811F036
:107E7000013811F484E001C083E08DD089C08234E0
:107E800011F484E103C0853419F485E0A6D080C0E4
:107E9000853579F488D0E82EFF2485D0082F10E0AE
:107EA000102F00270E291F29000F111F8ED06801E7
:107EB0006FC0863521F484E090D080E0DECF843638
:107EC00009F040C070D06FD0082F6DD080E0C81688
:107ED00080E7D80618F4F601B7BEE895C0E0D1E017
:107EE00062D089930C17E1F7F0E0CF16F0E7DF06D8
:107EF00018F0F601B7BEE89568D007B600FCFDCFD4
:107F0000A601A0E0B1E02C9130E011968C91119780
:107F100090E0982F8827822B932B1296FA010C0160
:107F200087BEE89511244E5F5F4FF1E0A038BF0790
:107F300051F7F601A7BEE89507B600FCFDCF97BE46
:107F4000E89526C08437B1F42ED02DD0F82E2BD052
:107F50003CD0F601EF2C8F010F5F1F4F84911BD097
:107F6000EA94F801C1F70894C11CD11CFA94CF0C13
:107F7000D11C0EC0853739F428D08EE10CD085E9AC
:107F80000AD08FE07ACF813511F488E018D01DD067
:107F900080E101D065CF982F8091C00085FFFCCF94
:107FA0009093C60008958091C00087FFFCCF809118
:107FB000C00084FD01C0A8958091C6000895E0E648
:107FC000F0E098E1908380830895EDDF803219F02E
:107FD00088E0F5DFFFCF84E1DECF1F93182FE3DFCA
:107FE0001150E9F7F2DF1F91089580E0E8DFEE27F6
:047FF000FF270994CA
:027FFE00040479
:0400000300007E007B
:00000001FF