:100000000C946A000C94EA070C94C3070C949200B9
:100010000C9492000C9492000C9492000C94920018
:100020000C9492000C9492000C9492000C94110881
:100030000C9492000C9492000C9492000C949200F8
:100040000C9479070C9492000C94DD040C94B70482
:100050000C9492000C9492000C9492000C949200D8
:100060000C9492000C9492000000010008004000E3
:1000700000010004050D00000000230026002900F7
:1000800000000000240027002A00000000002500D6
:1000900028002B00040404040404040402020202E5
:1000A000020203030303030301020408102040803B
:1000B00001020408102001020408102000000008BA
:1000C000000201000003040700000000000000001F
:1000D000D20B9A0A11241FBECFEFD8E0DEBFCDBFEE
:1000E00011E0A0E0B1E0E4E8FFE102C005900D926C
:1000F000A63BB107D9F723E0A6EBB1E001C01D9202
:10010000A238B207E1F710E0C9E6D0E004C02197B9
:10011000FE010E94AA0DC836D107C9F70E94A60A9F
:100120000C94B50F0C94000080E090E00895FC0161
:10013000538D448D252F30E0842F90E0821B930B4C
:10014000541710F0CF96089501970895FC01918DF2
:10015000828D981761F0828DDF01A80FB11D5D9629
:100160008C91928D9F5F9F73928F90E008958FEF97
:100170009FEF0895FC01918D828D981731F0828D4B
:10018000E80FF11D858D90E008958FEF9FEF0895A2
:10019000FC01918D228D892F90E0805C9F4F821B06
:1001A00091098F739927089585EC91E00E94C8000A
:1001B00021E0892B09F420E0822F0895FC01848D31
:1001C000DF01A80FB11DA35ABF4F2C91848D90E081
:1001D00001968F739927848FA689B7892C93A0895C
:1001E000B1898C91837080648C93938D848D9813E6
:1001F00006C00288F389E02D80818F7D8083089579
:10020000EF92FF920F931F93CF93DF93EC0181E066
:10021000888F9B8D8C8D981305C0E889F989808122
:1002200085FD26C0F62E0B8D10E00F5F1F4F0F735C
:100230001127E02E8C8DE8120CC00FB607FCFACF08
:10024000E889F989808185FFF5CFCE010E94DE0023
:10025000F1CF8B8DFE01E80FF11DE35AFF4FF082C5
:100260009FB7F8940B8FEA89FB89808180620AC06E
:100270009FB7F894EE89FF896083E889F9898081C6
:100280008370806480839FBF81E090E0DF91CF9195
:100290001F910F91FF90EF900895CF93DF93EC01A2
:1002A000888D8823C9F0EA89FB89808185FD05C096
:1002B000A889B9898C9186FD0FC00FB607FCF5CFD0
:1002C000808185FFF2CFA889B9898C9185FFEDCF18
:1002D000CE010E94DE00E7CFDF91CF91089580E04C
:1002E00090E0892B29F00E94D40081110C94000029
:1002F0000895833081F028F4813099F08230A1F0A4
:1003000008958730A9F08830B9F08430D1F4809115
:1003100080008F7D03C0809180008F778093800064
:10032000089584B58F7702C084B58F7D84BD08950C
:100330008091B0008F7703C08091B0008F7D809353
:10034000B0000895CF93DF9390E0FC01E855FF4F94
:100350002491FC01EC56FF4F8491882361F190E0D9
:10036000880F991FFC01E058FF4FC591D491FC0103
:10037000E657FF4FA591B491611109C09FB7F8945A
:100380008881209582238883EC912E230BC06230D4
:1003900061F49FB7F8948881322F30958323888346
:1003A000EC912E2B2C939FBF06C08FB7F894E88159
:1003B0002E2B28838FBFDF91CF9108953FB7F894FC
:1003C0008091C1019091C201A091C301B091C4017B
:1003D00026B5A89B05C02F3F19F00196A11DB11DA0
:1003E0003FBFBA2FA92F982F8827820F911DA11DDB
:1003F000B11DBC01CD0142E0660F771F881F991F18
:100400004A95D1F708952FB7F8946091BD01709186
:10041000BE018091BF019091C0012FBF0895089542
:100420008CE3089581E008959FB7F894662339F02E
:1004300082E0613029F08093B90180E001C081E061
:100440002091B801822B8093B8018091B90181116C
:1004500003C081E08093B9019FBF08958091B901E5
:10046000882361F09FB7F8942091B9018091B7017A
:10047000213019F48DBB9FBF08958FBF0895FC01F3
:10048000408531858091B901882399F02FB7F89480
:100490008091B901813059F48DB38093B7019DB338
:1004A0008091B801809589238DBB2FBF02C0209316
:1004B000B7014CBD3DBD08959FB7F8948091B6013A
:1004C000882319F081508093B6018091B601811183
:1004D00005C08CB58F7B8CBD1092B9019FBF08956C
:1004E0008CB58F778CBD08958CB580688CBD0895D0
:1004F0006EBD00000DB407FEFDCF8EB50895FC0162
:10050000738362830895FC01778366830895FC01F9
:100510007583648308950895FC01848995890895FD
:10052000FC01828993890895FC018089918908954D
:1005300080E00895FC01738362830895FC01828149
:1005400093810895FC01868597850895FC01818536
:100550000895FC0180850895FC0187810895FC01C0
:1005600086810895FC01409595854923642B658714
:100570000895FC0164870895FC0163870895FC01D8
:1005800062870895FC0164830895FC0165830895E2
:100590008F929F92AF92BF92CF92DF92EF92FF9293
:1005A000CF93DF93EC016B010E9403024B015C01CE
:1005B000E12CF12C0E940302DC01CB01881999097E
:1005C000AA09BB098C159D05AE05BF0530F48A81CB
:1005D0009B81039779F381E001C080E0DF91CF91A7
:1005E000FF90EF90DF90CF90BF90AF909F908F9053
:1005F0000895FC012281338123303105D1F381E05C
:1006000008958F929F92AF92BF92CF92DF92EF9216
:10061000FF92CF93DF93EC016B010E9403024B0129
:100620005C01E12CF12C0E940302DC01CB01881952
:100630009909AA09BB098C159D05AE05BF0550F4A3
:10064000E881F9810280F381E02DCE0109958823AC
:1006500051F301C080E0DF91CF91FF90EF90DF90E8
:10066000CF90BF90AF909F908F900895CF93DF93DE
:10067000EC01E881F9810280F381E02DCE0109953A
:100680008823B9F3DF91CF910895862740E1849FB5
:10069000900111242827622F70E0562F4427292F1C
:1006A00030E0242B352BCB0144E0959587954A9576
:1006B000E1F728273927CB0153E0880F991F5A9576
:1006C000E1F78227932708950E94970FDF92EF9218
:1006D000FF920F931F93CF93DF93EC017B018A016D
:1006E000E881F9810280F381E02D0995D82E8823D5
:1006F000D1F0E114F104B1F00115110599F0FE01FA
:10070000E359FF4F80818750F8019081891708F4E1
:100710008083F801408150E0BE01625D7F4FC701D8
:100720000E949C0F19A28D2DDF91CF911F910F91E7
:10073000FF90EF90DF9008954F925F926F927F92BB
:10074000AF92BF92CF92DF92EF92FF921F93CF931F
:10075000DF9300D0CDB7DEB77C019093BB018093CF
:10076000BA0161E0FC01848D0E94A20160E0F70102
:10077000838D0E94A20161E0F701858D0E94A20194
:10078000C7010E94CF09F701C18CD28CC114D104DA
:1007900009F45BC0E12CF12C83E0CC0CDD1CEE1CD9
:1007A000FF1C8A95D1F79AE6A92E90E0B92E11E0A8
:1007B000412C24E2522E24EF622E712C42E050E0B4
:1007C000B501CE0101960E94070D29813A8140E0D2
:1007D00050E0C301B2010E94790DCA01B901A7011D
:1007E00096010E94790DDA01C9010297A109B109A8
:1007F0008D3F9F4FA105B10538F01F5F62E0A60E47
:10080000B11C1730D9F603C01630F9F00BC02230F6
:10081000310541055105C8F02115310581E0480732
:10082000510598F41092800088E0809381008091B7
:100830008100182B10938100309389002093880049
:1008400080916F00826080936F0081E00F900F9025
:10085000DF91CF911F91FF90EF90DF90CF90BF90ED
:10086000AF907F906F905F904F9008954F925F92FE
:100870006F927F928F929F92AF92BF92CF92DF92B0
:10088000EF92FF92CF93DF93FC012789308D232BCA
:1008900009F45BC0EC010E9403022B013C01E881DA
:1008A000F9810488F589E02DCE010995882309F4A2
:1008B0004CC00E940302AB01BC01441955096609F2
:1008C00077098F89988DA0E0B0E084179507A60777
:1008D000B707E8F10E94B00C29E030E040E050E0BA
:1008E0000E94100D9B01AC012F5F3F4F4F4F5F4F98
:1008F000A4E6B0E00E942F0D6B017C010E94DE0196
:100900004B015C01C114D104E104F10441F20E94E5
:10091000DE01DC01CB0188199909AA09BB09883ECF
:100920009340A105B10570F3F1E0CF1AD108E108B9
:10093000F10828EE820E23E0921EA11CB11CC11406
:10094000D104E104F10419F7DDCF81E001C080E0BA
:10095000DF91CF91FF90EF90DF90CF90BF90AF905D
:100960009F908F907F906F905F904F9008951F920F
:100970000F920FB60F9211242F933F934F935F93D3
:100980006F937F938F939F93AF93BF93EF93FF9357
:1009900085EC91E00E94DE00FF91EF91BF91AF9155
:1009A0009F918F917F916F915F914F913F912F9187
:1009B0000F900FBE0F901F9018951F920F920FB6B9
:1009C0000F9211242F938F939F93EF93FF93E091B6
:1009D000D501F091D6018081E091DB01F091DC013D
:1009E00082FD12C090818091DE018F5F8F73209114
:1009F000DF01821751F0E091DE01F0E0EB53FE4F92
:100A0000958F8093DE0101C08081FF91EF919F91CE
:100A10008F912F910F900FBE0F901F9018951F93DD
:100A2000CF93DF93282F30E0F901E454FF4F8491F6
:100A3000F901E855FF4FD491F901EC56FF4FC491ED
:100A4000CC23C1F0162F81110E947901EC2FF0E028
:100A5000EE0FFF1FE657FF4FA591B4919FB7F89493
:100A6000111104C08C91D095D82302C0EC91DE2BDB
:100A7000DC939FBFDF91CF911F9108954F925F92BA
:100A80006F927F928F929F92AF92BF92CF92DF929E
:100A9000EF92FF920F931F93CF93DF934D3310F09C
:100AA000512C1DC1042F172FB62EEC01E881F981BE
:100AB0000484F585E02D0995E881F9810288F389A0
:100AC000E02DCE010995582E882351F37E0129E7A8
:100AD000E20EF11C77E0D72ED00E6D2D8FEF9FEF39
:100AE0000E944503ED2DF0E0A4E0F595E795AA9569
:100AF000E1F7E25FFE4F2081D7012C93ED2DEF70DF
:100B0000F0E0E25FFE4F2081FE01E658FF4F2083B8
:100B1000DA846D2D0E944503ED2DF0E0B4E0F595EB
:100B2000E795BA95E1F7E25FFE4F2081FE01E558B7
:100B3000FF4F2083ED2DEF70F0E0E25FFE4F20814C
:100B4000FE01E458FF4F2083DB846D2D0E94450396
:100B5000ED2DF0E024E0F595E7952A95E1F7E25FC9
:100B6000FE4F2081FE01E358FF4F2083ED2DEF70F3
:100B7000F0E0E25FFE4F2081FE01E258FF4F20834C
:100B8000DC846D2D0E944503ED2DF0E034E0F595F9
:100B9000E7953A95E1F7E25FFE4F2081FE01E158CB
:100BA000FF4F2083ED2DEF70F0E0E25FFE4F2081DC
:100BB000FE01E058FF4F2083DD846D2D0E94450328
:100BC000ED2DF0E044E0F595E7954A95E1F7E25F19
:100BD000FE4F2081FE01EF57FF4F2083ED2DEF7078
:100BE000F0E0E25FFE4F2081FE01EE57FF4F2083D1
:100BF0004701CB2CD12E10E05601A00EB11EB2E061
:100C00008B0E911CAC14BD04F1F03601F60141903D
:100C10006F01642D0E944503E42DF0E064E0F5953A
:100C2000E7956A95E1F7E25FFE4F2081D4011896BF
:100C30002C93D301EC91EF70F0E0E25FFE4F208146
:100C4000F4012187DCCF0B5F1F4F000F111F809530
:100C50009095D701A00FB11FFC0134E0F695E79500
:100C60003A95E1F7EF70FF27E25FFE4F20812C936A
:100C7000FC01EF70FF27E25FFE4F208111962C935D
:100C80001197FC01EF2FFF27E295EF70E25FFE4F17
:100C9000208112962C931297E92FFF27EF70FF27E0
:100CA000E25FFE4F808113968C93FE01E150FF4F6F
:100CB000045F00838A819B81039789F0E159F109E0
:100CC000108231961082319610826F8D81E06827F4
:100CD0008D8D0E940F0583E090E09B838A83852D94
:100CE000DF91CF911F910F91FF90EF90DF90CF9008
:100CF000BF90AF909F908F907F906F905F904F903C
:100D00000895EF92FF921F93CF93DF93FC0122810E
:100D100033812330310509F446C0EC01828193818F
:100D2000049761F0678D858D0E940F0560E08C8DC2
:100D30000E940F0584E090E09B838A8388A188232A
:100D400081F110E08FEF9FEF7E01FDE6EF0EF11CC9
:100D5000F7012081121740F4FE01E10FF11D61A59A
:100D60000E9445031F5FF4CF883B904F39F088897C
:100D700099890196998B888B19A212C08AA58E83B6
:100D80008BA58F838CA588878DA589878D818111FF
:100D90000CC09E818C81981741F08E818F3F29F085
:100DA00018A289A10AC080E008C08A899B8901969F
:100DB0009B8B8A8B81E089A3F3CFDF91CF911F9129
:100DC000FF90EF9008950F931F93CF93FC018281C2
:100DD00093818430910569F08330910579F08230F8
:100DE000910589F00197A1F040E452E46FE070E0D2
:100DF00013C040E054E264EF70E00EC040E052E106
:100E00006AE770E009C040E059E06DE370E004C0BB
:100E100040E854E86EE170E086819781009771F0B8
:100E20008130910539F08230910531F0039731F42A
:100E30009CE005C094E003C098E001C090E000E0B1
:100E400012E12AE730E080E040175107620773079C
:100E500040F436952795179507958F5F8630A1F753
:100E600087E021E02827448155814130510511F068
:100E700080E501C080E7322F3695932B982B908721
:100E800021702187CFB7F8948091B601811127C0D6
:100E9000EEE9F0E08491E2EBF0E09491E82FF0E0ED
:100EA000EE0FFF1FE058FF4FA591B491EC91E9239D
:100EB00021F461E08AE00E940F0561E08AE00E946F
:100EC000A2018CB580618CBD8CB580648CBD61E065
:100ED0008DE00E94A20161E08BE00E94A20180915E
:100EE000B6018F5F8093B601CFBFCF911F910F9155
:100EF00008951F920F920FB60F9211242F933F93D4
:100F00008F939F93AF93BF938091BD019091BE014A
:100F1000A091BF01B091C0013091BC0123E0230F2B
:100F20002D3720F40196A11DB11D05C026E8230F21
:100F30000296A11DB11D2093BC018093BD01909329
:100F4000BE01A093BF01B093C0018091C1019091F7
:100F5000C201A091C301B091C4010196A11DB11DB0
:100F60008093C1019093C201A093C301B093C401C7
:100F7000BF91AF919F918F913F912F910F900FBE95
:100F80000F901F9018951F920F920FB60F92112479
:100F90002F933F934F935F936F937F938F939F9381
:100FA000AF93BF93EF93FF93E0910201F0910301A0
:100FB0000995FF91EF91BF91AF919F918F917F9193
:100FC0006F915F914F913F912F910F900FBE0F90B6
:100FD0001F9018951F920F920FB60F9211242F9306
:100FE0003F934F935F936F937F938F939F93AF93B1
:100FF000BF93EF93FF93E0910001F09101010995F8
:10100000FF91EF91BF91AF919F918F917F916F91E0
:101010005F914F913F912F910F900FBE0F901F90B6
:1010200018951F920F920FB60F921124CF92DF9254
:10103000EF92FF920F931F932F933F934F935F93E2
:101040006F937F938F939F93AF93BF93CF93DF93D0
:10105000EF93FF93C091BA01D091BB018A819B812C
:10106000049709F0C7C02B8D30E0F901E454FF4F1D
:101070008491F901E855FF4F0491F901EC56FF4FB7
:101080001491112379F081110E947901E12FF0E090
:10109000EE0FFF1FEA58FF4FA591B491EC91E023AA
:1010A00081E009F480E081709E8D892719F09BA171
:1010B0009F5F9BA39AA1981759F09CA1903510F0BF
:1010C0009DE101C09BE02CA1920F9CA38AA303C0C9
:1010D0008CA18C5E8CA38CA1803A08F4DCC08EA11C
:1010E0009FA1969587959FA38EA38BA1853028F00D
:1010F0008EA19FA198609FA38EA38CA1805A8CA3E0
:101100001BA28DA1882309F468C088A58F5F88A7DA
:101110008C3008F4C0C08EA19FA1982F9F73892F97
:1011200086958695887028E0280F281749F0E82FC3
:10113000F0E0E25FFE4F3081931719F08F5FF5CF3B
:1011400080E020E1829FC00111242EA13FA196E002
:10115000369527959A95E1F7422F3695279536953E
:101160002795287038E0320F321749F0E22FF0E06F
:10117000E25FFE4F5081451719F02F5FF5CF20E059
:10118000822BAE0143595F4FFA019081DE01A459D1
:10119000BF4F9923B1F0FA01908121E0290F2083FC
:1011A0009E01290F311DF90181A7FA0190818C91CF
:1011B000981788F01DA281E088A3CE010E94CF0974
:1011C0000AC08C939C91973008F45FC09C91943432
:1011D00008F05BC0E0CF18A65EC08EA19FA1883347
:1011E0009B4009F058C081E08DA318A6C359DF4F7A
:1011F000188251C08A819B81039709F04CC08E01EF
:1012000000591F4FF801808191E0980F9083811160
:1012100036C06E01FEE6CF0ED11CF6018081EF567E
:10122000FF4F9081891748F0CE010E94CF098C8929
:101230009D8901969D8B8C8B22C0FE01E80FF11DCC
:10124000EF58FF4F608170E07E01FFE6EF0EF11C6A
:10125000F701808191E0980F908302C075956795A2
:101260008A95E2F761708C8D0E940F05F7018081ED
:10127000863028F01082F60180818F5F8083F8012C
:101280008081883040F0108206C01DA2888999892B
:101290000196998B888BFF91EF91DF91CF91BF9150
:1012A000AF919F918F917F916F915F914F913F91FE
:1012B0002F911F910F91FF90EF90DF90CF900F90A3
:1012C0000FBE0F901F9018950895CF92DF92EF9266
:1012D000FF920F931F93CF93DF936C017A018B01E1
:1012E000C0E0D0E0CE15DF0581F0D8016D918D0111
:1012F000D601ED91FC910190F081E02DC601099598
:10130000892B11F02196EECF7E01C701DF91CF919D
:101310001F910F91FF90EF90DF90CF900895EF9283
:10132000FF920F931F93CF93DF93EC017B018A0110
:1013300088819981009729F02A813B8124173507FC
:10134000F8F4B8016F5F7F4F0E94D10E009759F0FB
:10135000998388831B830A832C813D81232B81F40D
:10136000FC0110820DC088819981009711F00E94C4
:10137000480E198218821D821C821B821A8207C0A5
:101380001D830C83B701888199810E94AE0FCE0125
:10139000DF91CF911F910F91FF90EF900895CF9320
:1013A000DF93FC01228133812230310569F0EC01A9
:1013B000678D858D0E940F0560E08C8D0E940F0562
:1013C00082E090E09B838A83DF91CF9108950F9311
:1013D0001F93CF93DF938C01EB01FC0180819181FE
:1013E000009739F06881798161157105A1F40E9437
:1013F000480E88819981F801918380838A819B813D
:10140000938382838C819D81958384831982188242
:101410001B821A820FC0F801428153812C813D81C9
:101420004217530720F30E94AE0F8C819D81F80173
:10143000958384831D821C82DF91CF911F910F9130
:101440000895FC01808191810C94480EFC01118269
:10145000108213821282158214826115710551F077
:10146000FB0101900020E9F73197AF01461B570BB4
:101470000C948F090895CF92DF92EF92FF920F9311
:101480001F93CF93DF936C01EB017A014617570747
:1014900020F48D2FEA01E62EF82E64EB71E0C601F0
:1014A0000E94260A0091660210916702C017D107B8
:1014B000B8F5E016F10608F48701E0916202F091B8
:1014C0006302E00FF11FF080108260916202709160
:1014D00063026C0F7D1F6115710561F0FB010190C6
:1014E0000020E9F73197AF01461B570BC6010E9458
:1014F0008F090EC0F60180819181009711F00E9442
:10150000480EF60111821082158214821382128213
:101510008091620290916302FC01E00FF11FF08262
:10152000C601DF91CF911F910F91FF90EF90DF9057
:10153000CF90089582E692E00E94210A88E692E028
:101540000E94210A8EE692E00C94210ACF93DF9349
:10155000CDB7DEB762970FB6F894DEBF0FBECDBF32
:10156000789484B5826084BD84B5816084BD85B57E
:10157000826085BD85B5816085BD80916E0081608A
:1015800080936E0010928100809181008260809330
:101590008100809181008160809381008091800032
:1015A0008160809380008091B10084608093B1005D
:1015B0008091B00081608093B00080917A00846057
:1015C00080937A0080917A00826080937A00809183
:1015D0007A00816080937A0080917A00806880939D
:1015E0007A001092C10084E792E00E949C03E0918F
:1015F000D501F091D60182E08083E091D101F09194
:10160000D2011082E091D301F091D4018FEC80835C
:101610001092DD01E091D901F091DA0186E080833A
:10162000E091D701F091D801808180618083E091C1
:10163000D701F091D801808188608083E091D70143
:10164000F091D801808180688083E091D701F0918A
:10165000D80180818F7D80838BE0C82ECA8AAE013D
:101660004E5E5F4FBE016F5F7F4F84E792E00E9446
:101670006603882309F493C0BE016F5F7F4FCE01DC
:101680000C960E94260ABE01645F7F4F82E692E0BC
:101690000E94E709CE010C960E94210A00E010E0AA
:1016A000D02EE12E809166029091670208171907EB
:1016B00008F045C00F5F1F4FA8016D2D7E2DCE0194
:1016C0000C960E943B0A88899989892B51F06EE813
:1016D00071E08C859D850E94A50FFF24F394892BD2
:1016E00009F0F12CCE010C960E94210AFF20C1F2D4
:1016F0004D2D5E2D60E070E0CE010C960E943B0AFD
:10170000BE01645F7F4F8EE692E00E94E709CE0142
:101710000C960E94210A4091660250916702B8011E
:10172000CE010C960E943B0ABE01645F7F4F88E6A3
:1017300092E00E94E709CE010C960E94210A4AE03D
:1017400050E060E971E085EC91E00E94650940910C
:1017500072025091730260916E0270916F0285EC7B
:1017600091E00E94650946E150E06BE971E085EC8B
:1017700091E00E94650940916C0250916D02609168
:1017800068027091690285EC91E00E94650942E06F
:1017900050E062EB71E085EC91E00E9465090E94E7
:1017A0006F015CCFCF93DF93CDB7DEB728970FB62D
:1017B000F894DEBF0FBECDBFE5ECF1E013821282DC
:1017C00088EE93E0A0E0B0E084839583A683B7839E
:1017D0008AE291E09183808385EC90E0958784870D
:1017E00084EC90E09787868780EC90E0918B808BEB
:1017F00081EC90E0938B828B82EC90E0958B848BD4
:1018000086EC90E0978B868B118E128E138E148E41
:10181000E4E7F3E0138212821582148217821682A3
:101820008CE391E09183808380E580871186E4E7F3
:10183000F2E0138212828FEF84838287838714867B
:101840001586118A108A138A128A158A148A108EB4
:10185000178A86E591E09183808380ED97E0928FEF
:10186000818F8BE0838F8CE0848F8AE0858F168E4A
:10187000178E88E0EEE1F1E0DE01119601900D9205
:101880008A95E1F788E0FE013196A5EEB2E001907D
:101890000D928A95E1F764EB71E08EE692E00E948A
:1018A000260A64EB71E088E692E00E94260A64EB67
:1018B00071E082E692E028960FB6F894DEBF0FBE84
:1018C000CDBFDF91CF910C94260A8F929F92AF9259
:1018D000BF92CF92DF92EF92FF92CF93DF93EC0112
:1018E000688179818A819B816115710581059105E6
:1018F00021F464E279ED8BE597E02DE133EF41E0EF
:1019000050E00E94100D49015A019B01AC01A7EA69
:10191000B1E40E942F0D6B017C01ACEEB4EFA50188
:1019200094010E943D0DDC01CB018C0D9D1DAE1D6F
:10193000BF1DB7FF03C00197A109B04888839983F1
:10194000AA83BB83BC01CD019F77DF91CF91FF902C
:10195000EF90DF90CF90BF90AF909F908F900895C1
:101960008F929F92AF92BF92CF92DF92EF92FF92AF
:101970006091040170910501809106019091070129
:10198000611571058105910521F464E279ED8BE51E
:1019900097E02DE133EF41E050E00E94100D490146
:1019A0005A019B01AC01A7EAB1E40E942F0D6B0123
:1019B0007C01ACEEB4EFA50194010E943D0DDC0169
:1019C000CB018C0D9D1DAE1DBF1DB7FF03C0019740
:1019D000A109B0488093040190930501A0930601EA
:1019E000B0930701BC01CD019F77FF90EF90DF908E
:1019F000CF90BF90AF909F908F9008956093040117
:101A00007093050180930601909307010895FB01EF
:101A1000DC0102C005900D9241505040D8F7089566
:101A2000052E97FB1EF400940E94270D57FD07D04A
:101A30000E94790D07FC03D04EF40C94270D5095AD
:101A40004095309521953F4F4F4F5F4F08959095AA
:101A50008095709561957F4F8F4F9F4F08950E949D
:101A60009B0DA59F900DB49F900DA49F800D911D7F
:101A700011240895B7FF0C942F0D0E942F0D821B87
:101A8000930B08952F923F924F925F926F927F92A5
:101A90008F929F92AF92BF92CF92DF92EF92FF927E
:101AA0000F931F93CF93DF93CDB7DEB7CA1BDB0B2A
:101AB0000FB6F894DEBF0FBECDBF09942A883988CF
:101AC00048885F846E847D848C849B84AA84B984D6
:101AD000C884DF80EE80FD800C811B81AA81B981E2
:101AE000CE0FD11D0FB6F894DEBF0FBECDBFED01F6
:101AF0000895A1E21A2EAA1BBB1BFD010DC0AA1F4F
:101B0000BB1FEE1FFF1FA217B307E407F50720F066
:101B1000A21BB30BE40BF50B661F771F881F991FE1
:101B20001A9469F760957095809590959B01AC012A
:101B3000BD01CF010895A29FB001B39FC001A39F33
:101B4000700D811D1124911DB29F700D811D1124F6
:101B5000911D0895EE0FFF1F0590F491E02D09945B
:101B60000F931F93CF93DF938230910510F482E09F
:101B700090E0E0918003F091810320E030E0A0E06C
:101B8000B0E0309719F140815181028113814817EB
:101B90005907C8F08417950769F4109731F0129629
:101BA0000C93129713961C9327C0009380031093F5
:101BB000810322C02115310519F04217530718F48B
:101BC0009A01BD01EF01DF01F801DBCF21153105DD
:101BD000F9F0281B390B2430310580F48A819B8170
:101BE0006115710521F0FB019383828304C09093FA
:101BF000810380938003FE01329644C0FE01E20F10
:101C0000F31F8193919322503109398328833AC07D
:101C100020917E0330917F03232B41F420910A0110
:101C200030910B0130937F0320937E0320910801B4
:101C3000309109012115310541F42DB73EB740918E
:101C40000C0150910D01241B350BE0917E03F091A6
:101C50007F03E217F307A0F42E1B3F0B2817390769
:101C600078F0AC014E5F5F4F2417350748F04E0FF8
:101C70005F1F50937F0340937E038193919302C033
:101C8000E0E0F0E0CF01DF91CF911F910F91089537
:101C9000CF93DF93009709F481C0FC013297138240
:101CA0001282A0918003B0918103109781F420816A
:101CB0003181820F931F20917E0330917F0328177B
:101CC000390751F5F0937F03E0937E0367C0ED0180
:101CD00020E030E0CE17DF0740F44A815B819E01AF
:101CE00041155105F1F0EA01F5CFD383C28340815C
:101CF0005181840F951FC817D90759F4888199819C
:101D0000840F951F0296918380838A819B819383A0
:101D100082832115310529F4F0938103E093800338
:101D20003DC0E901FB83EA8349915991C40FD51F56
:101D3000EC17FD0761F480819181840F951F029655
:101D4000E90199838883828193819B838A83E0E080
:101D5000F0E012968D919C911397009719F0FD0178
:101D6000DC01F7CF8D919C9111979D012E5F3F4F24
:101D7000820F931F20917E0330917F03281739072C
:101D800069F4309729F4109281031092800302C005
:101D900013821282B0937F03A0937E03DF91CF91D1
:101DA0000895A0E0B0E0E7EDFEE00C94460DEC01F4
:101DB000009721F4CB010E94B00DB4C0FC01E60FE6
:101DC000F71F9C0122503109E217F30708F4A8C05D
:101DD000D9010D911C91119706171707B0F0053026
:101DE000110508F49BC0C80104978617970708F4EB
:101DF00095C002501109061B170B019311936D93A7
:101E00007C93CF010E94480E89C05B01A01AB10AE1
:101E10004C01800E911EA0918003B0918103612C32
:101E2000712CE12CF12C109709F446C08D919C91F6
:101E30001197A815B905B1F56C0142E0C40ED11C8B
:101E4000CA14DB0478F14C018A189B08640142E053
:101E5000C40ED11C1296BC9012971396AC91B5E0AB
:101E6000CB16D10440F0B282A38391828082D90143
:101E70006D937C9309C00E5F1F4F800F911FF90176
:101E800091838083EB2DFA2FE114F10431F0D70117
:101E90001396FC93EE93129741C0F0938103E09365
:101EA00080033CC06816790608F43C017D01129657
:101EB0000D90BC91A02DB7CF80917E0390917F03B0
:101EC00088169906E1F466167706C8F48091080131
:101ED00090910901009741F48DB79EB740910C0194
:101EE00050910D01841B950BE817F907C8F4F09386
:101EF0007F03E0937E03F901718360830FC0CB0100
:101F00000E94B00D7C01009759F0A801BE010E940B
:101F10009C0FCE010E94480EC70104C0CE0102C032
:101F200080E090E0CDB7DEB7EEE00C94620D81E08A
:101F300090E0F8940C94B50FFB01DC0102C0019015
:101F40000D9241505040D8F70895FB01DC018D916E
:101F5000019080190110D9F3990B0895FB01DC0160
:101F600001900D920020E1F7089510E0C9E6D0E05D
:101F700004C0FE010E94AA0D2196CA36D107C9F7F6
:041F8000F894FFCF03
:101F84000F020F02010000000000820380000D0E0A
:101F9400131516191A1C232526292A2C32342A2A09
:101FA4002A2A2A2A382C000000000001650997001B
:101FB4004D01C800A600BA000000000078027402B7
:101FC4007002E3065C02870283027F023F022E0254
:101FD4001402000000009C03810666033E05100203
:101FE4003603F902C802010336049802C202BF0292
:101FF400BC02B902B202C502AF02AC02A902A60237
:10200400A2029E029A029802940290028C022C0070
:1020140048756D69646974793A2000202020202075
:102024002020202054656D70657261747572653A64
:0620340020000D0A00006F
:00000001FF
