:100000000C9488000C946D040C9446040C94B0007D
:100010000C94B0000C94B0000C94B0000C94B000A0
:100020000C94B0000C94B0000C94B0000C949404A8
:100030000C94B0000C94B0000C94B0000C94B00080
:100040000C94FC030C94B0000C94EB010C94C501CF
:100050000C94B0000C94B0000C94B0000C94B00060
:100060000C94B0000C94B0004E414E494E49545986
:10007000494E46CDCCCC3D0AD7233C17B7D1387773
:10008000CC2B329595E6241FB14F0A000020410089
:1000900000C84200401C4620BCBE4CCA1B0E5AAED3
:1000A000C59D740000000023002600290000000008
:1000B00000240027002A0000000000250028002B53
:1000C0000004040404040404040202020202020301
:1000D000030303030301020408102040800102040B
:1000E000081020010204081020000000080002018E
:1000F00000000304070000000000000000000001F1
:10010000000800400000010004050D00550D490DD8
:1001100011241FBECFEFD8E0DEBFCDBF11E0A0E0BD
:10012000B1E0EEEEF9E202C005900D92A23CB107FB
:10013000D9F723E0A2ECB1E001C01D92A839B207C3
:10014000E1F710E0C7E8D0E004C02197FE010E946B
:10015000DF12C638D107C9F70E94EB0B0C94EA14E2
:100160000C94000080E090E00895FC01538D448DD4
:10017000252F30E0842F90E0821B930B541710F052
:10018000CF96089501970895FC01918D828D98175F
:1001900061F0828DDF01A80FB11D5D968C91928D6B
:1001A0009F5F9F73928F90E008958FEF9FEF089568
:1001B000FC01918D828D981731F0828DE80FF11D31
:1001C000858D90E008958FEF9FEF0895FC01918D4C
:1001D000228D892F90E0805C9F4F821B91098F7345
:1001E0009927089589ED91E00E94E60021E0892B8E
:1001F00009F420E0822F0895FC01848DDF01A80F0F
:10020000B11DA35ABF4F2C91848D90E001968F733E
:100210009927848FA689B7892C93A089B1898C915D
:10022000837080648C93938D848D981306C00288AC
:10023000F389E02D80818F7D80830895EF92FF9276
:100240000F931F93CF93DF93EC0181E0888F9B8DF9
:100250008C8D981305C0E889F989808185FD26C0B9
:10026000F62E0B8D10E00F5F1F4F0F731127E02E3E
:100270008C8DE8120CC00FB607FCFACFE889F9891B
:10028000808185FFF5CFCE010E94FC00F1CF8B8DE0
:10029000FE01E80FF11DE35AFF4FF0829FB7F8947B
:1002A0000B8FEA89FB89808180620AC09FB7F8942E
:1002B000EE89FF896083E889F98980818370806491
:1002C00080839FBF81E090E0DF91CF911F910F91DC
:1002D000FF90EF900895CF93DF93EC01888D8823F2
:1002E000C9F0EA89FB89808185FD05C0A889B989A3
:1002F0008C9186FD0FC00FB607FCF5CF808185FF7E
:10030000F2CFA889B9898C9185FFEDCFCE010E94EB
:10031000FC00E7CFDF91CF91089580E090E0892B3A
:1003200029F00E94F20081110C940000089583309E
:1003300081F028F4813099F08230A1F0089587305F
:10034000A9F08830B9F08430D1F4809180008F7D9D
:1003500003C0809180008F7780938000089584B5DA
:100360008F7702C084B58F7D84BD08958091B000E1
:100370008F7703C08091B0008F7D8093B000089587
:1003800008958CE308950E94CC141F920F920FB62B
:100390000F9211242F933F934F935F936F937F930B
:1003A0008F939F93AF93BF93EF93FF9389ED91E06A
:1003B0000E94FC00FF91EF91BF91AF919F918F91AF
:1003C0007F916F915F914F913F912F910F900FBE51
:1003D0000F901F9018951F920F920FB60F92112435
:1003E0002F938F939F93EF93FF93E091E901F09107
:1003F000EA018081E091EF01F091F00182FD12C0ED
:1004000090818091F2018F5F8F732091F3018217A9
:1004100051F0E091F201F0E0E752FE4F958F8093AA
:10042000F20101C08081FF91EF919F918F912F91F7
:100430000F900FBE0F901F9018951F93CF93DF93CF
:10044000282F30E0F901E751FF4F8491F901EB5279
:10045000FF4FD491F901EF53FF4FC491CC23C1F06A
:10046000162F81110E949701EC2FF0E0EE0FFF1F75
:10047000E954FF4FA591B4919FB7F894111104C0AE
:100480008C91D095D82302C0EC91DE2BDC939FBFDA
:10049000DF91CF911F9108954F925F926F927F925B
:1004A0008F929F92AF92BF92CF92DF92EF92FF9284
:1004B0000F931F93CF93DF934D3310F0512C1DC139
:1004C000042F172FB62EEC01E881F9810484F585FD
:1004D000E02D0995E881F9810288F389E02DCE01AC
:1004E0000995582E882351F37E0129E7E20EF11C6D
:1004F00077E0D72ED00E6D2D8FEF9FEF0E94010970
:10050000ED2DF0E0A4E0F595E795AA95E1F7E25F1F
:10051000FE4F2081D7012C93ED2DEF70F0E0E25FCC
:10052000FE4F2081FE01E658FF4F2083DA846D2DB7
:100530000E940109ED2DF0E0B4E0F595E795BA953C
:10054000E1F7E25FFE4F2081FE01E558FF4F208377
:10055000ED2DEF70F0E0E25FFE4F2081FE01E458E8
:10056000FF4F2083DB846D2D0E940109ED2DF0E00B
:1005700024E0F595E7952A95E1F7E25FFE4F2081AB
:10058000FE01E358FF4F2083ED2DEF70F0E0E25FB6
:10059000FE4F2081FE01E258FF4F2083DC846D2D49
:1005A0000E940109ED2DF0E034E0F595E7953A95CC
:1005B000E1F7E25FFE4F2081FE01E158FF4F20830B
:1005C000ED2DEF70F0E0E25FFE4F2081FE01E0587C
:1005D000FF4F2083DD846D2D0E940109ED2DF0E099
:1005E00044E0F595E7954A95E1F7E25FFE4F2081FB
:1005F000FE01EF57FF4F2083ED2DEF70F0E0E25F3B
:10060000FE4F2081FE01EE57FF4F20834701CB2C88
:10061000D12E10E05601A00EB11EB2E08B0E911C3F
:10062000AC14BD04F1F03601F60141906F01642D68
:100630000E940109E42DF0E064E0F595E7956A95E4
:10064000E1F7E25FFE4F2081D40118962C93D3018D
:10065000EC91EF70F0E0E25FFE4F2081F401218722
:10066000DCCF0B5F1F4F000F111F80959095D701B6
:10067000A00FB11FFC0134E0F695E7953A95E1F73C
:10068000EF70FF27E25FFE4F20812C93FC01EF709B
:10069000FF27E25FFE4F208111962C931197FC01FA
:1006A000EF2FFF27E295EF70E25FFE4F2081129659
:1006B0002C931297E92FFF27EF70FF27E25FFE4F81
:1006C000808113968C93FE01E150FF4F045F0083FD
:1006D0008A819B81039789F0E159F1091082319653
:1006E0001082319610826F8D81E068278D8D0E9477
:1006F0001D0283E090E09B838A83852DDF91CF915B
:100700001F910F91FF90EF90DF90CF90BF90AF902F
:100710009F908F907F906F905F904F900895CF93B0
:10072000DF9390E0FC01EB52FF4F2491FC01EF536B
:10073000FF4F8491882361F190E0880F991FFC019D
:10074000E355FF4FC591D491FC01E954FF4FA591AA
:10075000B491611109C09FB7F894888120958223D4
:100760008883EC912E230BC0623061F49FB7F8941C
:100770008881322F309583238883EC912E2B2C9304
:100780009FBF06C08FB7F894E8812E2B28838FBFB8
:10079000DF91CF9108953FB7F8948091C90190916E
:1007A000CA01A091CB01B091CC0126B5A89B05C090
:1007B0002F3F19F00196A11DB11D3FBFBA2FA92FE0
:1007C000982F8827820F911DA11DB11DBC01CD015D
:1007D00042E0660F771F881F991F4A95D1F7089549
:1007E0002FB7F8946091C5017091C6018091C7013F
:1007F0009091C8012FBF08951F920F920FB60F92CC
:1008000011242F933F938F939F93AF93BF93809126
:10081000C5019091C601A091C701B091C801309166
:10082000C40123E0230F2D3720F40196A11DB11D33
:1008300005C026E8230F0296A11DB11D2093C40117
:100840008093C5019093C601A093C701B093C801DE
:100850008091C9019091CA01A091CB01B091CC01C6
:100860000196A11DB11D8093C9019093CA01A09367
:10087000CB01B093CC01BF91AF919F918F913F91EC
:100880002F910F900FBE0F901F9018951F920F92EF
:100890000FB60F9211242F933F934F935F936F9353
:1008A0007F938F939F93AF93BF93EF93FF93E091C9
:1008B0000201F09103010995FF91EF91BF91AF9172
:1008C0009F918F917F916F915F914F913F912F9168
:1008D0000F900FBE0F901F9018951F920F920FB69A
:1008E0000F9211242F933F934F935F936F937F93B6
:1008F0008F939F93AF93BF93EF93FF93E09100018A
:10090000F09101010995FF91EF91BF91AF919F91F6
:100910008F917F916F915F914F913F912F910F90A8
:100920000FBE0F901F9018951F920F920FB60F9247
:100930001124CF92DF92EF92FF920F931F932F9388
:100940003F934F935F936F937F938F939F93AF9357
:10095000BF93CF93DF93EF93FF93C091C201D091E8
:10096000C3018A819B81049709F0C7C02B8D30E0B9
:10097000F901E751FF4F8491F901EB52FF4F0491C8
:10098000F901EF53FF4F1491112379F081110E9467
:100990009701E12FF0E0EE0FFF1FED55FF4FA591FE
:1009A000B491EC91E02381E009F480E081709E8DA8
:1009B000892719F09BA19F5F9BA39AA1981759F0D3
:1009C0009CA1903510F09DE101C09BE02CA1920FFD
:1009D0009CA38AA303C08CA18C5E8CA38CA1803ABB
:1009E00008F4DCC08EA19FA1969587959FA38EA346
:1009F0008BA1853028F08EA19FA198609FA38EA324
:100A00008CA1805A8CA31BA28DA1882309F468C0F5
:100A100088A58F5F88A78C3008F4C0C08EA19FA1E5
:100A2000982F9F73892F86958695887028E0280FC8
:100A3000281749F0E82FF0E0E25FFE4F308193176E
:100A400019F08F5FF5CF80E020E1829FC001112473
:100A50002EA13FA196E0369527959A95E1F7422F72
:100A60003695279536952795287038E0320F32173E
:100A700049F0E22FF0E0E25FFE4F5081451719F098
:100A80002F5FF5CF20E0822BAE0143595F4FFA0173
:100A90009081DE01A459BF4F9923B1F0FA019081F2
:100AA00021E0290F20839E01290F311DF90181A723
:100AB000FA0190818C91981788F01DA281E088A39B
:100AC000CE010E94200B0AC08C939C91973008F4B1
:100AD0005FC09C91943408F05BC0E0CF18A65EC064
:100AE0008EA19FA188339B4009F058C081E08DA35F
:100AF00018A6C359DF4F188251C08A819B81039782
:100B000009F04CC08E0100591F4FF801808191E01F
:100B1000980F9083811136C06E01FEE6CF0ED11C76
:100B2000F6018081EF56FF4F9081891748F0CE0182
:100B30000E94200B8C899D8901969D8B8C8B22C0F5
:100B4000FE01E80FF11DEF58FF4F608170E07E015C
:100B5000FFE6EF0EF11CF701808191E0980F908382
:100B600002C0759567958A95E2F761708C8D0E9439
:100B70001D02F7018081863028F01082F601808105
:100B80008F5F8083F8018081883040F0108206C03A
:100B90001DA2888999890196998B888BFF91EF9185
:100BA000DF91CF91BF91AF919F918F917F916F9185
:100BB0005F914F913F912F911F910F91FF90EF9077
:100BC000DF90CF900F900FBE0F901F90189581E08F
:100BD00008959FB7F894662339F082E0613029F0D8
:100BE0008093D80180E001C081E02091D701822B61
:100BF0008093D7018091D801811103C081E0809357
:100C0000D8019FBF08958091D801882361F09FB7D4
:100C1000F8942091D8018091D601213019F48DBB30
:100C20009FBF08958FBF0895FC0140853185809155
:100C3000D801882399F02FB7F8948091D80181309A
:100C400059F48DB38093D6019DB38091D7018095DF
:100C500089238DBB2FBF02C02093D6014CBD3DBD63
:100C600008959FB7F8948091D501882319F0815099
:100C70008093D5018091D501811105C08CB58F7B02
:100C80008CBD1092D8019FBF08958CB58F778CBD15
:100C900008958CB580688CBD08956EBD00000DB4BC
:100CA00007FEFDCF8EB50895FC017383628308951E
:100CB000FC01778366830895FC017583648308953E
:100CC0000895FC01848995890895FC01828993899E
:100CD0000895FC0180899189089580E00895FC01C0
:100CE000738362830895FC01828193810895FC01DE
:100CF000868597850895FC0181850895FC0180858E
:100D00000895FC0187810895FC0186810895FC0106
:100D1000409595854923642B65870895FC01648778
:100D20000895FC0163870895FC0162870895FC0122
:100D300064830895FC0165830895FC012281338159
:100D400023303105D1F381E00895CF93DF93EC0197
:100D5000E881F9810280F381E02DCE010995882395
:100D6000B9F3DF91CF910895DF92EF92FF920F9345
:100D70001F93CF93DF93EC017B018A01E881F98116
:100D80000280F381E02D0995D82E8823D1F0E1145B
:100D9000F104B1F00115110599F0FE01E359FF4F7F
:100DA00080818750F8019081891708F48083F801C9
:100DB000408150E0BE01625D7F4FC7010E94D114A7
:100DC00019A28D2DDF91CF911F910F91FF90EF9080
:100DD000DF9008954F925F926F927F92AF92BF9291
:100DE000CF92DF92EF92FF921F93CF93DF9300D0C9
:100DF000CDB7DEB77C019093C3018093C20161E05F
:100E0000FC01848D0E948F0360E0F701838D0E94B6
:100E10008F0361E0F701858D0E948F03C7010E9457
:100E2000200BF701C18CD28CC114D10409F45BC032
:100E3000E12CF12C83E0CC0CDD1CEE1CFF1C8A9510
:100E4000D1F79FEFA92E90E0B92E11E0412C24E2BA
:100E5000522E24EF622E712C42E050E0B501CE01FB
:100E600001960E948E0E29813A8140E050E0C30134
:100E7000B2010E949611CA01B901A70196010E9410
:100E80009611DA01C9010297A109B1098D3F9F4F5F
:100E9000A105B10538F01F5F62E0A60EB11C173046
:100EA000D9F603C01630F9F00BC0223031054105E8
:100EB0005105C8F02115310581E04807510598F426
:100EC0001092800088E08093810080918100182B2F
:100ED00010938100309389002093880080916F00E7
:100EE000826080936F0081E00F900F90DF91CF912F
:100EF0001F91FF90EF90DF90CF90BF90AF907F90C9
:100F00006F905F904F9008950F931F93CF93FC01C4
:100F1000828193818430910569F08330910579F065
:100F20008230910589F00197A1F040E452E46FE02E
:100F300070E013C040E054E264EF70E00EC040E0A7
:100F400052E16AE770E009C040E059E06DE370E00B
:100F500004C040E854E86EE170E086819781009714
:100F600071F08130910539F08230910531F00397AD
:100F700031F49CE005C094E003C098E001C090E02B
:100F800000E012E12AE730E080E0401751076207F5
:100F9000730740F436952795179507958F5F863030
:100FA000A1F787E021E02827448155814130510590
:100FB00011F080E501C080E7322F3695932B982BF6
:100FC000908721702187CFB7F8948091D501811146
:100FD00027C0EBECF0E08491EFEDF0E09491E82F86
:100FE000F0E0EE0FFF1FE355FF4FA591B491EC9198
:100FF000E92321F461E08AE00E941D0261E08AE0B9
:101000000E948F038CB580618CBD8CB580648CBDD3
:1010100061E08DE00E948F0361E08BE00E948F030E
:101020008091D5018F5F8093D501CFBFCF911F9164
:101030000F9108958F929F92AF92BF92CF92DF92BD
:10104000EF92FF92CF93DF93EC016B010E94F003CC
:101050004B015C01E12CF12C0E94F003DC01CB017F
:1010600088199909AA09BB098C159D05AE05BF050C
:1010700030F48A819B81039779F381E001C080E09D
:10108000DF91CF91FF90EF90DF90CF90BF90AF9026
:101090009F908F9008958F929F92AF92BF92CF9220
:1010A000DF92EF92FF92CF93DF93EC016B010E94EE
:1010B000F0034B015C01E12CF12C0E94F003DC01F8
:1010C000CB0188199909AA09BB098C159D05AE05A4
:1010D000BF0550F4E881F9810280F381E02DCE0153
:1010E0000995882351F301C080E0DF91CF91FF90F3
:1010F000EF90DF90CF90BF90AF909F908F9008952A
:101100004F925F926F927F928F929F92AF92BF9217
:10111000CF92DF92EF92FF92CF93DF93FC0127896A
:10112000308D232B09F45BC0EC010E94F0032B01EE
:101130003C01E881F9810488F589E02DCE0109950B
:10114000882309F44CC00E94F003AB01BC01441990
:101150005509660977098F89988DA0E0B0E084175A
:101160009507A607B707E8F10E94330E29E030E0A3
:1011700040E050E00E942D119B01AC012F5F3F4FDA
:101180004F4F5F4FA4E6B0E00E944C116B017C0111
:101190000E94CB034B015C01C114D104E104F104B2
:1011A00041F20E94CB03DC01CB0188199909AA09FD
:1011B000BB09883E9340A105B10570F3F1E0CF1A59
:1011C000D108E108F10828EE820E23E0921EA11C4E
:1011D000B11CC114D104E104F10419F7DDCF81E0A1
:1011E00001C080E0DF91CF91FF90EF90DF90CF9032
:1011F000BF90AF909F908F907F906F905F904F9037
:101200000895862740E1849F900111242827622FAA
:1012100070E0562F4427292F30E0242B352BCB01AB
:1012200044E0959587954A95E1F728273927CB0122
:1012300053E0880F991F5A95E1F782279327089565
:10124000EF92FF921F93CF93DF93FC0122813381B2
:101250002330310509F446C0EC0182819381049763
:1012600061F0678D858D0E941D0260E08C8D0E946B
:101270001D0284E090E09B838A8388A1882381F10A
:1012800010E08FEF9FEF7E01FDE6EF0EF11CF701FE
:101290002081121740F4FE01E10FF11D61A50E94AB
:1012A00001091F5FF4CF883B904F39F088899989F5
:1012B0000196998B888B19A212C08AA58E838BA563
:1012C0008F838CA588878DA589878D8181110CC01E
:1012D0009E818C81981741F08E818F3F29F018A252
:1012E00089A10AC080E008C08A899B8901969B8BEE
:1012F0008A8B81E089A3F3CFDF91CF911F91FF907B
:10130000EF9008950895CF92DF92EF92FF920F939E
:101310001F93CF93DF936C017A018B01C0E0D0E083
:10132000CE15DF0581F0D8016D918D01D601ED91CB
:10133000FC910190F081E02DC6010995892B11F0F7
:101340002196EECF7E01C701DF91CF911F910F91C2
:10135000FF90EF90DF90CF900895EF92FF920F9360
:101360001F93CF93DF93EC017B018A0188819981E0
:10137000009729F02A813B8124173507F8F4B8013A
:101380006F5F7F4F0E940614009759F099838883FE
:101390001B830A832C813D81232B81F4FC01108265
:1013A0000DC088819981009711F00E947D131982E8
:1013B00018821D821C821B821A8207C01D830C8327
:1013C000B701888199810E94E314CE01DF91CF910A
:1013D0001F910F91FF90EF900895009769F0FC0125
:1013E00001900020E9F73197AF01481B590BBC0170
:1013F00089ED91E00C94830980E090E008952F92AC
:101400003F924F925F926F927F928F929F92AF9294
:10141000BF92CF92DF92EF92FF920F931F93CF93E1
:10142000DF93CDB7DEB7A4970FB6F894DEBF0FBE3B
:10143000CDBF4B015C01F42E9B01AC010E94DA127E
:10144000882319F085EB91E027C024013501E89449
:1014500077F82FEF3FEF4FE75FE7C301B2010E943C
:10146000DA1281110DC02FEF3FEF4FE75FE7C301A5
:10147000B2010E94061018161CF489EB91E00CC012
:101480002FEF3FEF4FE75FE4C501B4010E94D51293
:1014900018162CF48DEB91E00E94ED09B8C02FEFE7
:1014A0003FEF4FE75FECC501B4010E94061087FDD6
:1014B000F1CF20E030E0A901C501B4010E9406107F
:1014C00087FF0BC06DE289ED91E00E941E013C0197
:1014D000B7FAB094B7F8B09402C0612C712C10E048
:1014E00060E070E080E09FE3F11641F020E030E042
:1014F00040E251E40E9434121F5FF6CFA50194012F
:101500000E94C8114B015C010E94A6126AA3C72E5B
:10151000D82EE92E19A2262F372F482F592F8E01AA
:101520000F5D1F4F0BA31CA39AE0292E312C412CD9
:10153000512CCA01B901A20191010E949611605D6E
:10154000F80162938F01211531054105510589F795
:10155000CF010E94ED098301080F191FFF2009F434
:1015600055C06AA17C2D8D2D9E2D0E940B109B01D4
:10157000AC01C501B4010E94C7114B015C016EE2D0
:1015800089ED91E00E941E01080F191F8AE0282EA4
:10159000312C412C512C20E030E040E251E4C501D7
:1015A000B4010E946C104B015C010E94A6129B01C9
:1015B00040E050E019A2CBA0DCA0762E3AA3642E26
:1015C000E52ECA01B901A20191010E949611605D48
:1015D000F60162936F01211531054105510589F727
:1015E000CF010E94ED09080F191F672D7AA1862DE2
:1015F0009E2D0E940B109B01AC01C501B4010E94FD
:10160000C7114B015C01FA94F110C5CFC801A49633
:101610000FB6F894DEBF0FBECDBFDF91CF911F9103
:101620000F91FF90EF90DF90CF90BF90AF909F9081
:101630008F907F906F905F904F903F902F90089584
:10164000CF93DF93FC01228133812230310569F091
:10165000EC01678D858D0E941D0260E08C8D0E94DB
:101660001D0282E090E09B838A83DF91CF910895F1
:101670000F931F93CF93DF938C01EB01FC018081CB
:101680009181009739F06881798161157105A1F424
:101690000E947D1388819981F801918380838A81DA
:1016A0009B81938382838C819D819583848319821E
:1016B00018821B821A820FC0F801428153812C814B
:1016C0003D814217530720F30E94E3148C819D81D2
:1016D000F801958384831D821C82DF91CF911F9135
:1016E0000F910895FC01808191810C947D13FC0180
:1016F0001182108213821282158214826115710583
:1017000051F0FB0101900020E9F73197AF01461B32
:10171000570B0C94AD090895CF92DF92EF92FF9290
:101720000F931F93CF93DF936C01EB017A01461760
:10173000570720F48D2FEA01E62EF82E64EB71E0B6
:10174000C6010E94770B00917A0210917B02C017AC
:10175000D107B8F5E016F10608F48701E0917602AA
:10176000F0917702E00FF11FF08010826091760215
:10177000709177026C0F7D1F6115710561F0FB019F
:1017800001900020E9F73197AF01461B570BC601C6
:101790000E94AD090EC0F60180819181009711F081
:1017A0000E947D13F6011182108215821482138229
:1017B00012828091760290917702FC01E00FF11F76
:1017C000F082C601DF91CF911F910F91FF90EF90B2
:1017D000DF90CF900895CF93DF93CDB7DEB76297B8
:1017E0000FB6F894DEBF0FBECDBF789484B582608B
:1017F00084BD84B5816084BD85B5826085BD85B5B5
:10180000816085BD80916E00816080936E00109232
:1018100081008091810082608093810080918100AD
:10182000816080938100809180008160809380003E
:101830008091B10084608093B1008091B00081609C
:101840008093B00080917A00846080937A008091C8
:101850007A00826080937A0080917A008160809320
:101860007A0080917A00806880937A001092C1009B
:1018700088E892E00E94EA06E091E901F091EA012D
:1018800082E08083E091E501F091E6011082E09131
:10189000E701F091E8018FEC80831092F101E09173
:1018A000ED01F091EE0186E08083E091EB01F09193
:1018B000EC01808180618083E091EB01F091EC018B
:1018C000808188608083E091EB01F091EC01808160
:1018D00080688083E091EB01F091EC0180818F7D45
:1018E00080838BE0C82ECA8AAE014E5E5F4FBE0178
:1018F0006F5F7F4F88E892E00E94B406882309F466
:10190000C5C0BE016F5F7F4FCE010C960E94770B62
:10191000BE01645F7F4F86E792E00E94380BCE01E4
:101920000C960E94720B00E010E0D02EE12E809108
:101930007A0290917B020817190708F045C00F5FE3
:101940001F4FA8016D2D7E2DCE010C960E948C0B91
:1019500088899989892B51F06EE871E08C859D8585
:101960000E94DA14FF24F394892B09F0F12CCE01A4
:101970000C960E94720BFF20C1F24D2D5E2D60E08F
:1019800070E0CE010C960E948C0BBE01645F7F4F0D
:1019900082E892E00E94380BCE010C960E94720BF6
:1019A00040917A0250917B02B801CE010C960E94C0
:1019B0008C0BBE01645F7F4F8CE792E00E94380B76
:1019C000CE010C960E94720B80E991E00E94ED0915
:1019D0004091860250918702609182027091830249
:1019E00089ED91E00E9483098BE991E00E94ED0965
:1019F000409180025091810260917C0270917D0241
:101A000089ED91E00E94830982EB91E00E94ED094B
:101A100080918202909183020E948A0E6093D1018C
:101A20007093D2018093D3019093D40180917C0272
:101A300090917D020E948A0E6093CD017093CE0139
:101A40008093CF019093D00180E991E00E94ED094D
:101A50006091D1017091D2018091D3019091D40114
:101A600042E00E94FF098BE991E00E94ED0960913C
:101A7000CD017091CE018091CF019091D00142E0D3
:101A80000E94FF0982EB91E00E94ED090E948D0106
:101A90002ACF86E792E00E94720B8CE792E00E94C8
:101AA000720B82E892E00C94720BCF93DF93CDB768
:101AB000DEB728970FB6F894DEBF0FBECDBFE9EDB5
:101AC000F1E01382128288EE93E0A0E0B0E084831C
:101AD0009583A683B7838AE291E09183808385EC26
:101AE00090E09587848784EC90E09787868780ECE8
:101AF00090E0918B808B81EC90E0938B828B82ECD9
:101B000090E0958B848B86EC90E0978B868B118E82
:101B1000128E138E148EE8E8F3E01382128215827F
:101B20001482178216828CE391E09183808380E592
:101B300080871186E8E8F2E0138212828FEF8483B7
:101B40008287838714861586118A108A138A128ADF
:101B5000158A148A108E178A86E591E09183808316
:101B600080ED97E0928F818F8BE0838F8CE0848F64
:101B70008AE0858F168E178E88E0EEE1F1E0DE01B7
:101B8000119601900D928A95E1F788E0FE01319659
:101B9000A9EFB2E001900D928A95E1F764EB71E054
:101BA00082E892E00E94770B64EB71E08CE792E0B0
:101BB0000E94770B64EB71E086E792E028960FB6FF
:101BC000F894DEBF0FBECDBFDF91CF910C94770BA1
:101BD0008F929F92AF92BF92CF92DF92EF92FF923D
:101BE000CF93DF93EC01688179818A819B816115B4
:101BF00071058105910521F464E279ED8BE597E0AB
:101C00002DE133EF41E050E00E942D1149015A01CE
:101C10009B01AC01A7EAB1E40E944C116B017C016D
:101C2000ACEEB4EFA50194010E945A11DC01CB0186
:101C30008C0D9D1DAE1DBF1DB7FF03C00197A109EF
:101C4000B04888839983AA83BB83BC01CD019F7769
:101C5000DF91CF91FF90EF90DF90CF90BF90AF904A
:101C60009F908F9008958F929F92AF92BF92CF9244
:101C7000DF92EF92FF9260910401709105018091D3
:101C8000060190910701611571058105910521F407
:101C900064E279ED8BE597E02DE133EF41E050E030
:101CA0000E942D1149015A019B01AC01A7EAB1E440
:101CB0000E944C116B017C01ACEEB4EFA5019401C4
:101CC0000E945A11DC01CB018C0D9D1DAE1DBF1D64
:101CD000B7FF03C00197A109B04880930401909316
:101CE0000501A0930601B0930701BC01CD019F77C8
:101CF000FF90EF90DF90CF90BF90AF909F908F902C
:101D000008956093040170930501809306019093F8
:101D100007010895662777270C94970EFB01DC01D5
:101D200002C005900D9241505040D8F70895A0E0B0
:101D3000B0E0EDE9FEE00C946511EC016B0161157A
:101D4000710519F0FB01918380837E01FFEFEF1A8B
:101D5000FF0A0881802F90E00E94E50F892B11F087
:101D6000E701F3CF0D3239F47E0182E0E80EF11C79
:101D7000098111E008C00B3229F47E0192E0E90EDE
:101D8000F11C098110E0E701219743E050E060E792
:101D900070E0CE010E94EE0F892BC1F4239645E03E
:101DA00050E06BE670E0CE010E94EE0F892B09F443
:101DB0002596C114D10419F0F601D183C083111105
:101DC000F6C060E070E080E89FE7FAC043E050E0D2
:101DD00068E670E0CE010E94EE0F892B59F4C11421
:101DE000D10409F4E9C0F2E0EF0EF11CF601F18232
:101DF000E082E2C020E030E0A901C0E0D0E0F701DD
:101E000080EDA82EA00E89E08A1530F1912F926006
:101E1000B92E812F887012FF04C0811124C0219631
:101E200022C081112197A5E0B0E00E944C11DC0195
:101E3000CB01880F991FAA1FBB1F9C01AD012A0D62
:101E4000311D411D511D283989E93807480789E1AD
:101E5000580748F0166006C09EEFA9120AC013FD8D
:101E600040C01860B12E8FEFE81AF80A00811B2DD0
:101E7000C6CF802F8F7D8534A1F580818D3211F4FE
:101E8000106106C08B3221F0319661E070E004C031
:101E90008181329662E070E080538A3018F0E61B50
:101EA000F70B1FC060E070E060389CE079075CF4DD
:101EB000DB01AA0FBB1FAA0FBB1F6A0F7B1F660F98
:101EC000771F680F711D3196DF0111978C91805338
:101ED0008A3050F314FF03C0719561957109C60FE4
:101EE000D71F11FF08C0C114D10429F0CF010197F9
:101EF000F60191838083CA01B9010E940B10212F42
:101F00002370233019F04B015C0106C04B015C01CA
:101F1000B7FAB094B7F8B09420E030E0A901C50159
:101F2000B4010E940610882309F43EC0D7FF06C002
:101F3000D195C195D10907E810E002C00FE910E082
:101F40006801F8E1CF1AD10890E2E92EF12CCE1504
:101F5000DF0574F0F8012591359145915491C50143
:101F6000B4010E946C104B015C01CE19DF09EFCF68
:101F700004501109F594E7940C151D0541F78A2DBD
:101F8000880F8B2D881F8F3F49F020E030E0A9019A
:101F9000C501B4010E940610811106C082E290E0E2
:101FA0009093930380939203C501B40109C060E04C
:101FB00070E080E89FEF04C060E070E080EC9FE795
:101FC000CDB7DEB7ECE00C94811191110C94D910CF
:101FD000803219F089508550C8F70895FB01DC0163
:101FE0004150504088F08D9181341CF08B350CF4B9
:101FF000805E659161341CF06B350CF4605E861B6D
:10200000611171F3990B0895881BFCCF0E94481051
:1020100008F481E00895E89409C097FB3EF4909598
:102020008095709561957F4F8F4F9F4F9923A9F0B1
:10203000F92F96E9BB279395F69587957795679540
:10204000B795F111F8CFFAF4BB0F11F460FF1BC084
:102050006F5F7F4F8F4F9F4F16C0882311F096E917
:1020600011C0772321F09EE8872F762F05C06623C5
:1020700071F096E8862F70E060E02AF09A95660F7E
:10208000771F881FDAF7880F9695879597F9089537
:10209000990F0008550FAA0BE0E8FEEF1616170679
:1020A000E807F907C0F012161306E407F50798F0E1
:1020B000621B730B840B950B39F40A2661F0232BFA
:1020C000242B252B21F408950A2609F4A140A69576
:1020D0008FEF811D811D08950E947F100C94F310D5
:1020E0000E94E51038F00E94EC1020F0952311F0CA
:1020F0000C94DC100C94E21011240C9427110E9413
:10210000041170F3959FC1F3950F50E0551F629F26
:10211000F001729FBB27F00DB11D639FAA27F00D40
:10212000B11DAA1F649F6627B00DA11D661F829F67
:102130002227B00DA11D621F739FB00DA11D621F4C
:10214000839FA00D611D221F749F3327A00D611D69
:10215000231F849F600D211D822F762F6A2F11244B
:102160009F5750409AF0F1F088234AF0EE0FFF1F7E
:10217000BB1F661F771F881F91505040A9F79E3FD5
:10218000510580F00C94DC100C9427115F3FE4F3B0
:10219000983ED4F3869577956795B795F795E7952B
:1021A0009F5FC1F7FE2B880F911D9695879597F934
:1021B000089599278827089597F99F6780E870E028
:1021C00060E008959FEF80EC089500240A941616AD
:1021D000170618060906089500240A941216130615
:1021E000140605060895092E0394000C11F48823A3
:1021F00052F0BB0F40F4BF2B11F460FF04C06F5FBF
:102200007F4F8F4F9F4F089557FD9058440F551F94
:1022100059F05F3F71F04795880F97FB991F61F068
:102220009F3F79F087950895121613061406551FDF
:10223000F2CF4695F1DF08C0161617061806991F4B
:10224000F1CF86957105610508940895E894BB2740
:1022500066277727CB0197F90895052E97FB1EF483
:1022600000940E94441157FD07D00E94961107FC6C
:1022700003D04EF40C94441150954095309521951F
:102280003F4F4F4F5F4F08959095809570956195A2
:102290007F4F8F4F9F4F08950E94B811A59F900DBB
:1022A000B49F900DA49F800D911D11240895B7FF38
:1022B0000C944C110E944C11821B930B08952F9289
:1022C0003F924F925F926F927F928F929F92AF92C6
:1022D000BF92CF92DF92EF92FF920F931F93CF9313
:1022E000DF93CDB7DEB7CA1BDB0B0FB6F894DEBFAA
:1022F0000FBECDBF09942A88398848885F846E84D0
:102300007D848C849B84AA84B984C884DF80EE8019
:10231000FD800C811B81AA81B981CE0FD11D0FB622
:10232000F894DEBF0FBECDBFED010895A1E21A2ED5
:10233000AA1BBB1BFD010DC0AA1FBB1FEE1FFF1F69
:10234000A217B307E407F50720F0A21BB30BE40BB9
:10235000F50B661F771F881F991F1A9469F7609500
:102360007095809590959B01AC01BD01CF010895BA
:10237000A29FB001B39FC001A39F700D811D1124C6
:10238000911DB29F700D811D1124911D089550580B
:10239000BB27AA270E94DF110C94F3100E94E510BE
:1023A00038F00E94EC1020F039F49F3F19F426F425
:1023B0000C94E2100EF4E095E7FB0C94DC10E92F8E
:1023C0000E94041158F3BA17620773078407950730
:1023D00020F079F4A6F50C9426110EF4E0950B2E5E
:1023E000BA2FA02D0B01B90190010C01CA01A00167
:1023F0001124FF27591B99F0593F50F4503E68F1C2
:102400001A16F040A22F232F342F4427585FF3CF02
:10241000469537952795A795F0405395C9F77EF4D3
:102420001F16BA0B620B730B840BBAF09150A1F01C
:10243000FF0FBB1F661F771F881FC2F70EC0BA0FA2
:10244000621F731F841F48F4879577956795B7952A
:10245000F7959E3F08F0B0CF9395880F08F0992725
:10246000EE0F9795879508950E9448120C94F310EB
:102470000E94EC1058F00E94E51040F029F45F3FF4
:1024800029F00C94DC1051110C9427110C94E210DB
:102490000E94041168F39923B1F3552391F3951B1E
:1024A000550BBB27AA2762177307840738F09F5F75
:1024B0005F4F220F331F441FAA1FA9F335D00E2EE2
:1024C0003AF0E0E832D091505040E695001CCAF74F
:1024D0002BD0FE2F29D0660F771F881FBB1F261712
:1024E00037074807AB07B0E809F0BB0B802DBF01E9
:1024F000FF2793585F4F3AF09E3F510578F00C94B8
:10250000DC100C9427115F3FE4F3983ED4F38695DA
:1025100077956795B795F7959F5FC9F7880F911DD8
:102520009695879597F90895E1E0660F771F881FC4
:10253000BB1F621773078407BA0720F0621B730B77
:10254000840BBA0BEE1F88F7E09508950E940C11DA
:1025500088F09F5798F0B92F9927B751B0F0E1F064
:10256000660F771F881F991F1AF0BA95C9F714C014
:10257000B13091F00E942611B1E008950C9426111B
:10258000672F782F8827B85F39F0B93FCCF386954D
:1025900077956795B395D9F73EF4909580957095AA
:1025A00061957F4F8F4F9F4F08950E94481008F408
:1025B0008FEF08950E944810880B990B0895EE0F35
:1025C000FF1F0590F491E02D09940F931F93CF9373
:1025D000DF938230910510F482E090E0E091960361
:1025E000F091970320E030E0A0E0B0E0309719F1DF
:1025F000408151810281138148175907C8F084171F
:10260000950769F4109731F012960C931297139670
:102610001C9327C0009396031093970322C02115A3
:10262000310519F04217530718F49A01BD01EF0163
:10263000DF01F801DBCF21153105F9F0281B390B3B
:102640002430310580F48A819B816115710521F068
:10265000FB019383828304C0909397038093960336
:10266000FE01329644C0FE01E20FF31F8193919365
:1026700022503109398328833AC020919403309144
:102680009503232B41F420910A0130910B013093E3
:10269000950320939403209108013091090121159D
:1026A000310541F42DB73EB740910C0150910D0119
:1026B000241B350BE0919403F0919503E217F30787
:1026C000A0F42E1B3F0B2817390778F0AC014E5FA2
:1026D0005F4F2417350748F04E0F5F1F5093950347
:1026E000409394038193919302C0E0E0F0E0CF0126
:1026F000DF91CF911F910F910895CF93DF930097B2
:1027000009F481C0FC01329713821282A0919603D2
:10271000B0919703109781F420813181820F931F2C
:1027200020919403309195032817390751F5F093C0
:102730009503E093940367C0ED0120E030E0CE17ED
:10274000DF0740F44A815B819E0141155105F1F09C
:10275000EA01F5CFD383C28340815181840F951F55
:10276000C817D90759F488819981840F951F02965B
:10277000918380838A819B81938382832115310594
:1027800029F4F0939703E09396033DC0E901FB839E
:10279000EA8349915991C40FD51FEC17FD0761F4E5
:1027A00080819181840F951F0296E9019983888326
:1027B000828193819B838A83E0E0F0E012968D9181
:1027C0009C911397009719F0FD01DC01F7CF8D91D3
:1027D0009C9111979D012E5F3F4F820F931F209177
:1027E0009403309195032817390769F4309729F439
:1027F000109297031092960302C013821282B09334
:102800009503A0939403DF91CF910895A0E0B0E0E9
:10281000ECE0F4E10C946311EC01009721F4CB019E
:102820000E94E512B4C0FC01E60FF71F9C01225084
:102830003109E217F30708F4A8C0D9010D911C91E2
:10284000119706171707B0F00530110508F49BC063
:10285000C80104978617970708F495C0025011091C
:10286000061B170B019311936D937C93CF010E946C
:102870007D1389C05B01A01AB10A4C01800E911E24
:10288000A0919603B0919703612C712CE12CF12C4F
:10289000109709F446C08D919C911197A815B90520
:1028A000B1F56C0142E0C40ED11CCA14DB0478F10E
:1028B0004C018A189B08640142E0C40ED11C129698
:1028C000BC9012971396AC91B5E0CB16D10440F0B2
:1028D000B282A38391828082D9016D937C9309C0D7
:1028E0000E5F1F4F800F911FF90191838083EB2DA5
:1028F000FA2FE114F10431F0D7011396FC93EE9313
:10290000129741C0F0939703E09396033CC068167A
:10291000790608F43C017D0112960D90BC91A02D22
:10292000B7CF809194039091950388169906E1F4AE
:1029300066167706C8F48091080190910901009706
:1029400041F48DB79EB740910C0150910D01841B4D
:10295000950BE817F907C8F4F0939503E0939403F7
:10296000F901718360830FC0CB010E94E5127C01E5
:10297000009759F0A801BE010E94D114CE010E9417
:102980007D13C70104C0CE0102C080E090E0CDB746
:10299000DEB7EEE00C947F1181E090E0F8940C94A7
:1029A000EA14FB01DC0102C001900D92415050403D
:1029B000D8F70895FB01DC018D9101908019011079
:1029C000D9F3990B0895FB01DC0101900D920020D1
:1029D000E1F7089510E0C7E8D0E004C0FE010E94CE
:0E29E000DF122196C838D107C9F7F894FFCF4F
:1029EE00C001C001010000000000980380000D0E20
:1029FE00131516191A1C232526292A2C32342A2A95
:102A0E002A2A2A2A382C000000001E018309B5004C
:102A1E006B01E600C400D800000000004D06490618
:102A2E004506840731065C0658065406140603064E
:102A3E00E90500000000EA062009B4064C02C101B7
:102A4E00A5069D061A084B0880086D069706940683
:102A5E0091068E0687069A06840681067E067B06FA
:102A6E00770673066F066D066906650661062C000D
:102A7E0048756D69646974793A2000202020202001
:102A8E002020202054656D70657261747572653AF0
:102A9E0020000D0A006E616E00696E66006F76662C
:022AAE00000026
:107E0000112484B714BE81FFF0D085E080938100F7
:107E100082E08093C00088E18093C10086E0809377
:107E2000C20080E18093C4008EE0C9D0259A86E02C
:107E300020E33CEF91E0309385002093840096BBD3
:107E4000B09BFECF1D9AA8958150A9F7CC24DD24C4
:107E500088248394B5E0AB2EA1E19A2EF3E0BF2EE7
:107E6000A2D0813461F49FD0082FAFD0023811F036
:107E7000013811F484E001C083E08DD089C08234E0
:107E800011F484E103C0853419F485E0A6D080C0E4
:107E9000853579F488D0E82EFF2485D0082F10E0AE
:107EA000102F00270E291F29000F111F8ED06801E7
:107EB0006FC0863521F484E090D080E0DECF843638
:107EC00009F040C070D06FD0082F6DD080E0C81688
:107ED00080E7D80618F4F601B7BEE895C0E0D1E017
:107EE00062D089930C17E1F7F0E0CF16F0E7DF06D8
:107EF00018F0F601B7BEE89568D007B600FCFDCFD4
:107F0000A601A0E0B1E02C9130E011968C91119780
:107F100090E0982F8827822B932B1296FA010C0160
:107F200087BEE89511244E5F5F4FF1E0A038BF0790
:107F300051F7F601A7BEE89507B600FCFDCF97BE46
:107F4000E89526C08437B1F42ED02DD0F82E2BD052
:107F50003CD0F601EF2C8F010F5F1F4F84911BD097
:107F6000EA94F801C1F70894C11CD11CFA94CF0C13
:107F7000D11C0EC0853739F428D08EE10CD085E9AC
:107F80000AD08FE07ACF813511F488E018D01DD067
:107F900080E101D065CF982F8091C00085FFFCCF94
:107FA0009093C60008958091C00087FFFCCF809118
:107FB000C00084FD01C0A8958091C6000895E0E648
:107FC000F0E098E1908380830895EDDF803219F02E
:107FD00088E0F5DFFFCF84E1DECF1F93182FE3DFCA
:107FE0001150E9F7F2DF1F91089580E0E8DFEE27F6
:047FF000FF270994CA
:027FFE00040479
:0400000300007E007B
:00000001FF