:100000000C945D000C9485000C9485000C94850084
:100010000C9485000C9485000C9485000C9485004C
:100020000C9485000C9485000C9485000C9485003C
:100030000C9485000C9485000C9485000C9485002C
:100040000C9453030C9485000C9421030C94FB0234
:100050000C9485000C9485000C9485000C9485000C
:100060000C9485000C9485000000000024002700FB
:100070002A0000000000250028002B0004040404CE
:100080000404040402020202020203030303030342
:10009000010204081020408001020408102001021F
:1000A00004081020000000080002010000030407FB
:1000B00000000000000000009D0311241FBECFEFD0
:1000C000D8E0DEBFCDBF22E0A0E8B1E001C01D92C4
:1000D000AE36B207E1F711E0A0E0B1E0EAE6FCE0FD
:1000E00002C005900D92A038B107D9F710E0CDE518
:1000F000D0E004C02197FE010E942806CC35D1072C
:10010000C9F70E94DC030C9433060C940000EBE862
:10011000F1E0A089B18982E08C93A485B5851C9219
:10012000A685B7858FEC8C93108EA489B58986E05F
:100130008C93A289B3898C9180618C93A289B389B5
:100140008C9188608C93A289B3898C9180688C9300
:100150000288F389E02D80818F7D80830895E1EB13
:10016000F0E09491EDE9F0E02491E9E8F0E0E49129
:10017000EE2309F43CC0992339F1933091F038F41F
:100180009130A9F0923001F594B59F7D12C097305F
:1001900091F09830A1F09430B9F4909180009F7D57
:1001A00003C0909180009F77909380000DC094B51C
:1001B0009F7794BD09C09091B0009F7703C0909144
:1001C000B0009F7D9093B000F0E0EE0FFF1FEE585F
:1001D000FF4FA591B4919FB7F894811104C08C9101
:1001E0002095282302C0EC912E2B2C939FBF0895BD
:1001F000CF92DF92EF92FF920F931F93CF93DF93F3
:100200006C017A018B01C0E0D0E0CE15DF0581F0F2
:10021000D8016D918D01D601ED91FC910190F08195
:10022000E02DC6010995892B11F02196EECF7E01B4
:10023000C701DF91CF911F910F91FF90EF90DF9059
:10024000CF900895089580E090E00895FC01538DCB
:10025000448D252F30E0842F90E0821B930B5417A0
:1002600010F0CF96089501970895FC01918D828D2D
:10027000981761F0828DDF01A80FB11D5D968C91FA
:10028000928D9F5F9F73928F90E008958FEF9FEF05
:100290000895FC01918D828D981731F0828DE80FC1
:1002A000F11D858D90E008958FEF9FEF0895FC017B
:1002B000918D228D892F90E0805C9F4F821B910948
:1002C0008F73992708958BE891E00E94570121E0F0
:1002D000892B09F420E0822F0895FC01848DDF0131
:1002E000A80FB11DA35ABF4F2C91848D90E00196A9
:1002F0008F739927848FA689B7892C93A089B18998
:100300008C91837080648C93938D848D981306C038
:100310000288F389E02D80818F7D80830895EF929C
:10032000FF920F931F93CF93DF93EC0181E0888FAF
:100330009B8D8C8D981305C0E889F989808185FD96
:1003400026C0F62E0B8D10E00F5F1F4F0F73112785
:10035000E02E8C8DE8120CC00FB607FCFACFE889AE
:10036000F989808185FFF5CFCE010E946D01F1CF23
:100370008B8DFE01E80FF11DE35AFF4FF0829FB70E
:10038000F8940B8FEA89FB89808180620AC09FB74D
:10039000F894EE89FF896083E889F9898081837008
:1003A000806480839FBF81E090E0DF91CF911F91B7
:1003B0000F91FF90EF900895CF93DF93EC01888D1C
:1003C0008823C9F0EA89FB89808185FD05C0A88959
:1003D000B9898C9186FD0FC00FB607FCF5CF8081DF
:1003E00085FFF2CFA889B9898C9185FFEDCFCE0129
:1003F0000E946D01E7CFDF91CF91089580E090E0FA
:10040000892B29F00E94630181110C94000008954A
:100410003FB7F8948091850190918601A091870162
:10042000B091880126B5A89B05C02F3F19F0019611
:10043000A11DB11D3FBFBA2FA92F982F8827820F6A
:10044000911DA11DB11DBC01CD0142E0660F771FBA
:10045000881F991F4A95D1F708958F929F92AF9266
:10046000BF92CF92DF92EF92FF920E9408024B015F
:100470005C0180EDC82E87E0D82EE12CF12C0E9483
:100480000802DC01CB0188199909AA09BB09883E39
:100490009340A105B10598F321E0C21AD108E10803
:1004A000F10888EE880E83E0981EA11CB11CC114CF
:1004B000D104E104F10419F7FF90EF90DF90CF90A1
:1004C000BF90AF909F908F9008952FB7F894609150
:1004D00081017091820180918301909184012FBFED
:1004E00008958F929F92AF92BF92CF92DF92EF9238
:1004F000FF926B017C010E9465024B015C01C60EFC
:10050000D71EE81EF91E0E946502681579058A0546
:100510009B0528F0C616D706E806F906A0F7FF9057
:10052000EF90DF90CF90BF90AF909F908F90089505
:10053000009769F0FC0101900020E9F73197AF01C5
:10054000481B590BBC018BE891E00C94F80080E04B
:1005500090E00895CF93DF930E949802EC0181E22E
:1005600091E00E9498028C0F9D1FDF91CF9108951A
:100570008F929F92AF92BF920F931F93CF93DF936F
:10058000CDB7DEB7A1970FB6F894DEBF0FBECDBFD3
:1005900019A2423008F44AE08E010F5D1F4F842EED
:1005A000912CA12CB12CA50194010E940606E62FE6
:1005B000B901CA0101501109EA3014F4E05D01C02B
:1005C000E95CD801EC93232B242B252B61F7C80180
:1005D0000E949802A1960FB6F894DEBF0FBECDBF61
:1005E000DF91CF911F910F91BF90AF909F908F900F
:1005F00008950E942E061F920F920FB60F9211249B
:100600002F933F934F935F936F937F938F939F931A
:10061000AF93BF93EF93FF938BE891E00E946D013E
:10062000FF91EF91BF91AF919F918F917F916F91CA
:100630005F914F913F912F910F900FBE0F901F90A0
:1006400018951F920F920FB60F9211242F938F932C
:100650009F93EF93FF93E0919B01F0919C01808128
:10066000E091A101F091A20182FD12C090818091E0
:10067000A4018F5F8F732091A501821751F0E09143
:10068000A401F0E0E557FE4F958F8093A40101C0CF
:100690008081FF91EF919F918F912F910F900FBECD
:1006A0000F901F9018951F920F920FB60F92112462
:1006B0002F933F938F939F93AF93BF93809181012B
:1006C00090918201A0918301B091840130918001C9
:1006D00023E0230F2D3720F40196A11DB11D05C085
:1006E00026E8230F0296A11DB11D2093800180935F
:1006F000810190938201A0938301B0938401809142
:10070000850190918601A0918701B09188010196A1
:10071000A11DB11D8093850190938601A09387014F
:10072000B0938801BF91AF919F918F913F912F918D
:100730000F900FBE0F901F901895EBE8F1E0138219
:10074000128288EE93E0A0E0B0E084839583A683D4
:10075000B78384E091E09183808385EC90E0958776
:10076000848784EC90E09787868780EC90E0918B7B
:10077000808B81EC90E0938B828B82EC90E0958B68
:10078000848B86EC90E0978B868B118E128E138E65
:10079000148EE8E2F2E01682178210861186128625
:1007A00013861486158616861786108A118A128A71
:1007B000138A148A158A0895789484B5826084BD5A
:1007C00084B5816084BD85B5826085BD85B5816055
:1007D00085BD80916E00816080936E0010928100D3
:1007E000809181008260809381008091810081608E
:1007F000809381008091800081608093800080914F
:10080000B10084608093B1008091B00081608093DA
:10081000B00080917A00846080937A0080917A00A1
:10082000826080937A0080917A00816080937A0060
:1008300080917A00806880937A001092C1001092B3
:100840006A0210926B0210926C0210926D0210926A
:100850002A0210922B0210922C0210922D0268EBA9
:100860007BE080E090E00E9471020E942D020E94D5
:1008700087000E94650260932A0270932B02809386
:100880002C0290932D0282E191E00E9498026AE08E
:1008900070E080E090E00E94710281E080933E026F
:1008A0000E94870084E291E00E94AA02EDE9F0E054
:1008B0002491E9E8F0E08491882399F090E0880F92
:1008C000991FFC01E859FF4FA591B491FC01EE5826
:1008D000FF4F859194918FB7F894EC91E22BEC93B4
:1008E0008FBF80E00E94AF0084EFC82EDD24D39438
:1008F000E12CF12CC5E692E3892E912CA12CB12C90
:1009000080E00E94AF000E942D0285E491E00E94E9
:1009100098024090890150908A01052C000C6608CD
:10092000770877FE0EC06DE28BE891E00E948F01A0
:1009300066277727CB0164197509860997094AE06C
:1009400003C04AE0C301B2010E94B80281E291E013
:100950000E949802C0923602D0923702E09238028A
:10096000F092390210923A0210923B0210923C022D
:1009700010923D0280912E0290912F02A0913002A0
:10098000B09131028093320290933302A0933402EB
:10099000B09335020E94650260932E0270932F027D
:1009A000809330029093310265E070E080E090E047
:1009B0000E9471026AE070E080E090E00E947102A3
:1009C000C0933F0280913F02833609F4FCC0853614
:1009D00009F0A3C080913A0290913B02A0913C02A1
:1009E000B0913D020196A11DB11D80933A029093F2
:1009F0003B02A0933C02B0933D02409136025091DD
:100A000037026091380270913902452B462B472BF3
:100A100029F4892B8A2B8B2B09F07FC00E94650259
:100A200040902A0250902B0260902C0270902D0270
:100A3000DC01CB0184199509A609B7098233910518
:100A4000A105B10550F4A5019401281B390B4A0BEF
:100A50005B0BCA01B9010E9471020E94650260939A
:100A60002A0270932B0280932C0290932D020E94F5
:100A700065022B013C018FE591E00E9498024AE05B
:100A800061E070E080E090E00E94B80286E691E0CC
:100A90000E9498024AE0C301B2010E94B80288E6AF
:100AA00091E00E94980280912E0290912F02A091D5
:100AB0003002B0913102A3019201281B390B4A0B7D
:100AC0005B0BCA01B9014AE00E94B80288E691E0D6
:100AD0000E94980280912E0290912F02A0913002E4
:100AE000B091310240903202509033026090340253
:100AF00070903502BC01CD0164197509860997090A
:100B00004AE00E94B8028AE691E00E94AA0264EFDD
:100B100071E080E090E00E9471026AE070E080E0A5
:100B200090E00E94710280913E02882309F447C040
:100B30008BE891E00E945701811112C085E640C008
:100B40008BE891E00E9435019C013327283631055E
:100B5000B1F16CF02137310591F12637310581F182
:100B60008BE891E00E9457018111EACFE7CF283549
:100B7000310519F12336310599F70E94650260931A
:100B80002A0270932B0280932C0290932D0281E70E
:100B900091E00E9498024AE061E070E080E090E01D
:100BA0000E94B80288E791E00E94AA0262E370E026
:100BB00080E090E00E94710202C010923E0283E643
:100BC00080933F02FFCE0E94650260932E027093D5
:100BD0002F02809330029093310281E00E94AF0097
:100BE0000E942D028091890190918A0101968A309C
:100BF00091052CF490938A018093890104C010928E
:100C00008A01109289010E94FE017ACEA1E21A2E79
:100C1000AA1BBB1BFD010DC0AA1FBB1FEE1FFF1FA0
:100C2000A217B307E407F50720F0A21BB30BE40BF0
:100C3000F50B661F771F881F991F1A9469F7609537
:100C40007095809590959B01AC01BD01CF010895F1
:100C5000EE0FFF1F0590F491E02D099481E090E0E4
:0A0C6000F8940C943306F894FFCFCB
:100C6A00000000008F01F8002601DC015701350160
:100C7A004901564D4450565F317C315F564D4450C0
:100C8A00560D0A0057656C636F6D6520746F20748A
:100C9A0068652056697375616C204D6963726F20AF
:100CAA0044656D6F00427265616B20706F696E7486
:100CBA0020726561636865643A2078203D20005699
:100CCA004D4450455F003A323A005F564D44504514
:100CDA0000564D4450435F005F564D445043000058
:00000001FF
