:100000000C946A000C94EA050C94C3050C949200BD
:100010000C9492000C9492000C9492000C94920018
:100020000C9492000C9492000C9492000C94110683
:100030000C9492000C9492000C9492000C949200F8
:100040000C9479050C9492000C9471080C944B0854
:100050000C9492000C9492000C9492000C949200D8
:100060000C9492000C9492000000010008004000E3
:1000700000010004050D00000000230026002900F7
:1000800000000000240027002A00000000002500D6
:1000900028002B00040404040404040402020202E5
:1000A000020203030303030301020408102040803B
:1000B00001020408102001020408102000000008BA
:1000C000000201000003040700000000000000001F
:1000D000730D240B11241FBECFEFD8E0DEBFCDBFC0
:1000E00011E0A0E0B1E0EAEEF2E202C005900D926C
:1000F000A83DB107D9F723E0A8EDB1E001C01D92FA
:10010000AE3EB207E1F710E0C9E6D0E004C02197A7
:10011000FE010E945D0FC836D107C9F70E94300B5F
:100120000C9468110C94000008958CE3089581E00C
:1001300008959FB7F894662339F082E0613029F082
:100140008093DB0180E001C081E02091DA01822B05
:100150008093DA018091DB01811103C081E08093FB
:10016000DB019FBF08958091DB01882361F09FB779
:10017000F8942091DB018091D901213019F48DBBD5
:100180009FBF08958FBF0895FC0140853185809100
:10019000DB01882399F02FB7F8948091DB0181303F
:1001A00059F48DB38093D9019DB38091DA01809584
:1001B00089238DBB2FBF02C02093D9014CBD3DBD0B
:1001C00008959FB7F8948091D801882319F0815041
:1001D0008093D8018091D801811105C08CB58F7BA7
:1001E0008CBD1092DB019FBF08958CB58F778CBDBD
:1001F00008958CB580688CBD08956EBD00000DB467
:1002000007FEFDCF8EB50895FC01738362830895C8
:10021000FC01778366830895FC01758364830895E8
:100220000895FC01848995890895FC018289938948
:100230000895FC0180899189089580E00895FC016A
:10024000738362830895FC01828193810895FC0188
:10025000868597850895FC0181850895FC01808538
:100260000895FC0187810895FC0186810895FC01B1
:10027000409595854923642B65870895FC01648723
:100280000895FC0163870895FC0162870895FC01CD
:1002900064830895FC0165830895FC012281338104
:1002A00023303105D1F381E00895CF93DF93EC0142
:1002B000E881F9810280F381E02DCE010995882340
:1002C000B9F3DF91CF910895862740E1849F900193
:1002D00011242827622F70E0562F4427292F30E061
:1002E000242B352BCB0144E0959587954A95E1F772
:1002F00028273927CB0153E0880F991F5A95E1F73A
:100300008227932708954F925F926F927F928F92E8
:100310009F92AF92BF92CF92DF92EF92FF920F9394
:100320001F93CF93DF934D3310F0512C1DC1042F39
:10033000172FB62EEC01E881F9810484F585E02DB4
:100340000995E881F9810288F389E02DCE010995AC
:10035000582E882351F37E0129E7E20EF11C77E045
:10036000D72ED00E6D2D8FEF9FEF0E946401ED2DE3
:10037000F0E0A4E0F595E795AA95E1F7E25FFE4F7E
:100380002081D7012C93ED2DEF70F0E0E25FFE4F5E
:100390002081FE01E658FF4F2083DA846D2D0E94F4
:1003A0006401ED2DF0E0B4E0F595E795BA95E1F73D
:1003B000E25FFE4F2081FE01E558FF4F2083ED2DC7
:1003C000EF70F0E0E25FFE4F2081FE01E458FF4F46
:1003D0002083DB846D2D0E946401ED2DF0E024E08C
:1003E000F595E7952A95E1F7E25FFE4F2081FE0142
:1003F000E358FF4F2083ED2DEF70F0E0E25FFE4FFA
:100400002081FE01E258FF4F2083DC846D2D0E9485
:100410006401ED2DF0E034E0F595E7953A95E1F7CC
:10042000E25FFE4F2081FE01E158FF4F2083ED2D5A
:10043000EF70F0E0E25FFE4F2081FE01E058FF4FD9
:100440002083DD846D2D0E946401ED2DF0E044E0F9
:10045000F595E7954A95E1F7E25FFE4F2081FE01B1
:10046000EF57FF4F2083ED2DEF70F0E0E25FFE4F7E
:100470002081FE01EE57FF4F20834701CB2CD12E68
:1004800010E05601A00EB11EB2E08B0E911CAC1410
:10049000BD04F1F03601F60141906F01642D0E9418
:1004A0006401E42DF0E064E0F595E7956A95E1F7E5
:1004B000E25FFE4F2081D40118962C93D301EC917A
:1004C000EF70F0E0E25FFE4F2081F4012187DCCF86
:1004D0000B5F1F4F000F111F80959095D701A00F44
:1004E000B11FFC0134E0F695E7953A95E1F7EF701E
:1004F000FF27E25FFE4F20812C93FC01EF70FF2766
:10050000E25FFE4F208111962C931197FC01EF2F93
:10051000FF27E295EF70E25FFE4F208112962C9349
:100520001297E92FFF27EF70FF27E25FFE4F8081D0
:1005300013968C93FE01E150FF4F045F00838A8184
:100540009B81039789F0E159F1091082319610825D
:10055000319610826F8D81E068278D8D0E94CC08C6
:1005600083E090E09B838A83852DDF91CF911F915B
:100570000F91FF90EF90DF90CF90BF90AF909F9042
:100580008F907F906F905F904F900895EF92FF92C1
:100590001F93CF93DF93FC012281338123303105F8
:1005A00009F446C0EC0182819381049761F0678D64
:1005B000858D0E94CC0860E08C8D0E94CC0884E080
:1005C00090E09B838A8388A1882381F110E08FEFDC
:1005D0009FEF7E01FDE6EF0EF11CF701208112175F
:1005E00040F4FE01E10FF11D61A50E9464011F5F4F
:1005F000F4CF883B904F39F0888999890196998B7F
:10060000888B19A212C08AA58E838BA58F838CA597
:1006100088878DA589878D8181110CC09E818C81F1
:10062000981741F08E818F3F29F018A289A10AC046
:1006300080E008C08A899B8901969B8B8A8B81E028
:1006400089A3F3CFDF91CF911F91FF90EF90089591
:10065000DF92EF92FF920F931F93CF93DF93EC0102
:100660007B018A01E881F9810280F381E02D0995FF
:10067000D82E8823D1F0E114F104B1F00115110551
:1006800099F0FE01E359FF4F80818750F801908176
:10069000891708F48083F801408150E0BE01625D53
:1006A0007F4FC7010E944F1119A28D2DDF91CF916D
:1006B0001F910F91FF90EF90DF9008954F925F92FE
:1006C0006F927F92AF92BF92CF92DF92EF92FF92A2
:1006D0001F93CF93DF9300D0CDB7DEB77C0190930B
:1006E000DD018093DC0161E0FC01848D0E94FB0848
:1006F00060E0F701838D0E94FB0861E0F701858DC2
:100700000E94FB08C7010E94040AF701C18CD28C29
:10071000C114D10409F45BC0E12CF12C83E0CC0CB2
:10072000DD1CEE1CFF1C8A95D1F79AE6A92E90E0FD
:10073000B92E11E0412C24E2522E24EF622E712CAE
:1007400042E050E0B501CE0101960E94BA0E298127
:100750003A8140E050E0C301B2010E94C30ECA01D9
:10076000B901A70196010E94C30EDA01C9010297DF
:10077000A109B1098D3F9F4FA105B10538F01F5F59
:1007800062E0A60EB11C1730D9F603C01630F9F09E
:100790000BC02230310541055105C8F02115310546
:1007A00081E04807510598F41092800088E080931A
:1007B000810080918100182B109381003093890073
:1007C0002093880080916F00826080936F0081E0A9
:1007D0000F900F90DF91CF911F91FF90EF90DF90DE
:1007E000CF90BF90AF907F906F905F904F900895A3
:1007F0000F931F93CF93FC018281938184309105E5
:1008000069F08330910579F08230910589F0019784
:10081000A1F040E452E46FE070E013C040E054E225
:1008200064EF70E00EC040E052E16AE770E009C09A
:1008300040E059E06DE370E004C040E854E86EE148
:1008400070E086819781009771F08130910539F0D1
:100850008230910531F0039731F49CE005C094E0BB
:1008600003C098E001C090E000E012E12AE730E028
:1008700080E0401751076207730740F436952795CB
:10088000179507958F5F8630A1F787E021E028272D
:10089000448155814130510511F080E501C080E768
:1008A000322F3695932B982B908721702187CFB7C5
:1008B000F8948091D801811127C0EEE9F0E084918D
:1008C000E2EBF0E09491E82FF0E0EE0FFF1FE0582C
:1008D000FF4FA591B491EC91E92321F461E08AE006
:1008E0000E94CC0861E08AE00E94FB088CB5806120
:1008F0008CBD8CB580648CBD61E08DE00E94FB08EE
:1009000061E08BE00E94FB088091D8018F5F8093AB
:10091000D801CFBFCF911F910F9108953FB7F894A1
:100920008091E3019091E401A091E501B091E6018D
:1009300026B5A89B05C02F3F19F00196A11DB11D3A
:100940003FBFBA2FA92F982F8827820F911DA11D75
:10095000B11DBC01CD0142E0660F771F881F991FB2
:100960004A95D1F708952FB7F8946091DF017091FF
:10097000E0018091E1019091E2012FBF08958F92F3
:100980009F92AF92BF92CF92DF92EF92FF92CF935E
:10099000DF93FC012789308D232BB9F1EC010E94F4
:1009A000B3044B015C0189E0C82ED12CE12CF12C61
:1009B000E881F9810488F589E02DCE010995882325
:1009C00021F10E94B304AB01BC01481959096A091D
:1009D0007B098F89988DA0E0B0E084179507A60762
:1009E000B707A8F00E94630EA70196010E94E50ECA
:1009F0009B01AC012F5F3F4F4F4F5F4FA4E6B0E02C
:100A00000E94040F0E943709D3CF81E001C080E02B
:100A1000DF91CF91FF90EF90DF90CF90BF90AF909C
:100A20009F908F9008958F929F92AF92BF92CF9296
:100A3000DF92EF92FF92CF93DF93EC016B010E9464
:100A4000B3044B015C01E12CF12C0E94B304DC01E6
:100A5000CB0188199909AA09BB098C159D05AE051A
:100A6000BF0530F48A819B81039779F381E001C04F
:100A700080E0DF91CF91FF90EF90DF90CF90BF901B
:100A8000AF909F908F9008958F929F92AF92BF9258
:100A9000CF92DF92EF92FF92CF93DF93EC016B0145
:100AA0000E94B3044B015C01E12CF12C0E94B304C1
:100AB000DC01CB0188199909AA09BB098C159D0590
:100AC000AE05BF0550F4E881F9810280F381E02D85
:100AD000CE010995882351F301C080E0DF91CF91C9
:100AE000FF90EF90DF90CF90BF90AF909F908F904E
:100AF00008951F920F920FB60F9211242F933F93D8
:100B00008F939F93AF93BF938091DF019091E0010A
:100B1000A091E101B091E2013091DE0123E0230FC9
:100B20002D3720F40196A11DB11D05C026E8230F25
:100B30000296A11DB11D2093DE018093DF019093E9
:100B4000E001A093E101B093E2018091E301909173
:100B5000E401A091E501B091E6010196A11DB11D4E
:100B60008093E3019093E401A093E501B093E60143
:100B7000BF91AF919F918F913F912F910F900FBE99
:100B80000F901F9018951F920F920FB60F9211247D
:100B90002F933F934F935F936F937F938F939F9385
:100BA000AF93BF93EF93FF93E0910201F0910301A4
:100BB0000995FF91EF91BF91AF919F918F917F9197
:100BC0006F915F914F913F912F910F900FBE0F90BA
:100BD0001F9018951F920F920FB60F9211242F930A
:100BE0003F934F935F936F937F938F939F93AF93B5
:100BF000BF93EF93FF93E0910001F09101010995FC
:100C0000FF91EF91BF91AF919F918F917F916F91E4
:100C10005F914F913F912F910F900FBE0F901F90BA
:100C200018951F920F920FB60F921124CF92DF9258
:100C3000EF92FF920F931F932F933F934F935F93E6
:100C40006F937F938F939F93AF93BF93CF93DF93D4
:100C5000EF93FF93C091DC01D091DD018A819B81EC
:100C6000049709F0C7C02B8D30E0F901E454FF4F21
:100C70008491F901E855FF4F0491F901EC56FF4FBB
:100C80001491112379F081110E94A308E12FF0E063
:100C9000EE0FFF1FEA58FF4FA591B491EC91E023AE
:100CA00081E009F480E081709E8D892719F09BA175
:100CB0009F5F9BA39AA1981759F09CA1903510F0C3
:100CC0009DE101C09BE02CA1920F9CA38AA303C0CD
:100CD0008CA18C5E8CA38CA1803A08F4DCC08EA120
:100CE0009FA1969587959FA38EA38BA1853028F011
:100CF0008EA19FA198609FA38EA38CA1805A8CA3E4
:100D00001BA28DA1882309F468C088A58F5F88A7DE
:100D10008C3008F4C0C08EA19FA1982F9F73892F9B
:100D200086958695887028E0280F281749F0E82FC7
:100D3000F0E0E25FFE4F3081931719F08F5FF5CF3F
:100D400080E020E1829FC00111242EA13FA196E006
:100D5000369527959A95E1F7422F36952795369542
:100D60002795287038E0320F321749F0E22FF0E073
:100D7000E25FFE4F5081451719F02F5FF5CF20E05D
:100D8000822BAE0143595F4FFA019081DE01A459D5
:100D9000BF4F9923B1F0FA01908121E0290F208300
:100DA0009E01290F311DF90181A7FA0190818C91D3
:100DB000981788F01DA281E088A3CE010E94040A42
:100DC0000AC08C939C91973008F45FC09C91943436
:100DD00008F05BC0E0CF18A65EC08EA19FA188334B
:100DE0009B4009F058C081E08DA318A6C359DF4F7E
:100DF000188251C08A819B81039709F04CC08E01F3
:100E000000591F4FF801808191E0980F9083811164
:100E100036C06E01FEE6CF0ED11CF6018081EF5682
:100E2000FF4F9081891748F0CE010E94040A8C89F7
:100E30009D8901969D8B8C8B22C0FE01E80FF11DD0
:100E4000EF58FF4F608170E07E01FFE6EF0EF11C6E
:100E5000F701808191E0980F908302C075956795A6
:100E60008A95E2F761708C8D0E94CC08F701808131
:100E7000863028F01082F60180818F5F8083F80130
:100E80008081883040F0108206C01DA2888999892F
:100E90000196998B888BFF91EF91DF91CF91BF9154
:100EA000AF919F918F917F916F915F914F913F9102
:100EB0002F911F910F91FF90EF90DF90CF900F90A7
:100EC0000FBE0F901F90189580E090E00895FC01F0
:100ED000538D448D252F30E0842F90E0821B930B9F
:100EE000541710F0CF96089501970895FC01918D45
:100EF000828D981761F0828DDF01A80FB11D5D967C
:100F00008C91928D9F5F9F73928F90E008958FEFE9
:100F10009FEF0895FC01918D828D981731F0828D9D
:100F2000E80FF11D858D90E008958FEF9FEF0895F4
:100F3000FC01918D228D892F90E0805C9F4F821B58
:100F400091098F73992708958BEE91E00E9498077D
:100F500021E0892B09F420E0822F0895FC01848D83
:100F6000DF01A80FB11DA35ABF4F2C91848D90E0D3
:100F700001968F739927848FA689B7892C93A089AE
:100F8000B1898C91837080648C93938D848D981338
:100F900006C00288F389E02D80818F7D80830895CB
:100FA000EF92FF920F931F93CF93DF93EC0181E0B9
:100FB000888F9B8D8C8D981305C0E889F989808175
:100FC00085FD26C0F62E0B8D10E00F5F1F4F0F73AF
:100FD0001127E02E8C8DE8120CC00FB607FCFACF5B
:100FE000E889F989808185FFF5CFCE010E94AE079F
:100FF000F1CF8B8DFE01E80FF11DE35AFF4FF08218
:101000009FB7F8940B8FEA89FB89808180620AC0C0
:101010009FB7F894EE89FF896083E889F989808118
:101020008370806480839FBF81E090E0DF91CF91E7
:101030001F910F91FF90EF900895CF93DF93EC01F4
:10104000888D8823C9F0EA89FB89808185FD05C0E8
:10105000A889B9898C9186FD0FC00FB607FCF5CF22
:10106000808185FFF2CFA889B9898C9185FFEDCF6A
:10107000CE010E94AE07E7CFDF91CF91089580E0C7
:1010800090E0892B29F00E94A40781110C940000A4
:1010900008950E944A111F920F920FB60F921124C9
:1010A0002F933F934F935F936F937F938F939F9370
:1010B000AF93BF93EF93FF938BEE91E00E94AE0747
:1010C000FF91EF91BF91AF919F918F917F916F9120
:1010D0005F914F913F912F910F900FBE0F901F90F6
:1010E00018951F920F920FB60F9211242F938F9382
:1010F0009F93EF93FF93E091FB01F091FC018081BE
:10110000E0910102F091020282FD12C09081809173
:1011100004028F5F8F7320910502821751F0E091D6
:101120000402F0E0E551FE4F958F8093040201C068
:101130008081FF91EF919F918F912F910F900FBE22
:101140000F901F901895833081F028F4813099F02A
:101150008230A1F008958730A9F08830B9F084304A
:10116000D1F4809180008F7D03C0809180008F77C3
:1011700080938000089584B58F7702C084B58F7DF9
:1011800084BD08958091B0008F7703C08091B00036
:101190008F7D8093B00008951F93CF93DF93282F06
:1011A00030E0F901E454FF4F8491F901E855FF4F15
:1011B000D491F901EC56FF4FC491CC23C1F0162F06
:1011C00081110E94A308EC2FF0E0EE0FFF1FE657FD
:1011D000FF4FA591B4919FB7F894111104C08C9161
:1011E000D095D82302C0EC91DE2BDC939FBFDF911A
:1011F000CF911F910895CF93DF9390E0FC01E855C4
:10120000FF4F2491FC01EC56FF4F8491882361F13C
:1012100090E0880F991FFC01E058FF4FC591D491D1
:10122000FC01E657FF4FA591B491611109C09FB72A
:10123000F8948881209582238883EC912E230BC01B
:10124000623061F49FB7F8948881322F3095832300
:101250008883EC912E2B2C939FBF06C08FB7F894F8
:10126000E8812E2B28838FBFDF91CF9108958F9235
:101270009F92AF92BF92CF92DF92EF92FF926B015B
:101280007C010E948E044B015C01C114D104E10475
:10129000F104F1F00E948E04DC01CB018819990958
:1012A000AA09BB09883E9340A105B10570F321E06E
:1012B000C21AD108E108F10888EE880E83E0981E72
:1012C000A11CB11CC114D104E104F10419F7DDCF54
:1012D000FF90EF90DF90CF90BF90AF909F908F9056
:1012E00008950895CF92DF92EF92FF920F931F938C
:1012F000CF93DF936C017A018B01C0E0D0E0CE1573
:10130000DF0581F0D8016D918D01D601ED91FC9141
:101310000190F081E02DC6010995892B11F02196ED
:10132000EECF7E01C701DF91CF911F910F91FF900A
:10133000EF90DF90CF900895EF92FF920F931F935D
:10134000CF93DF93EC017B018A018881998100971B
:1013500029F02A813B8124173507F8F4B8016F5F23
:101360007F4F0E948410009759F0998388831B83D4
:101370000A832C813D81232B81F4FC0110820DC056
:1013800088819981009711F00E94FB0F19821882C1
:101390001D821C821B821A8207C01D830C83B70129
:1013A000888199810E946111CE01DF91CF911F91B7
:1013B0000F91FF90EF900895EBEEF1E0A089B189D5
:1013C00082E08C93A485B5851C92A685B7858FECA9
:1013D0008C93108EA489B58986E08C93A289B389F9
:1013E0008C9180618C93A289B3898C9188608C9355
:1013F000A289B3898C9180688C930288F389E02D4F
:1014000080818F7D80830895CF93DF93FC012281BB
:1014100033812230310569F0EC01678D858D0E94A2
:10142000CC0860E08C8D0E94CC0882E090E09B8329
:101430008A83DF91CF910895009769F0FC010190B4
:101440000020E9F73197AF01481B590BBC018BEE27
:1014500091E00C94720980E090E008958F929F9241
:10146000AF92BF920F931F93CF93DF93CDB7DEB7A9
:10147000A1970FB6F894DEBF0FBECDBF19A24230C0
:1014800008F44AE08E010F5D1F4F842E912CA12C91
:10149000B12CA50194010E94C30EE62FB901CA0127
:1014A00001501109EA3014F4E05D01C0E95CD80193
:1014B000EC93232B242B252B61F7C8010E941C0AD7
:1014C000A1960FB6F894DEBF0FBECDBFDF91CF91CE
:1014D0001F910F91BF90AF909F908F9008950C94A3
:1014E0001C0A0F931F93CF93DF938C01EB01FC0138
:1014F00080819181009739F068817981611571054A
:10150000A1F40E94FB0F88819981F8019183808367
:101510008A819B81938382838C819D81958384833F
:10152000198218821B821A820FC0F80142815381EE
:101530002C813D814217530720F30E9461118C8159
:101540009D81F801958384831D821C82DF91CF9158
:101550001F910F910895FC01808191810C94FB0FE4
:10156000FC0111821082138212821582148261158D
:10157000710551F0FB0101900020E9F73197AF01AF
:10158000461B570B0C949C090895CF92DF92EF9263
:10159000FF920F931F93CF93DF936C01EB017A01BE
:1015A0004617570720F48D2FEA01E62EF82E6FE933
:1015B00071E0C6010E94B00A0091D2021091D302DC
:1015C000C017D107B8F5E016F10608F48701E091DD
:1015D000CE02F091CF02E00FF11FF08010826091F7
:1015E000CE027091CF026C0F7D1F6115710561F005
:1015F000FB0101900020E9F73197AF01461B570B23
:10160000C6010E949C090EC0F6018081918100975D
:1016100011F00E94FB0FF6011182108215821482D4
:10162000138212828091CE029091CF02FC01E00FD2
:10163000F11FF082C601DF91CF911F910F91FF90B2
:10164000EF90DF90CF9008958EEC92E00E94AB0A6D
:1016500084ED92E00E94AB0A8AED92E00C94AB0A12
:10166000CF93DF93CDB7DEB762970FB6F894DEBFA6
:101670000FBECDBF789484B5826084BD84B581608F
:1016800084BD85B5826085BD85B5816085BD80914D
:101690006E00816080936E001092810080918100C5
:1016A00082608093810080918100816080938100BD
:1016B000809180008160809380008091B10084607F
:1016C0008093B1008091B00081608093B0008091E0
:1016D0007A00846080937A0080917A00826080939F
:1016E0007A0080917A00816080937A0080917A00FC
:1016F000806880937A001092C1001092CA02109202
:10170000CB021092CC021092CD0210928A0210925B
:101710008B0210928C0210928D020E94B3046B0116
:101720007C014B015C0128EB820E2BE0921EA11C78
:10173000B11C0E94B3046C157D058E059F0528F031
:1017400086169706A806B906A0F760ED77E080E058
:1017500090E00E9437090E94DC090E94B304609364
:101760008A0270938B0280938C0290938D028EE894
:1017700091E00E946F0A0E94B3046B017C014B014F
:101780005C013AE0830E911CA11CB11C0E94B304C1
:101790006C157D058E059F0528F086169706A80610
:1017A000B906A0F781E080939E0280EE92E00E944D
:1017B0005E030E94DC0984EF882E99249394A12C67
:1017C000B12C9BE0792E0E94B304672B682B692B08
:1017D00041F40E94B304623071058105910508F45B
:1017E000E3C00E94B3040091E7011091E801209149
:1017F000E9013091EA01601771078207930740F40D
:101800006093E7017093E8018093E9019093EA0106
:101810000091E7011091E8012091E9013091EA017E
:101820006B017C01C01AD10AE20AF30A9701860112
:101830000A3F11052105310508F4B6C06093E701A0
:101840007093E8018093E9019093EA0180929602F7
:1018500090929702A0929802B092990210929A02E6
:1018600010929B0210929C0210929D0280918E0217
:1018700090918F02A0919002B09191028093920278
:1018800090939302A0939402B09395020E94B304A4
:1018900060938E0270938F028093900290939102D6
:1018A0000E94B30460938A0270938B0280938C022F
:1018B00090938D020E94B3046B017C0180EA91E059
:1018C0000E946F0A4AE061E070E080E090E00E94D0
:1018D0002E0A87EA91E00E946F0A4AE0C701B6012A
:1018E0000E942E0A89EA91E00E946F0A80918E027E
:1018F00090918F02A0919002B0919102A701960160
:10190000281B390B4A0B5B0BCA01B9014AE00E9444
:101910002E0A89EA91E00E946F0A80918E029091CE
:101920008F02A0919002B0919102009192021091C9
:1019300093022091940230919502BC01CD01601B6D
:10194000710B820B930B4AE00E942E0A8BEA91E006
:101950000E946F0A0E94B3044AE00E942E0A8DEA98
:1019600091E00E941C0A8DE991E00E941C0A0E94ED
:10197000B3046B017C011B012C0135E0230E311CEB
:10198000411C511C0E94B3046C157D058E059F05FA
:1019900008F0A2C00E94B30460938E0270938F027D
:1019A00080939002909391027A8AAE014E5E5F4FCF
:1019B000BE016F5F7F4F80EE92E00E942803882374
:1019C00009F487C0BE016F5F7F4FCE010C960E9465
:1019D000B00ABE01645F7F4F8EEC92E00E94710AF4
:1019E000CE010C960E94AB0A00E010E0D02EE12E52
:1019F0008091D2029091D3020817190708F045C0D0
:101A00000F5F1F4FA8016D2D7E2DCE010C960E94F9
:101A1000C50A88899989892B51F064EB71E08C851E
:101A20009D850E945811FF24F394892B09F0F12C15
:101A3000CE010C960E94AB0AFF20C1F24D2D5E2D07
:101A400060E070E0CE010C960E94C50ABE01645FA2
:101A50007F4F8AED92E00E94710ACE010C960E949F
:101A6000AB0A4091D2025091D302B801CE010C963C
:101A70000E94C50ABE01645F7F4F84ED92E00E9420
:101A8000710ACE010C960E94AB0A86EB91E00E948F
:101A90006F0A4091DE025091DF026091DA0270918C
:101AA000DB028BEE91E00E94720981EC91E00E94D2
:101AB0006F0A4091D8025091D9026091D40270917E
:101AC000D5028BEE91E00E9472098DE991E00E94AF
:101AD0001C0A0E943F0877CE26163706480659068C
:101AE00008F050CF57CFCF93DF93CDB7DEB728970D
:101AF0000FB6F894DEBF0FBECDBFEBEEF1E0138260
:101B0000128288EE93E0A0E0B0E084839583A68300
:101B1000B7838AE291E09183808385EC90E095879A
:101B2000848784EC90E09787868780EC90E0918BA7
:101B3000808B81EC90E0938B828B82EC90E0958B94
:101B4000848B86EC90E0978B868B118E128E138E91
:101B5000148EE8E8F2E0168217821086118612864B
:101B600013861486158616861786108A118A128A9D
:101B7000138A148A158AE0EEF3E01382128215822A
:101B80001482178216828CE391E09183808380E532
:101B900080871186E0EEF2E0138212828FEF848359
:101BA0008287838714861586118A108A138A128A7F
:101BB000158A148A108E178A86E591E091838083B6
:101BC00080ED97E0928F818F8BE0838F8CE0848F04
:101BD0008AE0858F168E178E88E0EEE1F1E0DE0157
:101BE000119601900D928A95E1F788E0FE013196F9
:101BF000A1E5B3E001900D928A95E1F76FE971E0FC
:101C00008AED92E00E94B00A6FE971E084ED92E003
:101C10000E94B00A6FE971E08EEC92E028960FB650
:101C2000F894DEBF0FBECDBFDF91CF910C94B00A08
:101C30008F929F92AF92BF92CF92DF92EF92FF92DC
:101C4000CF93DF93EC01688179818A819B81611553
:101C500071058105910521F464E279ED8BE597E04A
:101C60002DE133EF41E050E00E94E50E49015A01B9
:101C70009B01AC01A7EAB1E40E94040F6B017C0157
:101C8000ACEEB4EFA50194010E94120FDC01CB0170
:101C90008C0D9D1DAE1DBF1DB7FF03C00197A1098F
:101CA000B04888839983AA83BB83BC01CD019F7709
:101CB000DF91CF91FF90EF90DF90CF90BF90AF90EA
:101CC0009F908F9008958F929F92AF92BF92CF92E4
:101CD000DF92EF92FF926091040170910501809173
:101CE000060190910701611571058105910521F4A7
:101CF00064E279ED8BE597E02DE133EF41E050E0D0
:101D00000E94E50E49015A019B01AC01A7EAB1E42A
:101D10000E94040F6B017C01ACEEB4EFA5019401AD
:101D20000E94120FDC01CB018C0D9D1DAE1DBF1D4D
:101D3000B7FF03C00197A109B048809304019093B5
:101D40000501A0930601B0930701BC01CD019F7767
:101D5000FF90EF90DF90CF90BF90AF909F908F90CB
:101D60000895609304017093050180930601909398
:101D700007010895FB01DC0102C005900D9241505E
:101D80005040D8F70895A1E21A2EAA1BBB1BFD01F3
:101D90000DC0AA1FBB1FEE1FFF1FA217B307E4074A
:101DA000F50720F0A21BB30BE40BF50B661F771FA2
:101DB000881F991F1A9469F7609570958095909582
:101DC0009B01AC01BD01CF010895052E97FB1EF4C8
:101DD00000940E94FC0E57FD07D00E94C30E07FC22
:101DE00003D04EF40C94FC0E5095409530952195FF
:101DF0003F4F4F4F5F4F0895909580957095619537
:101E00007F4F8F4F9F4F08950E944E0FA59F900DBB
:101E1000B49F900DA49F800D911D11240895B7FFCC
:101E20000C94040F0E94040F821B930B08952F92B1
:101E30003F924F925F926F927F928F929F92AF925A
:101E4000BF92CF92DF92EF92FF920F931F93CF93A7
:101E5000DF93CDB7DEB7CA1BDB0B0FB6F894DEBF3E
:101E60000FBECDBF09942A88398848885F846E8464
:101E70007D848C849B84AA84B984C884DF80EE80AE
:101E8000FD800C811B81AA81B981CE0FD11D0FB6B7
:101E9000F894DEBF0FBECDBFED010895A29FB00143
:101EA000B39FC001A39F700D811D1124911DB29F8E
:101EB000700D811D1124911D0895EE0FFF1F0590D7
:101EC000F491E02D09940F931F93CF93DF93823009
:101ED000910510F482E090E0E091EC03F091ED03C5
:101EE00020E030E0A0E0B0E0309719F1408151816E
:101EF0000281138148175907C8F08417950769F4C0
:101F0000109731F012960C93129713961C9327C0DA
:101F10000093EC031093ED0322C02115310519F055
:101F20004217530718F49A01BD01EF01DF01F801D0
:101F3000DBCF21153105F9F0281B390B2430310591
:101F400080F48A819B816115710521F0FB019383E7
:101F5000828304C09093ED038093EC03FE013296DC
:101F600044C0FE01E20FF31F819391932250310987
:101F7000398328833AC02091EA033091EB03232B65
:101F800041F420910A0130910B013093EB0320932F
:101F9000EA0320910801309109012115310541F42E
:101FA0002DB73EB740910C0150910D01241B350B0C
:101FB000E091EA03F091EB03E217F307A0F42E1B84
:101FC0003F0B2817390778F0AC014E5F5F4F24179D
:101FD000350748F04E0F5F1F5093EB034093EA0321
:101FE0008193919302C0E0E0F0E0CF01DF91CF91C7
:101FF0001F910F910895CF93DF93009709F481C04B
:10200000FC01329713821282A091EC03B091ED0390
:10201000109781F420813181820F931F2091EA0370
:102020003091EB032817390751F5F093EB03E09358
:10203000EA0367C0ED0120E030E0CE17DF0740F48F
:102040004A815B819E0141155105F1F0EA01F5CF0E
:10205000D383C28340815181840F951FC817D9074C
:1020600059F488819981840F951F0296918380830A
:102070008A819B81938382832115310529F4F09312
:10208000ED03E093EC033DC0E901FB83EA83499152
:102090005991C40FD51FEC17FD0761F48081918120
:1020A000840F951F0296E901998388838281938129
:1020B0009B838A83E0E0F0E012968D919C911397C8
:1020C000009719F0FD01DC01F7CF8D919C911197DC
:1020D0009D012E5F3F4F820F931F2091EA033091A5
:1020E000EB032817390769F4309729F41092ED03B0
:1020F0001092EC0302C013821282B093EB03A09300
:10210000EA03DF91CF910895A0E0B0E0EAE8F0E1C2
:102110000C941B0FEC01009721F4CB010E94630F7C
:10212000B4C0FC01E60FF71F9C0122503109E217F1
:10213000F30708F4A8C0D9010D911C911197061757
:102140001707B0F00530110508F49BC0C8010497CB
:102150008617970708F495C002501109061B170B44
:10216000019311936D937C93CF010E94FB0F89C063
:102170005B01A01AB10A4C01800E911EA091EC03E4
:10218000B091ED03612C712CE12CF12C109709F426
:1021900046C08D919C911197A815B905B1F56C01B8
:1021A00042E0C40ED11CCA14DB0478F14C018A1839
:1021B0009B08640142E0C40ED11C1296BC90129799
:1021C0001396AC91B5E0CB16D10440F0B282A38354
:1021D00091828082D9016D937C9309C00E5F1F4F5D
:1021E000800F911FF90191838083EB2DFA2FE11469
:1021F000F10431F0D7011396FC93EE93129741C08E
:10220000F093ED03E093EC033CC06816790608F404
:102210003C017D0112960D90BC91A02DB7CF80910D
:10222000EA039091EB0388169906E1F466167706A7
:10223000C8F48091080190910901009741F48DB78D
:102240009EB740910C0150910D01841B950BE8172E
:10225000F907C8F4F093EB03E093EA03F901718303
:1022600060830FC0CB010E94630F7C01009759F07F
:10227000A801BE010E944F11CE010E94FB0FC701B1
:1022800004C0CE0102C080E090E0CDB7DEB7EEE042
:102290000C94370F81E090E0F8940C946811FB01E6
:1022A000DC0102C001900D9241505040D8F70895D2
:1022B000FB01DC018D91019080190110D9F3990B7C
:1022C0000895FB01DC0101900D920020E1F70895D3
:1022D00010E0C9E6D0E004C0FE010E945D0F219627
:0A22E000CA36D107C9F7F894FFCF02
:1022EA0094009400010000000000EE0380000D0E2F
:1022FA00131516191A1C232526292A2C32342A2AA0
:10230A002A2A2A2A382C00000000D00772096707F7
:10231A001D08980776078A0700000000FD00F900EB
:10232A00F500F803E1000C0108010401C400B30040
:10233A009900000000005E03C6022803830195008D
:10234A0055014D0113054405BF041D014701440110
:10235A0041013E0137014A01340131012E012B01AD
:10236A00270123011F011D01190115011101564DF4
:10237A004450565F317C315F564D4450560D0A0029
:10238A00564D4450455F003A323A007C005F564D44
:10239A00445045002C0048756D69646974793A2087
:1023AA000020202020202020202054656D70657296
:0823BA0061747572653A2000A0
:107E0000112484B714BE81FFF0D085E080938100F7
:107E100082E08093C00088E18093C10086E0809377
:107E2000C20080E18093C4008EE0C9D0259A86E02C
:107E300020E33CEF91E0309385002093840096BBD3
:107E4000B09BFECF1D9AA8958150A9F7CC24DD24C4
:107E500088248394B5E0AB2EA1E19A2EF3E0BF2EE7
:107E6000A2D0813461F49FD0082FAFD0023811F036
:107E7000013811F484E001C083E08DD089C08234E0
:107E800011F484E103C0853419F485E0A6D080C0E4
:107E9000853579F488D0E82EFF2485D0082F10E0AE
:107EA000102F00270E291F29000F111F8ED06801E7
:107EB0006FC0863521F484E090D080E0DECF843638
:107EC00009F040C070D06FD0082F6DD080E0C81688
:107ED00080E7D80618F4F601B7BEE895C0E0D1E017
:107EE00062D089930C17E1F7F0E0CF16F0E7DF06D8
:107EF00018F0F601B7BEE89568D007B600FCFDCFD4
:107F0000A601A0E0B1E02C9130E011968C91119780
:107F100090E0982F8827822B932B1296FA010C0160
:107F200087BEE89511244E5F5F4FF1E0A038BF0790
:107F300051F7F601A7BEE89507B600FCFDCF97BE46
:107F4000E89526C08437B1F42ED02DD0F82E2BD052
:107F50003CD0F601EF2C8F010F5F1F4F84911BD097
:107F6000EA94F801C1F70894C11CD11CFA94CF0C13
:107F7000D11C0EC0853739F428D08EE10CD085E9AC
:107F80000AD08FE07ACF813511F488E018D01DD067
:107F900080E101D065CF982F8091C00085FFFCCF94
:107FA0009093C60008958091C00087FFFCCF809118
:107FB000C00084FD01C0A8958091C6000895E0E648
:107FC000F0E098E1908380830895EDDF803219F02E
:107FD00088E0F5DFFFCF84E1DECF1F93182FE3DFCA
:107FE0001150E9F7F2DF1F91089580E0E8DFEE27F6
:047FF000FF270994CA
:027FFE00040479
:0400000300007E007B
:00000001FF