:100000000C9488000C9408060C94E1050C94B00044
:100010000C94B0000C94B0000C94B0000C94B000A0
:100020000C94B0000C94B0000C94B0000C942F060B
:100030000C94B0000C94B0000C94B0000C94B00080
:100040000C9497050C94B0000C948F080C946908DC
:100050000C94B0000C94B0000C94B0000C94B00060
:100060000C94B0000C94B0004E414E494E49545986
:10007000494E46CDCCCC3D0AD7233C17B7D1387773
:10008000CC2B329595E6241FB14F0A000020410089
:1000900000C84200401C4620BCBE4CCA1B0E5AAED3
:1000A000C59D740000010008004000000100040527
:1000B0000D0000000023002600290000000000249D
:1000C0000027002A0000000000250028002B000463
:1000D00004040404040404020202020202030303EF
:1000E00003030301020408102040800102040810E9
:1000F0002001020408102000000008000201000096
:10010000030407000000000000000000DF0EC70C21
:1001100011241FBECFEFD8E0DEBFCDBF11E0A0E0BD
:10012000B1E0E6E2FDE202C005900D92A43EB10707
:10013000D9F724E0A4EEB1E001C01D92A030B207CF
:10014000E1F710E0C7E8D0E004C02197FE010E946B
:100150007B14C638D107C9F70E94D30C0C948616BD
:100160000C94000008958CE3089581E008959FB7F2
:10017000F894662339F082E0613029F08093E7013A
:1001800080E001C081E02091E601822B8093E601AE
:100190008091E701811103C081E08093E7019FBF57
:1001A00008958091E701882361F09FB7F89420912A
:1001B000E7018091E501213019F48DBB9FBF0895BF
:1001C0008FBF0895FC01408531858091E701882328
:1001D00099F02FB7F8948091E701813059F48DB3ED
:1001E0008093E5019DB38091E601809589238DBBC5
:1001F0002FBF02C02093E5014CBD3DBD08959FB7C0
:10020000F8948091E401882319F081508093E401EF
:100210008091E401811105C08CB58F7B8CBD10925B
:10022000E7019FBF08958CB58F778CBD08958CB57D
:1002300080688CBD08956EBD00000DB407FEFDCF33
:100240008EB50895FC01738362830895FC01778362
:1002500066830895FC017583648308950895FC0105
:10026000848995890895FC01828993890895FC0108
:1002700080899189089580E00895FC0173836283E9
:100280000895FC01828193810895FC0186859785FC
:100290000895FC0181850895FC0180850895FC0185
:1002A00087810895FC0186810895FC01409595851C
:1002B0004923642B65870895FC0164870895FC0138
:1002C00063870895FC0162870895FC0164830895A3
:1002D000FC0165830895FC012281338123303105BF
:1002E000D1F381E00895CF93DF93EC01E881F981A8
:1002F0000280F381E02DCE0109958823B9F3DF91C7
:10030000CF910895862740E1849F900111242827EA
:10031000622F70E0562F4427292F30E0242B352BF5
:10032000CB0144E0959587954A95E1F72827392731
:10033000CB0153E0880F991F5A95E1F78227932745
:1003400008954F925F926F927F928F929F92AF9299
:10035000BF92CF92DF92EF92FF920F931F93CF93B2
:10036000DF934D3310F0512C1DC1042F172FB62EE3
:10037000EC01E881F9810484F585E02D0995E88197
:10038000F9810288F389E02DCE010995582E882342
:1003900051F37E0129E7E20EF11C77E0D72ED00E53
:1003A0006D2D8FEF9FEF0E948201ED2DF0E0A4E014
:1003B000F595E795AA95E1F7E25FFE4F2081D70119
:1003C0002C93ED2DEF70F0E0E25FFE4F2081FE01F7
:1003D000E658FF4F2083DA846D2D0E948201ED2DB7
:1003E000F0E0B4E0F595E795BA95E1F7E25FFE4FEE
:1003F0002081FE01E558FF4F2083ED2DEF70F0E0E6
:10040000E25FFE4F2081FE01E458FF4F2083DB8432
:100410006D2D0E948201ED2DF0E024E0F595E79529
:100420002A95E1F7E25FFE4F2081FE01E358FF4F7E
:100430002083ED2DEF70F0E0E25FFE4F2081FE01A2
:10044000E258FF4F2083DC846D2D0E948201ED2D48
:10045000F0E034E0F595E7953A95E1F7E25FFE4F7D
:100460002081FE01E158FF4F2083ED2DEF70F0E079
:10047000E25FFE4F2081FE01E058FF4F2083DD84C4
:100480006D2D0E948201ED2DF0E044E0F595E79599
:100490004A95E1F7E25FFE4F2081FE01EF57FF4FE3
:1004A0002083ED2DEF70F0E0E25FFE4F2081FE0132
:1004B000EE57FF4F20834701CB2CD12E10E0560181
:1004C000A00EB11EB2E08B0E911CAC14BD04F1F075
:1004D0003601F60141906F01642D0E948201E42DE6
:1004E000F0E064E0F595E7956A95E1F7E25FFE4F8D
:1004F0002081D40118962C93D301EC91EF70F0E099
:10050000E25FFE4F2081F4012187DCCF0B5F1F4F9C
:10051000000F111F80959095D701A00FB11FFC010E
:1005200034E0F695E7953A95E1F7EF70FF27E25F43
:10053000FE4F20812C93FC01EF70FF27E25FFE4FFE
:10054000208111962C931197FC01EF2FFF27E29544
:10055000EF70E25FFE4F208112962C931297E92FE5
:10056000FF27EF70FF27E25FFE4F808113968C9389
:10057000FE01E150FF4F045F00838A819B81039756
:1005800089F0E159F109108231961082319610827A
:100590006F8D81E068278D8D0E94EA0883E090E0EE
:1005A0009B838A83852DDF91CF911F910F91FF90BF
:1005B000EF90DF90CF90BF90AF909F908F907F9003
:1005C0006F905F904F900895EF92FF921F93CF939B
:1005D000DF93FC01228133812330310509F446C0C9
:1005E000EC0182819381049761F0678D858D0E9473
:1005F000EA0860E08C8D0E94EA0884E090E09B832A
:100600008A8388A1882381F110E08FEF9FEF7E011C
:10061000FDE6EF0EF11CF7012081121740F4FE01F8
:10062000E10FF11D61A50E9482011F5FF4CF883B9D
:10063000904F39F0888999890196998B888B19A2F6
:1006400012C08AA58E838BA58F838CA588878DA5E4
:1006500089878D8181110CC09E818C81981741F012
:100660008E818F3F29F018A289A10AC080E008C0BE
:100670008A899B8901969B8B8A8B81E089A3F3CF22
:10068000DF91CF911F91FF90EF900895DF92EF924D
:10069000FF920F931F93CF93DF93EC017B018A01AD
:1006A000E881F9810280F381E02D0995D82E882315
:1006B000D1F0E114F104B1F00115110599F0FE013A
:1006C000E359FF4F80818750F8019081891708F422
:1006D0008083F801408150E0BE01625D7F4FC70119
:1006E0000E946D1619A28D2DDF91CF911F910F9150
:1006F000FF90EF90DF9008954F925F926F927F92FC
:10070000AF92BF92CF92DF92EF92FF921F93CF935F
:10071000DF9300D0CDB7DEB77C019093E9018093E1
:10072000E80161E0FC01848D0E94190960E0F70195
:10073000838D0E94190961E0F701858D0E941909D6
:10074000C7010E94FC0BF701C18CD28CC114D104EB
:1007500009F45BC0E12CF12C83E0CC0CDD1CEE1C19
:10076000FF1C8A95D1F795EAA92E90E0B92E11E0E9
:10077000412C24E2522E24EF622E712C42E050E0F4
:10078000B501CE0101960E94331029813A8140E0E3
:1007900050E0C301B2010E94C912CA01B901A70108
:1007A00096010E94C912DA01C9010297A109B10993
:1007B0008D3F9F4FA105B10538F01F5F62E0A60E87
:1007C000B11C1730D9F603C01630F9F00BC0223037
:1007D000310541055105C8F02115310581E0480773
:1007E000510598F41092800088E0809381008091F8
:1007F0008100182B1093810030938900209388008A
:1008000080916F00826080936F0081E00F900F9065
:10081000DF91CF911F91FF90EF90DF90CF90BF902D
:10082000AF907F906F905F904F9008950F931F93BC
:10083000CF93FC01828193818430910569F08330EC
:10084000910579F08230910589F00197A1F040E49B
:1008500052E46FE070E013C040E054E264EF70E0F7
:100860000EC040E052E16AE770E009C040E059E0A4
:100870006DE370E004C040E854E86EE170E086810A
:100880009781009771F08130910539F082309105A0
:1008900031F0039731F49CE005C094E003C098E088
:1008A00001C090E000E012E12AE730E080E040176C
:1008B00051076207730740F43695279517950795FA
:1008C0008F5F8630A1F787E021E02827448155819A
:1008D0004130510511F080E501C080E7322F369597
:1008E000932B982B908721702187CFB7F894809114
:1008F000E401811127C0E9EDF0E08491EDEEF0E034
:100900009491E82FF0E0EE0FFF1FE554FF4FA59103
:10091000B491EC91E92321F461E08AE00E94EA08B5
:1009200061E08AE00E9419098CB580618CBD8CB5AC
:1009300080648CBD61E08DE00E94190961E08BE06C
:100940000E9419098091E4018F5F8093E401CFBF79
:10095000CF911F910F9108953FB7F8948091EF01C7
:100960009091F001A091F101B091F20126B5A89B00
:1009700005C02F3F19F00196A11DB11D3FBFBA2F31
:10098000A92F982F8827820F911DA11DB11DBC0191
:10099000CD0142E0660F771F881F991F4A95D1F756
:1009A00008952FB7F8946091EB017091EC0180915C
:1009B000ED019091EE012FBF08958F929F92AF921B
:1009C000BF92CF92DF92EF92FF92CF93DF93FC0121
:1009D0002789308D232BB9F1EC010E94D1044B0102
:1009E0005C0189E0C82ED12CE12CF12CE881F98141
:1009F0000488F589E02DCE010995882321F10E9414
:100A0000D104AB01BC01481959096A097B098F89D6
:100A1000988DA0E0B0E084179507A607B707A8F067
:100A20000E94CF0FA70196010E94EB129B01AC011F
:100A30002F5F3F4F4F4F5F4FA4E6B0E00E940A1375
:100A40000E945509D3CF81E001C080E0DF91CF91B2
:100A5000FF90EF90DF90CF90BF90AF909F908F90DE
:100A600008958F929F92AF92BF92CF92DF92EF92B2
:100A7000FF92CF93DF93EC016B010E94D1044B01F5
:100A80005C01E12CF12C0E94D104DC01CB0188191E
:100A90009909AA09BB098C159D05AE05BF0530F45F
:100AA0008A819B81039779F381E001C080E0DF9127
:100AB000CF91FF90EF90DF90CF90BF90AF909F903D
:100AC0008F9008958F929F92AF92BF92CF92DF92B4
:100AD000EF92FF92CF93DF93EC016B010E94D10460
:100AE0004B015C01E12CF12C0E94D104DC01CB0113
:100AF00088199909AA09BB098C159D05AE05BF0582
:100B000050F4E881F9810280F381E02DCE0109954E
:100B1000882351F301C080E0DF91CF91FF90EF90E7
:100B2000DF90CF90BF90AF909F908F9008951F92CD
:100B30000F920FB60F9211242F933F938F939F9391
:100B4000AF93BF938091EB019091EC01A091ED01E7
:100B5000B091EE013091EA0123E0230F2D3720F40C
:100B60000196A11DB11D05C026E8230F0296A11D07
:100B7000B11D2093EA018093EB019093EC01A093C7
:100B8000ED01B093EE018091EF019091F001A09101
:100B9000F101B091F2010196A11DB11D8093EF0109
:100BA0009093F001A093F101B093F201BF91AF9146
:100BB0009F918F913F912F910F900FBE0F901F909B
:100BC00018951F920F920FB60F9211242F933F93F7
:100BD0004F935F936F937F938F939F93AF93BF9345
:100BE000EF93FF93E0910201F09103010995FF91CA
:100BF000EF91BF91AF919F918F917F916F915F9195
:100C00004F913F912F910F900FBE0F901F9018950D
:100C10001F920F920FB60F9211242F933F934F9371
:100C20005F936F937F938F939F93AF93BF93EF9354
:100C3000FF93E0910001F09101010995FF91EF917F
:100C4000BF91AF919F918F917F916F915F914F91E4
:100C50003F912F910F900FBE0F901F9018951F92EC
:100C60000F920FB60F921124CF92DF92EF92FF9264
:100C70000F931F932F933F934F935F936F937F93A4
:100C80008F939F93AF93BF93CF93DF93EF93FF9394
:100C9000C091E801D091E9018A819B81049709F014
:100CA000C7C02B8D30E0F901E950FF4F8491F90165
:100CB000ED51FF4F0491F901E153FF4F14911123BE
:100CC00079F081110E94C108E12FF0E0EE0FFF1FC3
:100CD000EF54FF4FA591B491EC91E02381E009F42A
:100CE00080E081709E8D892719F09BA19F5F9BA357
:100CF0009AA1981759F09CA1903510F09DE101C080
:100D00009BE02CA1920F9CA38AA303C08CA18C5EB4
:100D10008CA38CA1803A08F4DCC08EA19FA196958B
:100D200087959FA38EA38BA1853028F08EA19FA1CC
:100D300098609FA38EA38CA1805A8CA31BA28DA127
:100D4000882309F468C088A58F5F88A78C3008F4D1
:100D5000C0C08EA19FA1982F9F73892F86958695DD
:100D6000887028E0280F281749F0E82FF0E0E25FAC
:100D7000FE4F3081931719F08F5FF5CF80E020E1AF
:100D8000829FC00111242EA13FA196E036952795A0
:100D90009A95E1F7422F3695279536952795287035
:100DA00038E0320F321749F0E22FF0E0E25FFE4FF9
:100DB0005081451719F02F5FF5CF20E0822BAE014F
:100DC00043595F4FFA019081DE01A459BF4F992327
:100DD000B1F0FA01908121E0290F20839E01290FB3
:100DE000311DF90181A7FA0190818C91981788F043
:100DF0001DA281E088A3CE010E94FC0B0AC08C9347
:100E00009C91973008F45FC09C91943408F05BC0CB
:100E1000E0CF18A65EC08EA19FA188339B4009F049
:100E200058C081E08DA318A6C359DF4F188251C066
:100E30008A819B81039709F04CC08E0100591F4F96
:100E4000F801808191E0980F9083811136C06E0186
:100E5000FEE6CF0ED11CF6018081EF56FF4F908148
:100E6000891748F0CE010E94FC0B8C899D89019660
:100E70009D8B8C8B22C0FE01E80FF11DEF58FF4FB8
:100E8000608170E07E01FFE6EF0EF11CF7018081CA
:100E900091E0980F908302C0759567958A95E2F767
:100EA00061708C8D0E94EA08F7018081863028F0FD
:100EB0001082F60180818F5F8083F8018081883005
:100EC00040F0108206C01DA2888999890196998BED
:100ED000888BFF91EF91DF91CF91BF91AF919F915F
:100EE0008F917F916F915F914F913F912F911F91C2
:100EF0000F91FF90EF90DF90CF900F900FBE0F906B
:100F00001F90189580E090E00895FC01538D448D6A
:100F1000252F30E0842F90E0821B930B541710F0A4
:100F2000CF96089501970895FC01918D828D9817B1
:100F300061F0828DDF01A80FB11D5D968C91928DBD
:100F40009F5F9F73928F90E008958FEF9FEF0895BA
:100F5000FC01918D828D981731F0828DE80FF11D83
:100F6000858D90E008958FEF9FEF0895FC01918D9E
:100F7000228D892F90E0805C9F4F821B91098F7397
:100F8000992708958BEF91E00E94B60721E0892B05
:100F900009F420E0822F0895FC01848DDF01A80F61
:100FA000B11DA35ABF4F2C91848D90E001968F7391
:100FB0009927848FA689B7892C93A089B1898C91B0
:100FC000837080648C93938D848D981306C00288FF
:100FD000F389E02D80818F7D80830895EF92FF92C9
:100FE0000F931F93CF93DF93EC0181E0888F9B8D4C
:100FF0008C8D981305C0E889F989808185FD26C00C
:10100000F62E0B8D10E00F5F1F4F0F731127E02E90
:101010008C8DE8120CC00FB607FCFACFE889F9896D
:10102000808185FFF5CFCE010E94CC07F1CF8B8D5B
:10103000FE01E80FF11DE35AFF4FF0829FB7F894CD
:101040000B8FEA89FB89808180620AC09FB7F89480
:10105000EE89FF896083E889F989808183708064E3
:1010600080839FBF81E090E0DF91CF911F910F912E
:10107000FF90EF900895CF93DF93EC01888D882344
:10108000C9F0EA89FB89808185FD05C0A889B989F5
:101090008C9186FD0FC00FB607FCF5CF808185FFD0
:1010A000F2CFA889B9898C9185FFEDCFCE010E943E
:1010B000CC07E7CFDF91CF91089580E090E0892BB6
:1010C00029F00E94C20781110C94000008950E942B
:1010D00068161F920F920FB60F9211242F933F9311
:1010E0004F935F936F937F938F939F93AF93BF9330
:1010F000EF93FF938BEF91E00E94CC07FF91EF916C
:10110000BF91AF919F918F917F916F915F914F911F
:101110003F912F910F900FBE0F901F9018951F9227
:101120000F920FB60F9211242F938F939F93EF93EB
:10113000FF93E0910B02F0910C028081E09111028B
:10114000F091120282FD12C09081809114028F5F93
:101150008F7320911502821751F0E0911402F0E094
:10116000E550FE4F958F8093140201C08081FF915E
:10117000EF919F918F912F910F900FBE0F901F9025
:101180001895833081F028F4813099F08230A1F0F5
:1011900008958730A9F08830B9F08430D1F4809177
:1011A00080008F7D03C0809180008F7780938000C6
:1011B000089584B58F7702C084B58F7D84BD08956E
:1011C0008091B0008F7703C08091B0008F7D8093B5
:1011D000B00008951F93CF93DF93282F30E0F901DB
:1011E000E950FF4F8491F901ED51FF4FD491F9017E
:1011F000E153FF4FC491CC23C1F0162F81110E94FF
:10120000C108EC2FF0E0EE0FFF1FEB53FF4FA5914D
:10121000B4919FB7F894111104C08C91D095D82344
:1012200002C0EC91DE2BDC939FBFDF91CF911F9129
:101230000895CF93DF9390E0FC01ED51FF4F24918F
:10124000FC01E153FF4F8491882361F190E0880F06
:10125000991FFC01E554FF4FC591D491FC01EB535C
:10126000FF4FA591B491611109C09FB7F89488818F
:10127000209582238883EC912E230BC0623061F489
:101280009FB7F8948881322F309583238883EC911F
:101290002E2B2C939FBF06C08FB7F894E8812E2B7E
:1012A00028838FBFDF91CF9108958F929F92AF9245
:1012B000BF92CF92DF92EF92FF926B017C010E946E
:1012C000AC044B015C01C114D104E104F104F1F060
:1012D0000E94AC04DC01CB0188199909AA09BB0959
:1012E000883E9340A105B10570F321E0C21AD108F0
:1012F000E108F10888EE880E83E0981EA11CB11C5D
:10130000C114D104E104F10419F7DDCFFF90EF908F
:10131000DF90CF90BF90AF909F908F9008950895E9
:10132000CF92DF92EF92FF920F931F93CF93DF93B1
:101330006C017A018B01C0E0D0E0CE15DF0581F0B1
:10134000D8016D918D01D601ED91FC910190F08154
:10135000E02DC6010995892B11F02196EECF7E0173
:10136000C701DF91CF911F910F91FF90EF90DF9018
:10137000CF900895EF92FF920F931F93CF93DF9337
:10138000EC017B018A0188819981009729F02A81EB
:101390003B8124173507F8F4B8016F5F7F4F0E9437
:1013A000A215009759F0998388831B830A832C81A7
:1013B0003D81232B81F4FC0110820DC0888199812D
:1013C000009711F00E941915198218821D821C8243
:1013D0001B821A8207C01D830C83B7018881998103
:1013E0000E947F16CE01DF91CF911F910F91FF9048
:1013F000EF900895009769F0FC0101900020E9F753
:101400003197AF01481B590BBC018BEF91E00C9455
:10141000900980E090E008958F929F92AF92BF92E2
:101420000F931F93CF93DF93CDB7DEB7A1970FB67E
:10143000F894DEBF0FBECDBF19A2423008F44AE0D7
:101440008E010F5D1F4F842E912CA12CB12CA50174
:1014500094010E94C912E62FB901CA010150110975
:10146000EA3014F4E05D01C0E95CD801EC93232B71
:10147000242B252B61F7C8010E94FA09A1960FB60B
:10148000F894DEBF0FBECDBFDF91CF911F910F91BA
:10149000BF90AF909F908F9008950C94FA098F920F
:1014A0009F92AF92BF92CF92DF92EF92FF926B0129
:1014B0007C010E94D1044B015C01C60ED71EE81EC0
:1014C000F91E0E94D104681579058A059B0528F04C
:1014D000C616D706E806F906A0F7FF90EF90DF9052
:1014E000CF90BF90AF909F908F9008950F931F93D0
:1014F000811123C00E94D10400919A0210919B0295
:1015000020919C0230919D02DC01CB01801B910B4C
:10151000A20BB30B82339105A105B10570F442E330
:1015200050E060E070E08A019B01081B190B2A0B58
:101530003B0BC901B8010E944F0A0E94D10460937D
:101540009A0270939B0280939C0290939D0281E08B
:101550001F910F910895CF92DF92EF92FF92CF9358
:10156000DF93C82F0E94D1046B017C0186EC91E0CF
:101570000E944D0A6C2F70E080E090E04AE00E94EB
:101580000C0A8DEC91E00E944D0A4AE0C701B601B9
:101590000E940C0A8FEC91E00E944D0AC8E9D2E04B
:1015A0008E819F81A885B985A7019601281B390BDB
:1015B0004A0B5B0BCA01B9014AE00E940C0A8FEC8E
:1015C00091E00E944D0A8E819F81A885B985CA84C9
:1015D000DB84EC84FD84BC01CD016C197D098E098E
:1015E0009F094AE0DF91CF91FF90EF90DF90CF907D
:1015F0000C940C0A8F929F92AF92BF92CF92DF927F
:10160000EF92FF920F931F93CF93DF936B017C01B7
:10161000142F9B01AC010E947614882319F081EDF0
:1016200091E027C046015701E894B7F82FEF3FEF4C
:101630004FE75FE7C501B4010E94761481110DC028
:101640002FEF3FEF4FE75FE7C501B4010E94A511FF
:1016500018161CF485ED91E00CC02FEF3FEF4FE71B
:101660005FE4C701B6010E947114181684F489ED75
:1016700091E0DF91CF911F910F91FF90EF90DF905C
:10168000CF90BF90AF909F908F900C94FA092FEF5E
:101690003FEF4FE75FECC701B6010E94A51187FD40
:1016A000E6CF20E030E0A901C701B6010E94A511F4
:1016B00087FF0BC06DE28BEF91E00E94EE07EC011B
:1016C000F7FAF094F7F8F09402C0C0E0D0E000E040
:1016D00060E070E080E09FE3101741F020E030E030
:1016E00040E251E40E94D0130F5FF6CFA7019601AC
:1016F0000E9464136B017C010E9442144B015C0147
:101700004AE00E940C0AC80FD91F1123B9F1C50184
:10171000B4010E94AA119B01AC01C701B6010E944D
:1017200063136B017C016EE28BEF91E00E94EE0788
:10173000C80FD91F20E030E040E251E4C701B601F4
:101740000E940B124B015C010E9442146B01E12CC0
:10175000F12C4AE0C701B6010E940C0AC80FD91F3C
:10176000C701B6010E94AA119B01AC01C501B401D9
:101770000E9463136B017C011150E1F6CE01DF91F1
:10178000CF911F910F91FF90EF90DF90CF90BF907E
:10179000AF909F908F9008958DED91E00E94FA098F
:1017A0008DE991E00C94FA09EBEFF1E0A089B189A1
:1017B00082E08C93A485B5851C92A685B7858FECB5
:1017C0008C93108EA489B58986E08C93A289B38905
:1017D0008C9180618C93A289B3898C9188608C9361
:1017E000A289B3898C9180688C930288F389E02D5B
:1017F00080818F7D80830895CF93DF93FC012281C8
:1018000033812230310569F0EC01678D858D0E94AE
:10181000EA0860E08C8D0E94EA0882E090E09B83F9
:101820008A83DF91CF9108950F931F93CF93DF9316
:101830008C01EB01FC0180819181009739F0688176
:10184000798161157105A1F40E941915888199812A
:10185000F801918380838A819B81938382838C8129
:101860009D8195838483198218821B821A820FC0FE
:10187000F801428153812C813D814217530720F3A7
:101880000E947F168C819D81F801958384831D823F
:101890001C82DF91CF911F910F910895FC018081EF
:1018A00091810C941915FC0111821082138212820D
:1018B000158214826115710551F0FB010190002021
:1018C000E9F73197AF01461B570B0C94BA090895FD
:1018D000CF92DF92EF92FF920F931F93CF93DF93FC
:1018E0006C01EB017A014617570720F48D2FEA01AE
:1018F000E62EF82E6FE971E0C6010E94530C0091AC
:10190000E2021091E302C017D107B8F5E016F10624
:1019100008F48701E091DE02F091DF02E00FF11F91
:10192000F08010826091DE027091DF026C0F7D1FEB
:101930006115710561F0FB0101900020E9F7319715
:10194000AF01461B570BC6010E94BA090EC0F60133
:1019500080819181009711F00E941915F601118282
:10196000108215821482138212828091DE0290917D
:10197000DF02FC01E00FF11FF082C601DF91CF9181
:101980001F910F91FF90EF90DF90CF9008958EED13
:1019900092E00E944E0C84EE92E00E944E0C8AEE81
:1019A00092E00C944E0CCF93DF93CDB7DEB76297E5
:1019B0000FB6F894DEBF0FBECDBF789484B58260B9
:1019C00084BD84B5816084BD85B5826085BD85B5E3
:1019D000816085BD80916E00816080936E00109261
:1019E00081008091810082608093810080918100DC
:1019F000816080938100809180008160809380006D
:101A00008091B10084608093B1008091B0008160CA
:101A10008093B00080917A00846080937A008091F6
:101A20007A00826080937A0080917A00816080934E
:101A30007A0080917A00806880937A001092C100C9
:101A40001092DA021092DB021092DC021092DD0298
:101A500010929A0210929B0210929C0210929D0288
:101A600068EB7BE080E090E00E944F0A60ED77E059
:101A700080E090E00E9455090E94D40B0E94D1049E
:101A800060939A0270939B0280939C0290939D02B4
:101A90008EE891E00E944D0A6AE070E080E090E0FC
:101AA0000E944F0A81E08093AE0280EF92E00E9494
:101AB0007C030E94D40B8BE0C82E94EF892E9924CE
:101AC0009394A12CB12CCA8AAE014E5E5F4FBE0129
:101AD0006F5F7F4F80EF92E00E944603882309F4F6
:101AE0006BC1BE016F5F7F4FCE010C960E94530CFD
:101AF000BE01645F7F4F8EED92E00E94140CCE0118
:101B00000C960E944E0C00E010E0D02EE12E809149
:101B1000E2029091E3020817190708F045C00F5F31
:101B20001F4FA8016D2D7E2DCE010C960E94680CD2
:101B300088899989892B51F060EA71E08C859D85AF
:101B40000E947616FF24F394892B09F0F12CCE0124
:101B50000C960E944E0CFF20C1F24D2D5E2D60E0D0
:101B600070E0CE010C960E94680CBE01645F7F4F4E
:101B70008AEE92E00E94140CCE010C960E944E0C4C
:101B80004091E2025091E302B801CE010C960E940E
:101B9000680CBE01645F7F4F84EE92E00E94140CDB
:101BA000CE010C960E944E0C82EA91E00E944D0AF2
:101BB0004091EE025091EF026091EA027091EB02C7
:101BC0008BEF91E00E9490098DEA91E00E944D0A0E
:101BD0004091E8025091E9026091E4027091E502BF
:101BE0008BEF91E00E9490098DE991E00E94FA0943
:101BF0008091EA029091EB020E9426106093F70117
:101C00007093F8018093F9019093FA018092A602F3
:101C10009092A702A092A802B092A9021092AA02E2
:101C20001092AB021092AC021092AD0280919E0213
:101C300090919F02A091A002B091A1028093A20274
:101C40009093A302A093A402B093A5020E94D10492
:101C500060939E0270939F028093A0029093A102D2
:101C600080E00E94760A8823A1F082E00E94AB0AFD
:101C700084EC91E00E944D0A6091F7017091F801A7
:101C80008091F9019091FA0142E00E94FA0A0E94C3
:101C9000CC0B65E070E080E090E00E944F0A0E946B
:101CA000D10460939E0270939F028093A002909350
:101CB000A1028091E4029091E5020E9426106093B7
:101CC000F3017093F4018093F5019093F6018092F3
:101CD000A6029092A702A092A802B092A902109226
:101CE000AA021092AB021092AC021092AD02809147
:101CF0009E0290919F02A091A002B091A1028093B8
:101D0000A2029093A302A093A402B093A5020E9402
:101D1000D10460939E0270939F028093A0029093DF
:101D2000A10280E00E94760A8823A1F081E00E944F
:101D3000AB0A84EC91E00E944D0A6091F30170912E
:101D4000F4018091F5019091F60142E00E94FA0AB7
:101D50000E94CC0B65E070E080E090E00E944F0AAA
:101D60000E94D10460939E0270939F028093A00210
:101D70009093A10282EA91E00E944D0A6091F701DE
:101D80007091F8018091F9019091FA0142E00E946E
:101D9000FA0A8DEA91E00E944D0A6091F301709178
:101DA000F4018091F5019091F60142E00E94FA0A57
:101DB0008DE991E00E94FA090E945D0884CECF93DC
:101DC000DF93CDB7DEB728970FB6F894DEBF0FBE0E
:101DD000CDBFEBEFF1E01382128288EE93E0A0E03A
:101DE000B0E084839583A683B7838AE291E09183F0
:101DF000808385EC90E09587848784EC90E09787DA
:101E0000868780EC90E0918B808B81EC90E0938BC7
:101E1000828B82EC90E0958B848B86EC90E0978BA4
:101E2000868B118E128E138E148EE8E9F2E01682E4
:101E300017821086118612861386148615861686DA
:101E40001786108A118A128A138A148A158AE0EF7B
:101E5000F3E01382128215821482178216828CE3B9
:101E600091E09183808380E580871186E0EFF2E046
:101E7000138212828FEF848382878387148615866C
:101E8000118A108A138A128A158A148A108E178A68
:101E900086E591E09183808380ED97E0928F818F3A
:101EA0008BE0838F8CE0848F8AE0858F168E178E6F
:101EB00088E0EEE1F1E0DE01119601900D928A9545
:101EC000E1F788E0FE013196A1E6B3E001900D92C2
:101ED0008A95E1F76FE971E08AEE92E00E94530C77
:101EE0006FE971E084EE92E00E94530C6FE971E0BB
:101EF0008EED92E028960FB6F894DEBF0FBECDBFF0
:101F0000DF91CF910C94530C8F929F92AF92BF921E
:101F1000CF92DF92EF92FF92CF93DF93EC01688133
:101F200079818A819B81611571058105910521F473
:101F300064E279ED8BE597E02DE133EF41E050E08D
:101F40000E94EB1249015A019B01AC01A7EAB1E4DE
:101F50000E940A136B017C01ACEEB4EFA501940161
:101F60000E941813DC01CB018C0D9D1DAE1DBF1D01
:101F7000B7FF03C00197A109B04888839983AA835A
:101F8000BB83BC01CD019F77DF91CF91FF90EF9094
:101F9000DF90CF90BF90AF909F908F9008958F92D9
:101FA0009F92AF92BF92CF92DF92EF92FF92609199
:101FB000040170910501809106019091070161155E
:101FC00071058105910521F464E279ED8BE597E0D7
:101FD0002DE133EF41E050E00E94EB1249015A013C
:101FE0009B01AC01A7EAB1E40E940A136B017C01DA
:101FF000ACEEB4EFA50194010E941813DC01CB01F3
:102000008C0D9D1DAE1DBF1DB7FF03C00197A1091B
:10201000B0488093040190930501A0930601B0930A
:102020000701BC01CD019F77FF90EF90DF90CF902B
:10203000BF90AF909F908F9008956093040170932C
:10204000050180930601909307010895662777277D
:102050000C943C1091110C948A11803219F0895023
:102060008550C8F70895FB01DC0102C005900D9270
:1020700041505040D8F70895A0E0B0E0E2E4F0E12C
:102080000C942313EC016B016115710519F0FB0130
:10209000918380837E01FFEFEF1AFF0A0881802F72
:1020A00090E00E942A10892B11F0E701F3CF0D3246
:1020B00039F47E0182E0E80EF11C098111E008C0CC
:1020C0000B3229F47E0192E0E90EF11C098110E047
:1020D000E701219743E050E060E770E0CE010E9405
:1020E0008D11892BC1F4239645E050E06BE670E03A
:1020F000CE010E948D11892B09F42596C114D104BB
:1021000019F0F601D183C0831111F6C060E070E0D0
:1021100080E89FE7FAC043E050E068E670E0CE0157
:102120000E948D11892B59F4C114D10409F4E9C01E
:10213000F2E0EF0EF11CF601F182E082E2C020E055
:1021400030E0A901C0E0D0E0F70180EDA82EA00E9C
:1021500089E08A1530F1912F9260B92E812F887015
:1021600012FF04C0811124C0219622C08111219741
:10217000A5E0B0E00E940A13DC01CB01880F991F93
:10218000AA1FBB1F9C01AD012A0D311D411D511D10
:10219000283989E93807480789E1580748F0166067
:1021A00006C09EEFA9120AC013FD40C01860B12EF0
:1021B0008FEFE81AF80A00811B2DC6CF802F8F7D84
:1021C0008534A1F580818D3211F4106106C08B3207
:1021D00021F0319661E070E004C08181329662E0C6
:1021E00070E080538A3018F0E61BF70B1FC060E0E8
:1021F00070E060389CE079075CF4DB01AA0FBB1F3C
:10220000AA0FBB1F6A0F7B1F660F771F680F711D18
:102210003196DF0111978C9180538A3050F314FF6F
:1022200003C0719561957109C60FD71F11FF08C0D2
:10223000C114D10429F0CF010197F6019183808365
:10224000CA01B9010E94AA11212F2370233019F06D
:102250004B015C0106C04B015C01B7FAB094B7F8C2
:10226000B09420E030E0A901C501B4010E94A5119D
:10227000882309F43EC0D7FF06C0D195C195D10986
:1022800007E810E002C00FE910E06801F8E1CF1A9A
:10229000D10890E2E92EF12CCE15DF0574F0F8019B
:1022A0002591359145915491C501B4010E940B12BD
:1022B0004B015C01CE19DF09EFCF04501109F594F1
:1022C000E7940C151D0541F78A2D880F8B2D881F6B
:1022D0008F3F49F020E030E0A901C501B4010E9420
:1022E000A511811106C082E290E09093FB038093D8
:1022F000FA03C501B40109C060E070E080E89FEF17
:1023000004C060E070E080EC9FE7CDB7DEB7ECE0A2
:102310000C943F13992788270895FB01DC01415055
:10232000504088F08D9181341CF08B350CF4805E28
:10233000659161341CF06B350CF4605E861B611195
:1023400071F3990B0895881BFCCF0E94E71108F4E4
:1023500081E00895E89409C097FB3EF4909580953C
:10236000709561957F4F8F4F9F4F9923A9F0F92F5B
:1023700096E9BB279395F695879577956795B795D9
:10238000F111F8CFFAF4BB0F11F460FF1BC06F5FBF
:102390007F4F8F4F9F4F16C0882311F096E911C0D1
:1023A000772321F09EE8872F762F05C0662371F0F2
:1023B00096E8862F70E060E02AF09A95660F771F06
:1023C000881FDAF7880F9695879597F90895990FE2
:1023D0000008550FAA0BE0E8FEEF16161706E807EF
:1023E000F907C0F012161306E407F50798F0621B10
:1023F000730B840B950B39F40A2661F0232B242BE5
:10240000252B21F408950A2609F4A140A6958FEF03
:10241000811D811D08950E941E120C948F120E942E
:10242000811238F00E94881220F0952311F00C944C
:1024300078120C947E1211240C94C3120E94A012E4
:1024400070F3959FC1F3950F50E0551F629FF00107
:10245000729FBB27F00DB11D639FAA27F00DB11D20
:10246000AA1F649F6627B00DA11D661F829F2227A9
:10247000B00DA11D621F739FB00DA11D621F839F30
:10248000A00D611D221F749F3327A00D611D231F06
:10249000849F600D211D822F762F6A2F11249F5754
:1024A00050409AF0F1F088234AF0EE0FFF1FBB1F57
:1024B000661F771F881F91505040A9F79E3F510516
:1024C00080F00C9478120C94C3125F3FE4F3983EB2
:1024D000D4F3869577956795B795F795E7959F5FC0
:1024E000C1F7FE2B880F911D9695879597F9089552
:1024F00097F99F6780E870E060E008959FEF80ECB7
:10250000089500240A941616170618060906089559
:1025100000240A9412161306140605060895092EBF
:102520000394000C11F4882352F0BB0F40F4BF2B2E
:1025300011F460FF04C06F5F7F4F8F4F9F4F08956E
:1025400057FD9058440F551F59F05F3F71F0479564
:10255000880F97FB991F61F09F3F79F08795089549
:10256000121613061406551FF2CF4695F1DF08C068
:10257000161617061806991FF1CF86957105610585
:1025800008940895E894BB2766277727CB0197F92D
:102590000895A1E21A2EAA1BBB1BFD010DC0AA1FA4
:1025A000BB1FEE1FFF1FA217B307E407F50720F0BC
:1025B000A21BB30BE40BF50B661F771F881F991F37
:1025C0001A9469F760957095809590959B01AC0180
:1025D000BD01CF010895052E97FB1EF400940E94C3
:1025E000021357FD07D00E94C91207FC03D04EF416
:1025F0000C94021350954095309521953F4F4F4FC5
:102600005F4F089590958095709561957F4F8F4F9E
:102610009F4F08950E945413A59F900DB49F900D55
:10262000A49F800D911D11240895B7FF0C940A13E7
:102630000E940A13821B930B08952F923F924F9290
:102640005F926F927F928F929F92AF92BF92CF9242
:10265000DF92EF92FF920F931F93CF93DF93CDB74B
:10266000DEB7CA1BDB0B0FB6F894DEBF0FBECDBFC3
:1026700009942A88398848885F846E847D848C8494
:102680009B84AA84B984C884DF80EE80FD800C819D
:102690001B81AA81B981CE0FD11D0FB6F894DEBF80
:1026A0000FBECDBFED010895A29FB001B39FC00141
:1026B000A39F700D811D1124911DB29F700D811D6E
:1026C0001124911D08955058BB27AA270E947B13FF
:1026D0000C948F120E94811238F00E94881220F010
:1026E00039F49F3F19F426F40C947E120EF4E09511
:1026F000E7FB0C947812E92F0E94A01258F3BA1746
:10270000620773078407950720F079F4A6F50C9407
:10271000C2120EF4E0950B2EBA2FA02D0B01B901B9
:1027200090010C01CA01A0011124FF27591B99F047
:10273000593F50F4503E68F11A16F040A22F232F53
:10274000342F4427585FF3CF469537952795A795A3
:10275000F0405395C9F77EF41F16BA0B620B730B4A
:10276000840BBAF09150A1F0FF0FBB1F661F771FBB
:10277000881FC2F70EC0BA0F621F731F841F48F470
:10278000879577956795B795F7959E3F08F0B0CFF9
:102790009395880F08F09927EE0F979587950895E0
:1027A0000E94E4130C948F120E94881258F00E9429
:1027B000811240F029F45F3F29F00C9478125111F6
:1027C0000C94C3120C947E120E94A01268F39923F9
:1027D000B1F3552391F3951B550BBB27AA2762171D
:1027E0007307840738F09F5F5F4F220F331F441F2A
:1027F000AA1FA9F335D00E2E3AF0E0E832D091505E
:102800005040E695001CCAF72BD0FE2F29D0660F4A
:10281000771F881FBB1F261737074807AB07B0E88D
:1028200009F0BB0B802DBF01FF2793585F4F3AF093
:102830009E3F510578F00C9478120C94C3125F3FC0
:10284000E4F3983ED4F3869577956795B795F79519
:102850009F5FC9F7880F911D9695879597F9089501
:10286000E1E0660F771F881FBB1F6217730784079D
:10287000BA0720F0621B730B840BBA0BEE1F88F7AC
:10288000E09508950E94A81288F09F5798F0B92FFC
:102890009927B751B0F0E1F0660F771F881F991F95
:1028A0001AF0BA95C9F714C0B13091F00E94C21263
:1028B000B1E008950C94C212672F782F8827B85F73
:1028C00039F0B93FCCF3869577956795B395D9F7ED
:1028D0003EF490958095709561957F4F8F4F9F4FF7
:1028E00008950E94E71108F48FEF08950E94E71100
:1028F000880B990B0895EE0FFF1F0590F491E02DC2
:1029000009940F931F93CF93DF938230910510F4B6
:1029100082E090E0E091FE03F091FF0320E030E0E0
:10292000A0E0B0E0309719F140815181028113811C
:1029300048175907C8F08417950769F4109731F0C4
:1029400012960C93129713961C9327C00093FE03C4
:102950001093FF0322C02115310519F042175307C8
:1029600018F49A01BD01EF01DF01F801DBCF211559
:102970003105F9F0281B390B2430310580F48A81A8
:102980009B816115710521F0FB019383828304C053
:102990009093FF038093FE03FE01329644C0FE0134
:1029A000E20FF31F819391932250310939832883D9
:1029B0003AC02091FC033091FD03232B41F4209178
:1029C0000A0130910B013093FD032093FC03209109
:1029D0000801309109012115310541F42DB73EB7A9
:1029E00040910C0150910D01241B350BE091FC032B
:1029F000F091FD03E217F307A0F42E1B3F0B2817FD
:102A0000390778F0AC014E5F5F4F2417350748F067
:102A10004E0F5F1F5093FD034093FC0381939193EE
:102A200002C0E0E0F0E0CF01DF91CF911F910F9164
:102A30000895CF93DF93009709F481C0FC0132978A
:102A400013821282A091FE03B091FF03109781F4CC
:102A500020813181820F931F2091FC033091FD036F
:102A60002817390751F5F093FD03E093FC0367C085
:102A7000ED0120E030E0CE17DF0740F44A815B81B2
:102A80009E0141155105F1F0EA01F5CFD383C283D0
:102A900040815181840F951FC817D90759F4888147
:102AA0009981840F951F0296918380838A819B81EF
:102AB000938382832115310529F4F093FF03E0937A
:102AC000FE033DC0E901FB83EA8349915991C40F9C
:102AD000D51FEC17FD0761F480819181840F951F4C
:102AE0000296E90199838883828193819B838A83FB
:102AF000E0E0F0E012968D919C911397009719F009
:102B0000FD01DC01F7CF8D919C9111979D012E5F06
:102B10003F4F820F931F2091FC033091FD03281734
:102B2000390769F4309729F41092FF031092FE03DD
:102B300002C013821282B093FD03A093FC03DF91C5
:102B4000CF910895A0E0B0E0E8EAF5E10C942113FC
:102B5000EC01009721F4CB010E948114B4C0FC0168
:102B6000E60FF71F9C0122503109E217F30708F422
:102B7000A8C0D9010D911C91119706171707B0F045
:102B80000530110508F49BC0C80104978617970704
:102B900008F495C002501109061B170B01931193FD
:102BA0006D937C93CF010E94191589C05B01A01A17
:102BB000B10A4C01800E911EA091FE03B091FF035B
:102BC000612C712CE12CF12C109709F446C08D91E9
:102BD0009C911197A815B905B1F56C0142E0C40E9E
:102BE000D11CCA14DB0478F14C018A189B086401DB
:102BF00042E0C40ED11C1296BC9012971396AC9171
:102C0000B5E0CB16D10440F0B282A38391828082DA
:102C1000D9016D937C9309C00E5F1F4F800F911FE8
:102C2000F90191838083EB2DFA2FE114F10431F047
:102C3000D7011396FC93EE93129741C0F093FF03D4
:102C4000E093FE033CC06816790608F43C017D0160
:102C500012960D90BC91A02DB7CF8091FC0390915E
:102C6000FD0388169906E1F466167706C8F480918C
:102C7000080190910901009741F48DB79EB74091EA
:102C80000C0150910D01841B950BE817F907C8F44E
:102C9000F093FD03E093FC03F901718360830FC09F
:102CA000CB010E9481147C01009759F0A801BE015C
:102CB0000E946D16CE010E941915C70104C0CE01F5
:102CC00002C080E090E0CDB7DEB7EEE00C943D139B
:102CD00081E090E0F8940C948616FB01DC0102C0C0
:102CE00001900D9241505040D8F70895FB01DC014E
:102CF0008D91019080190110D9F3990B0895FB0172
:102D0000DC0101900D920020E1F7089510E0C7E882
:102D1000D0E004C0FE010E947B142196C838D10780
:062D2000C9F7F894FFCF93
:102D2600B200B200010000000000000480000D0E99
:102D3600131516191A1C232526292A2C32342A2A59
:102D46002A2A2A2A382C00000000EE079009850757
:102D56003B08B6079407A807000000001B011701EF
:102D660013011604FF002A0126012201E200D10008
:102D7600B700000000007C03E4024603A101B30093
:102D860073016B0131056205DD043B0165016201DA
:102D96005F015C015501680152014F014C01490177
:102DA600450141013D013B01370133012F01564DDC
:102DB6004450565F317C315F564D4450560D0A00E3
:102DC6002C0048756D69646974793A2000202020CA
:102DD60020202020202054656D7065726174757204
:102DE600653A20007C00564D4450455F003A323A21
:102DF600006E616E00696E66006F7666005F564D06
:042E060044504500EF
:00000001FF
